{
  "_format": "hh-sol-artifact-1",
  "contractName": "GraduationRegistry",
  "sourceName": "contracts/GraduationRegistry.sol",
  "abi": [
    {
      "anonymous": false,
      "inputs": [
        {
          "indexed": true,
          "internalType": "address",
          "name": "previousOwner",
          "type": "address"
        },
        {
          "indexed": true,
          "internalType": "address",
          "name": "newOwner",
          "type": "address"
        }
      ],
      "name": "OwnershipTransferred",
      "type": "event"
    },
    {
      "anonymous": false,
      "inputs": [
        {
          "indexed": true,
          "internalType": "address",
          "name": "registrar",
          "type": "address"
        },
        {
          "indexed": false,
          "internalType": "bool",
          "name": "authorised",
          "type": "bool"
        }
      ],
      "name": "RegistrarStatusChanged",
      "type": "event"
    },
    {
      "anonymous": false,
      "inputs": [
        {
          "indexed": true,
          "internalType": "address",
          "name": "token",
          "type": "address"
        },
        {
          "indexed": true,
          "internalType": "address",
          "name": "pair",
          "type": "address"
        }
      ],
      "name": "TokenRegistered",
      "type": "event"
    },
    {
      "inputs": [
        {
          "internalType": "address",
          "name": "registrar",
          "type": "address"
        }
      ],
      "name": "addRegistrar",
      "outputs": [],
      "stateMutability": "nonpayable",
      "type": "function"
    },
    {
      "inputs": [
        {
          "internalType": "address",
          "name": "",
          "type": "address"
        }
      ],
      "name": "authorisedRegistrars",
      "outputs": [
        {
          "internalType": "bool",
          "name": "",
          "type": "bool"
        }
      ],
      "stateMutability": "view",
      "type": "function"
    },
    {
      "inputs": [],
      "name": "getGraduatedTokens",
      "outputs": [
        {
          "internalType": "address[]",
          "name": "",
          "type": "address[]"
        }
      ],
      "stateMutability": "view",
      "type": "function"
    },
    {
      "inputs": [
        {
          "internalType": "address",
          "name": "token",
          "type": "address"
        }
      ],
      "name": "getTokenPair",
      "outputs": [
        {
          "internalType": "address",
          "name": "",
          "type": "address"
        }
      ],
      "stateMutability": "view",
      "type": "function"
    },
    {
      "inputs": [
        {
          "internalType": "address",
          "name": "token",
          "type": "address"
        }
      ],
      "name": "isGraduated",
      "outputs": [
        {
          "internalType": "bool",
          "name": "",
          "type": "bool"
        }
      ],
      "stateMutability": "view",
      "type": "function"
    },
    {
      "inputs": [],
      "name": "owner",
      "outputs": [
        {
          "internalType": "address",
          "name": "",
          "type": "address"
        }
      ],
      "stateMutability": "view",
      "type": "function"
    },
    {
      "inputs": [
        {
          "internalType": "address",
          "name": "token",
          "type": "address"
        },
        {
          "internalType": "address",
          "name": "pair",
          "type": "address"
        }
      ],
      "name": "registerToken",
      "outputs": [],
      "stateMutability": "nonpayable",
      "type": "function"
    },
    {
      "inputs": [
        {
          "internalType": "address",
          "name": "registrar",
          "type": "address"
        }
      ],
      "name": "removeRegistrar",
      "outputs": [],
      "stateMutability": "nonpayable",
      "type": "function"
    },
    {
      "inputs": [],
      "name": "renounceOwnership",
      "outputs": [],
      "stateMutability": "nonpayable",
      "type": "function"
    },
    {
      "inputs": [
        {
          "internalType": "address",
          "name": "newOwner",
          "type": "address"
        }
      ],
      "name": "transferOwnership",
      "outputs": [],
      "stateMutability": "nonpayable",
      "type": "function"
    }
  ],
  "bytecode": "0x608060405234801561001057600080fd5b5061001a3361001f565b61006f565b600080546001600160a01b038381166001600160a01b0319831681178455604051919092169283917f8be0079c531659141344cd1fd0a4f28419497f9722a3daafe3b4186f6b6457e09190a35050565b6106d78061007e6000396000f3fe608060405234801561001057600080fd5b506004361061009e5760003560e01c8063af92a69311610066578063af92a69314610149578063b1aecc8e1461015c578063ba904eed14610188578063ca10e4811461019b578063f2fde38b146101b057600080fd5b80632a41717a146100a35780634739f7e5146100db57806368a4c8b7146100f0578063715018a61461011c5780638da5cb5b14610124575b600080fd5b6100c66100b13660046105ff565b60046020526000908152604090205460ff1681565b60405190151581526020015b60405180910390f35b6100ee6100e9366004610621565b6101c3565b005b6100c66100fe3660046105ff565b6001600160a01b031660009081526001602052604090205460ff1690565b6100ee61038d565b6000546001600160a01b03165b6040516001600160a01b0390911681526020016100d2565b6100ee6101573660046105ff565b6103a1565b61013161016a3660046105ff565b6001600160a01b039081166000908152600260205260409020541690565b6100ee6101963660046105ff565b610407565b6101a361045e565b6040516100d29190610654565b6100ee6101be3660046105ff565b6104c0565b3360009081526004602052604090205460ff16806101eb57506000546001600160a01b031633145b61022d5760405162461bcd60e51b815260206004820152600e60248201526d139bdd08185d5d1a1bdc9a5cd95960921b60448201526064015b60405180910390fd5b6001600160a01b03821660009081526001602052604090205460ff161561028b5760405162461bcd60e51b8152602060048201526012602482015271105b1c9958591e481c9959da5cdd195c995960721b6044820152606401610224565b6001600160a01b038216158015906102ab57506001600160a01b03811615155b6102e65760405162461bcd60e51b815260206004820152600c60248201526b5a65726f206164647265737360a01b6044820152606401610224565b6001600160a01b038083166000818152600160208181526040808420805460ff191684179055600290915280832080549587166001600160a01b0319968716811790915560038054938401815584527fc2575a0e9e593c00f959f8c92f12db2869c3395a3b0502d05e2516446f71f85b9092018054909516841790945592517f487c37289624c10056468f1f98ebffbad01edce11374975179672e32e2543bf09190a35050565b610395610539565b61039f6000610593565b565b6103a9610539565b6001600160a01b038116600081815260046020908152604091829020805460ff1916600190811790915591519182527ff8ebe356992a6fdcec6c64165aecad3ae665479af72b74807c00b33330581ea091015b60405180910390a250565b61040f610539565b6001600160a01b0381166000818152600460209081526040808320805460ff19169055519182527ff8ebe356992a6fdcec6c64165aecad3ae665479af72b74807c00b33330581ea091016103fc565b606060038054806020026020016040519081016040528092919081815260200182805480156104b657602002820191906000526020600020905b81546001600160a01b03168152600190910190602001808311610498575b5050505050905090565b6104c8610539565b6001600160a01b03811661052d5760405162461bcd60e51b815260206004820152602660248201527f4f776e61626c653a206e6577206f776e657220697320746865207a65726f206160448201526564647265737360d01b6064820152608401610224565b61053681610593565b50565b6000546001600160a01b0316331461039f5760405162461bcd60e51b815260206004820181905260248201527f4f776e61626c653a2063616c6c6572206973206e6f7420746865206f776e65726044820152606401610224565b600080546001600160a01b038381166001600160a01b0319831681178455604051919092169283917f8be0079c531659141344cd1fd0a4f28419497f9722a3daafe3b4186f6b6457e09190a35050565b80356001600160a01b03811681146105fa57600080fd5b919050565b60006020828403121561061157600080fd5b61061a826105e3565b9392505050565b6000806040838503121561063457600080fd5b61063d836105e3565b915061064b602084016105e3565b90509250929050565b6020808252825182820181905260009190848201906040850190845b818110156106955783516001600160a01b031683529284019291840191600101610670565b5090969550505050505056fea2646970667358221220547cce1ccc2fa438cb2174b6dde8fb6c7a351b35c56fcb953d15cf1bd53e966f64736f6c63430008140033",
  "linkReferences": {},
  "deployedLinkReferences": {}
}