{
  "_format": "hh-sol-artifact-1",
  "contractName": "GravityScoreSystem",
  "sourceName": "contracts/GravityScoreSystem.sol",
  "abi": [
    {
      "inputs": [],
      "stateMutability": "nonpayable",
      "type": "constructor"
    },
    {
      "anonymous": false,
      "inputs": [
        {
          "indexed": true,
          "internalType": "address",
          "name": "previousOwner",
          "type": "address"
        },
        {
          "indexed": true,
          "internalType": "address",
          "name": "newOwner",
          "type": "address"
        }
      ],
      "name": "OwnershipTransferred",
      "type": "event"
    },
    {
      "anonymous": false,
      "inputs": [
        {
          "indexed": true,
          "internalType": "address",
          "name": "tokenAddress",
          "type": "address"
        },
        {
          "indexed": false,
          "internalType": "uint256",
          "name": "newScore",
          "type": "uint256"
        },
        {
          "indexed": false,
          "internalType": "uint256",
          "name": "timestamp",
          "type": "uint256"
        }
      ],
      "name": "ScoreUpdated",
      "type": "event"
    },
    {
      "inputs": [
        {
          "internalType": "address[]",
          "name": "_tokenAddresses",
          "type": "address[]"
        },
        {
          "internalType": "uint256[]",
          "name": "_newScores",
          "type": "uint256[]"
        }
      ],
      "name": "batchUpdateScores",
      "outputs": [],
      "stateMutability": "nonpayable",
      "type": "function"
    },
    {
      "inputs": [
        {
          "internalType": "address",
          "name": "_tokenAddress",
          "type": "address"
        }
      ],
      "name": "getLastUpdateTime",
      "outputs": [
        {
          "internalType": "uint256",
          "name": "",
          "type": "uint256"
        }
      ],
      "stateMutability": "view",
      "type": "function"
    },
    {
      "inputs": [
        {
          "internalType": "address",
          "name": "_tokenAddress",
          "type": "address"
        }
      ],
      "name": "getScore",
      "outputs": [
        {
          "internalType": "uint256",
          "name": "",
          "type": "uint256"
        }
      ],
      "stateMutability": "view",
      "type": "function"
    },
    {
      "inputs": [
        {
          "internalType": "address",
          "name": "",
          "type": "address"
        }
      ],
      "name": "lastScoreUpdate",
      "outputs": [
        {
          "internalType": "uint256",
          "name": "",
          "type": "uint256"
        }
      ],
      "stateMutability": "view",
      "type": "function"
    },
    {
      "inputs": [],
      "name": "owner",
      "outputs": [
        {
          "internalType": "address",
          "name": "",
          "type": "address"
        }
      ],
      "stateMutability": "view",
      "type": "function"
    },
    {
      "inputs": [],
      "name": "renounceOwnership",
      "outputs": [],
      "stateMutability": "nonpayable",
      "type": "function"
    },
    {
      "inputs": [
        {
          "internalType": "address",
          "name": "_tokenFactory",
          "type": "address"
        }
      ],
      "name": "setTokenFactory",
      "outputs": [],
      "stateMutability": "nonpayable",
      "type": "function"
    },
    {
      "inputs": [],
      "name": "tokenFactory",
      "outputs": [
        {
          "internalType": "address",
          "name": "",
          "type": "address"
        }
      ],
      "stateMutability": "view",
      "type": "function"
    },
    {
      "inputs": [
        {
          "internalType": "address",
          "name": "",
          "type": "address"
        }
      ],
      "name": "tokenScores",
      "outputs": [
        {
          "internalType": "uint256",
          "name": "",
          "type": "uint256"
        }
      ],
      "stateMutability": "view",
      "type": "function"
    },
    {
      "inputs": [
        {
          "internalType": "address",
          "name": "newOwner",
          "type": "address"
        }
      ],
      "name": "transferOwnership",
      "outputs": [],
      "stateMutability": "nonpayable",
      "type": "function"
    },
    {
      "inputs": [
        {
          "internalType": "address",
          "name": "_tokenAddress",
          "type": "address"
        },
        {
          "internalType": "uint256",
          "name": "_newScore",
          "type": "uint256"
        }
      ],
      "name": "updateScore",
      "outputs": [],
      "stateMutability": "nonpayable",
      "type": "function"
    }
  ],
  "bytecode": "0x608060405234801561001057600080fd5b5061001a3361001f565b61006f565b600080546001600160a01b038381166001600160a01b0319831681178455604051919092169283917f8be0079c531659141344cd1fd0a4f28419497f9722a3daafe3b4186f6b6457e09190a35050565b6108c78061007e6000396000f3fe608060405234801561001057600080fd5b50600436106100a95760003560e01c80638da5cb5b116100715780638da5cb5b1461012d578063ca8b052f14610152578063d47875d014610172578063e0690d991461019b578063e77772fe146101bb578063f2fde38b146101ce57600080fd5b80632f73a9f8146100ae578063340458da146100c357806365d97724146100d65780636e8c271b146100e9578063715018a614610125575b600080fd5b6100c16100bc366004610750565b6101e1565b005b6100c16100d13660046107be565b61020b565b6100c16100e436600461082a565b6104d4565b6101126100f7366004610750565b6001600160a01b031660009081526003602052604090205490565b6040519081526020015b60405180910390f35b6100c16105fd565b6000546001600160a01b03165b6040516001600160a01b03909116815260200161011c565b610112610160366004610750565b60036020526000908152604090205481565b610112610180366004610750565b6001600160a01b031660009081526002602052604090205490565b6101126101a9366004610750565b60026020526000908152604090205481565b60015461013a906001600160a01b031681565b6100c16101dc366004610750565b610611565b6101e961068a565b600180546001600160a01b0319166001600160a01b0392909216919091179055565b61021361068a565b8281146102605760405162461bcd60e51b8152602060048201526016602482015275082e4e4c2f2e640d8cadccee8d040dad2e6dac2e8c6d60531b60448201526064015b60405180910390fd5b60005b838110156104cd576103e883838381811061028057610280610854565b9050602002013511156102d55760405162461bcd60e51b815260206004820181905260248201527f477261766974792053636f72652063616e6e6f742065786365656420313030306044820152606401610257565b8282828181106102e7576102e7610854565b905060200201356002600087878581811061030457610304610854565b90506020020160208101906103199190610750565b6001600160a01b03166001600160a01b0316815260200190815260200160002081905550426003600087878581811061035457610354610854565b90506020020160208101906103699190610750565b6001600160a01b039081168252602082019290925260400160002091909155600154166358f363408686848181106103a3576103a3610854565b90506020020160208101906103b89190610750565b8585858181106103ca576103ca610854565b6040516001600160e01b031960e087901b1681526001600160a01b0390941660048501526020029190910135602483015250604401600060405180830381600087803b15801561041957600080fd5b505af115801561042d573d6000803e3d6000fd5b5050505084848281811061044357610443610854565b90506020020160208101906104589190610750565b6001600160a01b03167f91878448ef87c3db4aeb83e60e7deb1240ecae3fd04975ec93547398514cb4ed84848481811061049457610494610854565b90506020020135426040516104b3929190918252602082015260400190565b60405180910390a2806104c58161086a565b915050610263565b5050505050565b6104dc61068a565b6103e881111561052e5760405162461bcd60e51b815260206004820181905260248201527f477261766974792053636f72652063616e6e6f742065786365656420313030306044820152606401610257565b6001600160a01b0382811660008181526002602090815260408083208690556003909152908190204290556001549051630163cd8d60e61b8152600481019290925260248201849052909116906358f3634090604401600060405180830381600087803b15801561059e57600080fd5b505af11580156105b2573d6000803e3d6000fd5b5050604080518481524260208201526001600160a01b03861693507f91878448ef87c3db4aeb83e60e7deb1240ecae3fd04975ec93547398514cb4ed92500160405180910390a25050565b61060561068a565b61060f60006106e4565b565b61061961068a565b6001600160a01b03811661067e5760405162461bcd60e51b815260206004820152602660248201527f4f776e61626c653a206e6577206f776e657220697320746865207a65726f206160448201526564647265737360d01b6064820152608401610257565b610687816106e4565b50565b6000546001600160a01b0316331461060f5760405162461bcd60e51b815260206004820181905260248201527f4f776e61626c653a2063616c6c6572206973206e6f7420746865206f776e65726044820152606401610257565b600080546001600160a01b038381166001600160a01b0319831681178455604051919092169283917f8be0079c531659141344cd1fd0a4f28419497f9722a3daafe3b4186f6b6457e09190a35050565b80356001600160a01b038116811461074b57600080fd5b919050565b60006020828403121561076257600080fd5b61076b82610734565b9392505050565b60008083601f84011261078457600080fd5b50813567ffffffffffffffff81111561079c57600080fd5b6020830191508360208260051b85010111156107b757600080fd5b9250929050565b600080600080604085870312156107d457600080fd5b843567ffffffffffffffff808211156107ec57600080fd5b6107f888838901610772565b9096509450602087013591508082111561081157600080fd5b5061081e87828801610772565b95989497509550505050565b6000806040838503121561083d57600080fd5b61084683610734565b946020939093013593505050565b634e487b7160e01b600052603260045260246000fd5b60006001820161088a57634e487b7160e01b600052601160045260246000fd5b506001019056fea2646970667358221220a235a4b88d25e70e7fd6253297ed1a12063a4980f7015f9d1e994b6a80f6d97e64736f6c63430008140033",
  "linkReferences": {},
  "deployedLinkReferences": {}
}