{
  "_format": "hh-sol-artifact-1",
  "contractName": "BondingCurveToken",
  "sourceName": "contracts/BondingCurveToken.sol",
  "abi": [
    {
      "inputs": [
        {
          "internalType": "string",
          "name": "_name",
          "type": "string"
        },
        {
          "internalType": "string",
          "name": "_symbol",
          "type": "string"
        },
        {
          "internalType": "string",
          "name": "_description",
          "type": "string"
        },
        {
          "internalType": "address",
          "name": "_creator",
          "type": "address"
        },
        {
          "internalType": "address",
          "name": "_treasury",
          "type": "address"
        },
        {
          "internalType": "address",
          "name": "_usdt",
          "type": "address"
        }
      ],
      "stateMutability": "nonpayable",
      "type": "constructor"
    },
    {
      "anonymous": false,
      "inputs": [
        {
          "indexed": true,
          "internalType": "address",
          "name": "owner",
          "type": "address"
        },
        {
          "indexed": true,
          "internalType": "address",
          "name": "spender",
          "type": "address"
        },
        {
          "indexed": false,
          "internalType": "uint256",
          "name": "value",
          "type": "uint256"
        }
      ],
      "name": "Approval",
      "type": "event"
    },
    {
      "anonymous": false,
      "inputs": [
        {
          "indexed": true,
          "internalType": "address",
          "name": "user",
          "type": "address"
        },
        {
          "indexed": false,
          "internalType": "uint256",
          "name": "amount",
          "type": "uint256"
        }
      ],
      "name": "FeeCollected",
      "type": "event"
    },
    {
      "anonymous": false,
      "inputs": [
        {
          "indexed": false,
          "internalType": "uint256",
          "name": "oldScore",
          "type": "uint256"
        },
        {
          "indexed": false,
          "internalType": "uint256",
          "name": "newScore",
          "type": "uint256"
        }
      ],
      "name": "GravityScoreUpdated",
      "type": "event"
    },
    {
      "anonymous": false,
      "inputs": [
        {
          "indexed": true,
          "internalType": "address",
          "name": "previousOwner",
          "type": "address"
        },
        {
          "indexed": true,
          "internalType": "address",
          "name": "newOwner",
          "type": "address"
        }
      ],
      "name": "OwnershipTransferred",
      "type": "event"
    },
    {
      "anonymous": false,
      "inputs": [
        {
          "indexed": false,
          "internalType": "uint256",
          "name": "threshold",
          "type": "uint256"
        },
        {
          "indexed": false,
          "internalType": "uint256",
          "name": "tokensUnlocked",
          "type": "uint256"
        }
      ],
      "name": "ThresholdReached",
      "type": "event"
    },
    {
      "anonymous": false,
      "inputs": [
        {
          "indexed": true,
          "internalType": "address",
          "name": "tokenAddress",
          "type": "address"
        },
        {
          "indexed": true,
          "internalType": "address",
          "name": "pairAddress",
          "type": "address"
        },
        {
          "indexed": false,
          "internalType": "uint256",
          "name": "usdtAmount",
          "type": "uint256"
        },
        {
          "indexed": false,
          "internalType": "uint256",
          "name": "tokenAmount",
          "type": "uint256"
        },
        {
          "indexed": false,
          "internalType": "uint256",
          "name": "timestamp",
          "type": "uint256"
        }
      ],
      "name": "TokenGraduated",
      "type": "event"
    },
    {
      "anonymous": false,
      "inputs": [
        {
          "indexed": true,
          "internalType": "address",
          "name": "buyer",
          "type": "address"
        },
        {
          "indexed": false,
          "internalType": "uint256",
          "name": "usdtAmount",
          "type": "uint256"
        },
        {
          "indexed": false,
          "internalType": "uint256",
          "name": "tokenAmount",
          "type": "uint256"
        },
        {
          "indexed": false,
          "internalType": "uint256",
          "name": "feeAmount",
          "type": "uint256"
        }
      ],
      "name": "TokensPurchased",
      "type": "event"
    },
    {
      "anonymous": false,
      "inputs": [
        {
          "indexed": true,
          "internalType": "address",
          "name": "seller",
          "type": "address"
        },
        {
          "indexed": false,
          "internalType": "uint256",
          "name": "tokenAmount",
          "type": "uint256"
        },
        {
          "indexed": false,
          "internalType": "uint256",
          "name": "usdtAmount",
          "type": "uint256"
        },
        {
          "indexed": false,
          "internalType": "uint256",
          "name": "feeAmount",
          "type": "uint256"
        }
      ],
      "name": "TokensSold",
      "type": "event"
    },
    {
      "anonymous": false,
      "inputs": [
        {
          "indexed": true,
          "internalType": "address",
          "name": "from",
          "type": "address"
        },
        {
          "indexed": true,
          "internalType": "address",
          "name": "to",
          "type": "address"
        },
        {
          "indexed": false,
          "internalType": "uint256",
          "name": "value",
          "type": "uint256"
        }
      ],
      "name": "Transfer",
      "type": "event"
    },
    {
      "inputs": [],
      "name": "CREATOR_RESERVE_PERCENT",
      "outputs": [
        {
          "internalType": "uint256",
          "name": "",
          "type": "uint256"
        }
      ],
      "stateMutability": "view",
      "type": "function"
    },
    {
      "inputs": [],
      "name": "CURVE_FACTOR",
      "outputs": [
        {
          "internalType": "uint256",
          "name": "",
          "type": "uint256"
        }
      ],
      "stateMutability": "view",
      "type": "function"
    },
    {
      "inputs": [],
      "name": "FEE_DENOMINATOR",
      "outputs": [
        {
          "internalType": "uint256",
          "name": "",
          "type": "uint256"
        }
      ],
      "stateMutability": "view",
      "type": "function"
    },
    {
      "inputs": [],
      "name": "FEE_RATE",
      "outputs": [
        {
          "internalType": "uint256",
          "name": "",
          "type": "uint256"
        }
      ],
      "stateMutability": "view",
      "type": "function"
    },
    {
      "inputs": [],
      "name": "PRECISION",
      "outputs": [
        {
          "internalType": "uint256",
          "name": "",
          "type": "uint256"
        }
      ],
      "stateMutability": "view",
      "type": "function"
    },
    {
      "inputs": [],
      "name": "USDT",
      "outputs": [
        {
          "internalType": "address",
          "name": "",
          "type": "address"
        }
      ],
      "stateMutability": "view",
      "type": "function"
    },
    {
      "inputs": [],
      "name": "USDT_DECIMALS",
      "outputs": [
        {
          "internalType": "uint8",
          "name": "",
          "type": "uint8"
        }
      ],
      "stateMutability": "view",
      "type": "function"
    },
    {
      "inputs": [],
      "name": "VIRTUAL_TOKEN_RESERVES",
      "outputs": [
        {
          "internalType": "uint256",
          "name": "",
          "type": "uint256"
        }
      ],
      "stateMutability": "view",
      "type": "function"
    },
    {
      "inputs": [],
      "name": "VIRTUAL_USDT_RESERVES",
      "outputs": [
        {
          "internalType": "uint256",
          "name": "",
          "type": "uint256"
        }
      ],
      "stateMutability": "view",
      "type": "function"
    },
    {
      "inputs": [
        {
          "internalType": "address",
          "name": "owner",
          "type": "address"
        },
        {
          "internalType": "address",
          "name": "spender",
          "type": "address"
        }
      ],
      "name": "allowance",
      "outputs": [
        {
          "internalType": "uint256",
          "name": "",
          "type": "uint256"
        }
      ],
      "stateMutability": "view",
      "type": "function"
    },
    {
      "inputs": [
        {
          "internalType": "address",
          "name": "spender",
          "type": "address"
        },
        {
          "internalType": "uint256",
          "name": "amount",
          "type": "uint256"
        }
      ],
      "name": "approve",
      "outputs": [
        {
          "internalType": "bool",
          "name": "",
          "type": "bool"
        }
      ],
      "stateMutability": "nonpayable",
      "type": "function"
    },
    {
      "inputs": [
        {
          "internalType": "address",
          "name": "account",
          "type": "address"
        }
      ],
      "name": "balanceOf",
      "outputs": [
        {
          "internalType": "uint256",
          "name": "",
          "type": "uint256"
        }
      ],
      "stateMutability": "view",
      "type": "function"
    },
    {
      "inputs": [
        {
          "internalType": "uint256",
          "name": "usdtAmount",
          "type": "uint256"
        }
      ],
      "name": "buy",
      "outputs": [],
      "stateMutability": "nonpayable",
      "type": "function"
    },
    {
      "inputs": [
        {
          "internalType": "uint256",
          "name": "_amount",
          "type": "uint256"
        }
      ],
      "name": "calculateFee",
      "outputs": [
        {
          "internalType": "uint256",
          "name": "",
          "type": "uint256"
        }
      ],
      "stateMutability": "pure",
      "type": "function"
    },
    {
      "inputs": [
        {
          "internalType": "uint256",
          "name": "_usdtAmount",
          "type": "uint256"
        }
      ],
      "name": "calculatePurchaseAmount",
      "outputs": [
        {
          "internalType": "uint256",
          "name": "",
          "type": "uint256"
        }
      ],
      "stateMutability": "view",
      "type": "function"
    },
    {
      "inputs": [
        {
          "internalType": "uint256",
          "name": "_tokenAmount",
          "type": "uint256"
        }
      ],
      "name": "calculateSaleReturn",
      "outputs": [
        {
          "internalType": "uint256",
          "name": "",
          "type": "uint256"
        }
      ],
      "stateMutability": "view",
      "type": "function"
    },
    {
      "inputs": [
        {
          "internalType": "address",
          "name": "recipient",
          "type": "address"
        }
      ],
      "name": "claimByFactory",
      "outputs": [],
      "stateMutability": "nonpayable",
      "type": "function"
    },
    {
      "inputs": [],
      "name": "claimUnlockedTokens",
      "outputs": [],
      "stateMutability": "nonpayable",
      "type": "function"
    },
    {
      "inputs": [],
      "name": "creatorReserve",
      "outputs": [
        {
          "internalType": "uint256",
          "name": "",
          "type": "uint256"
        }
      ],
      "stateMutability": "view",
      "type": "function"
    },
    {
      "inputs": [],
      "name": "decimals",
      "outputs": [
        {
          "internalType": "uint8",
          "name": "",
          "type": "uint8"
        }
      ],
      "stateMutability": "view",
      "type": "function"
    },
    {
      "inputs": [
        {
          "internalType": "address",
          "name": "spender",
          "type": "address"
        },
        {
          "internalType": "uint256",
          "name": "subtractedValue",
          "type": "uint256"
        }
      ],
      "name": "decreaseAllowance",
      "outputs": [
        {
          "internalType": "bool",
          "name": "",
          "type": "bool"
        }
      ],
      "stateMutability": "nonpayable",
      "type": "function"
    },
    {
      "inputs": [],
      "name": "description",
      "outputs": [
        {
          "internalType": "string",
          "name": "",
          "type": "string"
        }
      ],
      "stateMutability": "view",
      "type": "function"
    },
    {
      "inputs": [],
      "name": "factory",
      "outputs": [
        {
          "internalType": "address",
          "name": "",
          "type": "address"
        }
      ],
      "stateMutability": "view",
      "type": "function"
    },
    {
      "inputs": [],
      "name": "getCurrentPrice",
      "outputs": [
        {
          "internalType": "uint256",
          "name": "",
          "type": "uint256"
        }
      ],
      "stateMutability": "view",
      "type": "function"
    },
    {
      "inputs": [],
      "name": "getMarketCap",
      "outputs": [
        {
          "internalType": "uint256",
          "name": "",
          "type": "uint256"
        }
      ],
      "stateMutability": "view",
      "type": "function"
    },
    {
      "inputs": [],
      "name": "graduate",
      "outputs": [],
      "stateMutability": "nonpayable",
      "type": "function"
    },
    {
      "inputs": [],
      "name": "gravityScore",
      "outputs": [
        {
          "internalType": "uint256",
          "name": "",
          "type": "uint256"
        }
      ],
      "stateMutability": "view",
      "type": "function"
    },
    {
      "inputs": [
        {
          "internalType": "uint256",
          "name": "",
          "type": "uint256"
        }
      ],
      "name": "gravityThresholds",
      "outputs": [
        {
          "internalType": "uint256",
          "name": "",
          "type": "uint256"
        }
      ],
      "stateMutability": "view",
      "type": "function"
    },
    {
      "inputs": [
        {
          "internalType": "address",
          "name": "spender",
          "type": "address"
        },
        {
          "internalType": "uint256",
          "name": "addedValue",
          "type": "uint256"
        }
      ],
      "name": "increaseAllowance",
      "outputs": [
        {
          "internalType": "bool",
          "name": "",
          "type": "bool"
        }
      ],
      "stateMutability": "nonpayable",
      "type": "function"
    },
    {
      "inputs": [],
      "name": "isGraduated",
      "outputs": [
        {
          "internalType": "bool",
          "name": "",
          "type": "bool"
        }
      ],
      "stateMutability": "view",
      "type": "function"
    },
    {
      "inputs": [],
      "name": "isTradingEnabled",
      "outputs": [
        {
          "internalType": "bool",
          "name": "",
          "type": "bool"
        }
      ],
      "stateMutability": "view",
      "type": "function"
    },
    {
      "inputs": [],
      "name": "k",
      "outputs": [
        {
          "internalType": "uint256",
          "name": "",
          "type": "uint256"
        }
      ],
      "stateMutability": "view",
      "type": "function"
    },
    {
      "inputs": [],
      "name": "name",
      "outputs": [
        {
          "internalType": "string",
          "name": "",
          "type": "string"
        }
      ],
      "stateMutability": "view",
      "type": "function"
    },
    {
      "inputs": [],
      "name": "owner",
      "outputs": [
        {
          "internalType": "address",
          "name": "",
          "type": "address"
        }
      ],
      "stateMutability": "view",
      "type": "function"
    },
    {
      "inputs": [],
      "name": "renounceOwnership",
      "outputs": [],
      "stateMutability": "nonpayable",
      "type": "function"
    },
    {
      "inputs": [
        {
          "internalType": "uint256",
          "name": "tokenAmount",
          "type": "uint256"
        }
      ],
      "name": "sell",
      "outputs": [],
      "stateMutability": "nonpayable",
      "type": "function"
    },
    {
      "inputs": [],
      "name": "swapPair",
      "outputs": [
        {
          "internalType": "address",
          "name": "",
          "type": "address"
        }
      ],
      "stateMutability": "view",
      "type": "function"
    },
    {
      "inputs": [],
      "name": "symbol",
      "outputs": [
        {
          "internalType": "string",
          "name": "",
          "type": "string"
        }
      ],
      "stateMutability": "view",
      "type": "function"
    },
    {
      "inputs": [
        {
          "internalType": "uint256",
          "name": "",
          "type": "uint256"
        }
      ],
      "name": "thresholdReached",
      "outputs": [
        {
          "internalType": "bool",
          "name": "",
          "type": "bool"
        }
      ],
      "stateMutability": "view",
      "type": "function"
    },
    {
      "inputs": [],
      "name": "tokenReserves",
      "outputs": [
        {
          "internalType": "uint256",
          "name": "",
          "type": "uint256"
        }
      ],
      "stateMutability": "view",
      "type": "function"
    },
    {
      "inputs": [],
      "name": "totalSupply",
      "outputs": [
        {
          "internalType": "uint256",
          "name": "",
          "type": "uint256"
        }
      ],
      "stateMutability": "view",
      "type": "function"
    },
    {
      "inputs": [],
      "name": "totalUnlockedTokens",
      "outputs": [
        {
          "internalType": "uint256",
          "name": "",
          "type": "uint256"
        }
      ],
      "stateMutability": "view",
      "type": "function"
    },
    {
      "inputs": [
        {
          "internalType": "address",
          "name": "to",
          "type": "address"
        },
        {
          "internalType": "uint256",
          "name": "amount",
          "type": "uint256"
        }
      ],
      "name": "transfer",
      "outputs": [
        {
          "internalType": "bool",
          "name": "",
          "type": "bool"
        }
      ],
      "stateMutability": "nonpayable",
      "type": "function"
    },
    {
      "inputs": [
        {
          "internalType": "address",
          "name": "from",
          "type": "address"
        },
        {
          "internalType": "address",
          "name": "to",
          "type": "address"
        },
        {
          "internalType": "uint256",
          "name": "amount",
          "type": "uint256"
        }
      ],
      "name": "transferFrom",
      "outputs": [
        {
          "internalType": "bool",
          "name": "",
          "type": "bool"
        }
      ],
      "stateMutability": "nonpayable",
      "type": "function"
    },
    {
      "inputs": [
        {
          "internalType": "address",
          "name": "newOwner",
          "type": "address"
        }
      ],
      "name": "transferOwnership",
      "outputs": [],
      "stateMutability": "nonpayable",
      "type": "function"
    },
    {
      "inputs": [],
      "name": "treasury",
      "outputs": [
        {
          "internalType": "address",
          "name": "",
          "type": "address"
        }
      ],
      "stateMutability": "view",
      "type": "function"
    },
    {
      "inputs": [
        {
          "internalType": "uint256",
          "name": "",
          "type": "uint256"
        }
      ],
      "name": "unlockPercentages",
      "outputs": [
        {
          "internalType": "uint256",
          "name": "",
          "type": "uint256"
        }
      ],
      "stateMutability": "view",
      "type": "function"
    },
    {
      "inputs": [
        {
          "internalType": "uint256",
          "name": "",
          "type": "uint256"
        }
      ],
      "name": "unlockedTokens",
      "outputs": [
        {
          "internalType": "uint256",
          "name": "",
          "type": "uint256"
        }
      ],
      "stateMutability": "view",
      "type": "function"
    },
    {
      "inputs": [
        {
          "internalType": "uint256",
          "name": "_newScore",
          "type": "uint256"
        }
      ],
      "name": "updateGravityScore",
      "outputs": [],
      "stateMutability": "nonpayable",
      "type": "function"
    },
    {
      "inputs": [],
      "name": "usdtReserves",
      "outputs": [
        {
          "internalType": "uint256",
          "name": "",
          "type": "uint256"
        }
      ],
      "stateMutability": "view",
      "type": "function"
    }
  ],
  "bytecode": "0x61014060405260c860a090815261019060c05261025860e052610320610100526103e8610120526200003690600c90600562000220565b506040805160a0810182526101f481526103e860208201526107d091810191909152610bb86060820152610dac60808201526200007890600d90600562000220565b506000600f8190556012556013805461ffff60a01b1916600160a81b179055348015620000a457600080fd5b5060405162002b0b38038062002b0b833981016040819052620000c7916200036f565b85856003620000d78382620004c6565b506004620000e68282620004c6565b50505062000103620000fd620001ca60201b60201c565b620001ce565b60016006556007620001168582620004c6565b50600880546001600160a01b03199081163317909155601380546001600160a01b03858116919093161790558116608052620001556012600a620006a7565b6200016490620186a0620006bf565b60098190556b061a73c7cc33de0c3de00000600a8190556200018691620006bf565b600b556064620001a460056b061a73c7cc33de0c3de00000620006bf565b620001b09190620006d9565b600e55620001be83620001ce565b505050505050620006fc565b3390565b600580546001600160a01b038381166001600160a01b0319831681179093556040519116919082907f8be0079c531659141344cd1fd0a4f28419497f9722a3daafe3b4186f6b6457e090600090a35050565b82805482825590600052602060002090810192821562000264579160200282015b8281111562000264578251829061ffff1690559160200191906001019062000241565b506200027292915062000276565b5090565b5b8082111562000272576000815560010162000277565b634e487b7160e01b600052604160045260246000fd5b600082601f830112620002b557600080fd5b81516001600160401b0380821115620002d257620002d26200028d565b604051601f8301601f19908116603f01168101908282118183101715620002fd57620002fd6200028d565b816040528381526020925086838588010111156200031a57600080fd5b600091505b838210156200033e57858201830151818301840152908201906200031f565b600093810190920192909252949350505050565b80516001600160a01b03811681146200036a57600080fd5b919050565b60008060008060008060c087890312156200038957600080fd5b86516001600160401b0380821115620003a157600080fd5b620003af8a838b01620002a3565b97506020890151915080821115620003c657600080fd5b620003d48a838b01620002a3565b96506040890151915080821115620003eb57600080fd5b50620003fa89828a01620002a3565b9450506200040b6060880162000352565b92506200041b6080880162000352565b91506200042b60a0880162000352565b90509295509295509295565b600181811c908216806200044c57607f821691505b6020821081036200046d57634e487b7160e01b600052602260045260246000fd5b50919050565b601f821115620004c157600081815260208120601f850160051c810160208610156200049c5750805b601f850160051c820191505b81811015620004bd57828155600101620004a8565b5050505b505050565b81516001600160401b03811115620004e257620004e26200028d565b620004fa81620004f3845462000437565b8462000473565b602080601f831160018114620005325760008415620005195750858301515b600019600386901b1c1916600185901b178555620004bd565b600085815260208120601f198616915b82811015620005635788860151825594840194600190910190840162000542565b5085821015620005825787850151600019600388901b60f8161c191681555b5050505050600190811b01905550565b634e487b7160e01b600052601160045260246000fd5b600181815b80851115620005e9578160001904821115620005cd57620005cd62000592565b80851615620005db57918102915b93841c9390800290620005ad565b509250929050565b6000826200060257506001620006a1565b816200061157506000620006a1565b81600181146200062a5760028114620006355762000655565b6001915050620006a1565b60ff84111562000649576200064962000592565b50506001821b620006a1565b5060208310610133831016604e8410600b84101617156200067a575081810a620006a1565b620006868383620005a8565b80600019048211156200069d576200069d62000592565b0290505b92915050565b6000620006b860ff841683620005f1565b9392505050565b8082028115828204841417620006a157620006a162000592565b600082620006f757634e487b7160e01b600052601260045260246000fd5b500490565b6080516123c962000742600039600081816105af01528181610dff01528181610f6001528181611179015281816111b801528181611440015261147e01526123c96000f3fe608060405234801561001057600080fd5b50600436106102d65760003560e01c80638da5cb5b11610182578063aaf5eb68116100e9578063d96a094a116100a2578063eb91d37e1161007c578063eb91d37e1461061c578063ef2cfd1a14610624578063f2fde38b1461062c578063f6cbb4d41461063f57600080fd5b8063d96a094a146105e3578063dd62ed3e146105f6578063e4849b321461060957600080fd5b8063aaf5eb681461057f578063b4f40c611461058e578063c45a015514610597578063c54e44eb146105aa578063d3618cca146105d1578063d73792a9146105d957600080fd5b80639eef3c351161013b5780639eef3c351461051c578063a34c00ae14610525578063a3b2587714610538578063a457c2d714610546578063a6b02bc314610559578063a9059cbb1461056c57600080fd5b80638da5cb5b146104cb57806390825c28146104dc57806395d89b41146104e457806398a1447e146104ec57806399a5d747146104f55780639e5f26021461050857600080fd5b8063313ce5671161024157806358e5c3fb116101fa57806370a08231116101d457806370a082311461047f578063715018a6146104a85780637284e416146104b0578063798c87ce146104b857600080fd5b806358e5c3fb1461045157806361d027b31461045957806369fcd4ac1461046c57600080fd5b8063313ce56714610406578063395093511461041b5780634b50640f1461042e5780634bad951014610436578063543546291461043f57806354cad9731461044857600080fd5b806318160ddd1161029357806318160ddd146103905780631b1158ab146103985780631d3d97e1146103ab57806323b872dd146103c057806326991cc8146103d35780632d11c58a146103fe57600080fd5b806305f9c597146102db578063064a59d01461031357806306fdde0314610327578063095ea7b31461033c5780630fbdc42e1461034f57806315db91711461037d575b600080fd5b6102fe6102e9366004611fbe565b60106020526000908152604090205460ff1681565b60405190151581526020015b60405180910390f35b6013546102fe90600160a81b900460ff1681565b61032f610647565b60405161030a9190611ffb565b6102fe61034a366004612043565b6106d9565b61036f61035d366004611fbe565b60116020526000908152604090205481565b60405190815260200161030a565b61036f61038b366004611fbe565b6106f3565b60025461036f565b61036f6b061a73c7cc33de0c3de0000081565b6103be6103b9366004611fbe565b610714565b005b6102fe6103ce36600461206f565b610818565b6014546103e6906001600160a01b031681565b6040516001600160a01b03909116815260200161030a565b61036f606481565b60125b60405160ff909116815260200161030a565b6102fe610429366004612043565b61083c565b6103be61085e565b61036f600a5481565b61036f600e5481565b61036f600f5481565b61036f600581565b6013546103e6906001600160a01b031681565b61036f61047a366004611fbe565b610957565b61036f61048d3660046120b0565b6001600160a01b031660009081526020819052604090205490565b6103be6109a5565b61032f6109b7565b61036f6104c6366004611fbe565b610a45565b6005546001600160a01b03166103e6565b61036f610a55565b61032f610a84565b61036f60095481565b61036f610503366004611fbe565b610a93565b6013546102fe90600160a01b900460ff1681565b61036f60125481565b6103be6105333660046120b0565b610aae565b61036f66038d7ea4c6800081565b6102fe610554366004612043565b610c92565b61036f610567366004611fbe565b610d0d565b6102fe61057a366004612043565b610d53565b61036f670de0b6b3a764000081565b61036f600b5481565b6008546103e6906001600160a01b031681565b6103e67f000000000000000000000000000000000000000000000000000000000000000081565b6103be610d61565b61036f620186a081565b6103be6105f1366004611fbe565b611035565b61036f6106043660046120d4565b611272565b6103be610617366004611fbe565b61129d565b61036f61151d565b610409601281565b6103be61063a3660046120b0565b611538565b61036f6115ae565b6060600380546106569061210d565b80601f01602080910402602001604051908101604052809291908181526020018280546106829061210d565b80156106cf5780601f106106a4576101008083540402835291602001916106cf565b820191906000526020600020905b8154815290600101906020018083116106b257829003601f168201915b5050505050905090565b6000336106e78185856115ca565b60019150505b92915050565b600c818154811061070357600080fd5b600091825260209091200154905081565b6008546001600160a01b031633148061073757506005546001600160a01b031633145b6107795760405162461bcd60e51b815260206004820152600e60248201526d139bdd08185d5d1a1bdc9a5e995960921b60448201526064015b60405180910390fd5b6103e88111156107cb5760405162461bcd60e51b815260206004820181905260248201527f477261766974792053636f72652063616e6e6f742065786365656420313030306044820152606401610770565b600f80549082905560408051828152602081018490527f2a59b5b6ffec36f241ef80c1e1b70d2d76f9f2f743f1d88a337ca62c60982d39910160405180910390a16108146116ee565b5050565b600033610826858285611812565b61083185858561188c565b506001949350505050565b6000336106e781858561084f8383611272565b610859919061215d565b6115ca565b610866611a30565b6005546001600160a01b031633148061088957506008546001600160a01b031633145b6108df5760405162461bcd60e51b815260206004820152602160248201527f4f6e6c792063726561746f72206f7220666163746f72792063616e20636c61696044820152606d60f81b6064820152608401610770565b6000601254116109265760405162461bcd60e51b81526020600482015260126024820152714e6f20746f6b656e7320746f20636c61696d60701b6044820152606401610770565b60128054600090915561094a6109446005546001600160a01b031690565b82611a89565b506109556001600655565b565b60008082600a54610968919061215d565b9050600081600b5461097a9190612170565b9050600954811061098f575060009392505050565b8060095461099d9190612192565b949350505050565b6109ad611b48565b6109556000611ba2565b600780546109c49061210d565b80601f01602080910402602001604051908101604052809291908181526020018280546109f09061210d565b8015610a3d5780601f10610a1257610100808354040283529160200191610a3d565b820191906000526020600020905b815481529060010190602001808311610a2057829003601f168201915b505050505081565b600d818154811061070357600080fd5b6000670de0b6b3a7640000600a54610a6b61151d565b610a7591906121a5565b610a7f9190612170565b905090565b6060600480546106569061210d565b6000620186a0610aa46064846121a5565b6106ed9190612170565b610ab6611a30565b6008546001600160a01b03163314610b095760405162461bcd60e51b81526020600482015260166024820152754f6e6c7920666163746f72792063616e20636c61696d60501b6044820152606401610770565b600060125411610b505760405162461bcd60e51b81526020600482015260126024820152714e6f20746f6b656e7320746f20636c61696d60701b6044820152606401610770565b6001600160a01b038116610b9a5760405162461bcd60e51b8152602060048201526011602482015270526563697069656e74206973207a65726f60781b6044820152606401610770565b6005546001600160a01b0382811691161480610c25575060085460405163ae6862ff60e01b81526001600160a01b0383811660048301523060248301529091169063ae6862ff90604401602060405180830381865afa158015610c01573d6000803e3d6000fd5b505050506040513d601f19601f82011682018060405250810190610c2591906121bc565b610c715760405162461bcd60e51b815260206004820152601e60248201527f526563697069656e74206973206e6f7420746f6b656e2063726561746f7200006044820152606401610770565b601280546000909155610c848282611a89565b50610c8f6001600655565b50565b60003381610ca08286611272565b905083811015610d005760405162461bcd60e51b815260206004820152602560248201527f45524332303a2064656372656173656420616c6c6f77616e63652062656c6f77604482015264207a65726f60d81b6064820152608401610770565b61083182868684036115ca565b60008082600954610d1e919061215d565b9050600081600b54610d309190612170565b9050600a548110610d45575060009392505050565b80600a5461099d9190612192565b6000336106e781858561188c565b610d69611b48565b610d71611a30565b601354600160a01b900460ff1615610dcb5760405162461bcd60e51b815260206004820152601a60248201527f546f6b656e20697320616c7265616479206772616475617465640000000000006044820152606401610770565b6013805461ffff60a01b1916600160a01b1790556040516370a0823160e01b81523060048201526000906001600160a01b037f000000000000000000000000000000000000000000000000000000000000000016906370a0823190602401602060405180830381865afa158015610e46573d6000803e3d6000fd5b505050506040513d601f19601f82011682018060405250810190610e6a91906121de565b90508060006064610e7a60025490565b610e859060146121a5565b610e8f9190612170565b9050610e9b3082611a89565b600854610eb39030906001600160a01b0316836115ca565b600854604051632097c4bd60e01b815230600482015260006024820181905260448201849052916001600160a01b031690632097c4bd906064016020604051808303816000875af1158015610f0c573d6000803e3d6000fd5b505050506040513d601f19601f82011682018060405250810190610f3091906121f7565b601480546001600160a01b0319166001600160a01b03831617905590508215610fdb57610f876001600160a01b037f0000000000000000000000000000000000000000000000000000000000000000168285611bf4565b806001600160a01b031663fff6cae96040518163ffffffff1660e01b8152600401600060405180830381600087803b158015610fc257600080fd5b505af1158015610fd6573d6000803e3d6000fd5b505050505b6040805184815260208101849052428183015290516001600160a01b0383169130917f5ec1e9daf7affe04984801e0d07de6448f00139d72977b7c948bf698bd353f769181900360600190a3505050506109556001600655565b61103d611a30565b600081116110825760405162461bcd60e51b81526020600482015260126024820152710416d6f756e74206d757374206265203e20360741b6044820152606401610770565b601354600160a81b900460ff166110ab5760405162461bcd60e51b815260040161077090612214565b60006110b682610d0d565b9050600081116110fe5760405162461bcd60e51b815260206004820152601360248201527216995c9bc81d1bdad95b9cc81d1bc81b5a5b9d606a1b6044820152606401610770565b6000620186a061110f6064856121a5565b6111199190612170565b90506000611127828561215d565b9050836009600082825461113b919061215d565b9250508190555082600a60008282546111549190612192565b9091555050600a5460095461116991906121a5565b600b556111a16001600160a01b037f000000000000000000000000000000000000000000000000000000000000000016333084611c5c565b8115611217576013546111e1906001600160a01b037f00000000000000000000000000000000000000000000000000000000000000008116911684611bf4565b60405182815233907f06c5efeff5c320943d265dc4e5f1af95ad523555ce0c1957e367dda5514572df9060200160405180910390a25b6112213384611a89565b604080518581526020810185905290810183905233907f0d1a0d5e3d583a0e92588799dd06e50fd78c07daf05f0cc06d7b848b1ca445f1906060015b60405180910390a2505050610c8f6001600655565b6001600160a01b03918216600090815260016020908152604080832093909416825291909152205490565b6112a5611a30565b600081116112ea5760405162461bcd60e51b81526020600482015260126024820152710416d6f756e74206d757374206265203e20360741b6044820152606401610770565b3360009081526020819052604090205481111561133f5760405162461bcd60e51b8152602060048201526013602482015272496e73756666696369656e7420746f6b656e7360681b6044820152606401610770565b601354600160a81b900460ff166113685760405162461bcd60e51b815260040161077090612214565b600061137382610957565b9050600081116113bb5760405162461bcd60e51b81526020600482015260136024820152722d32b937902aa9a22a103a37903932ba3ab93760691b6044820152606401610770565b6000620186a06113cc6064846121a5565b6113d69190612170565b905060006113e48284612192565b905082600960008282546113f89190612192565b9250508190555083600a6000828254611411919061215d565b9091555050600a5460095461142691906121a5565b600b556114333385611c94565b6114676001600160a01b037f0000000000000000000000000000000000000000000000000000000000000000163383611bf4565b81156114dd576013546114a7906001600160a01b037f00000000000000000000000000000000000000000000000000000000000000008116911684611bf4565b60405182815233907f06c5efeff5c320943d265dc4e5f1af95ad523555ce0c1957e367dda5514572df9060200160405180910390a25b604080518581526020810183905290810183905233907f6db63bebf1e6540277744df32846ebdb98385b1a73f2d5de49b28348add63f509060600161125d565b6000600a54600954670de0b6b3a7640000610a7591906121a5565b611540611b48565b6001600160a01b0381166115a55760405162461bcd60e51b815260206004820152602660248201527f4f776e61626c653a206e6577206f776e657220697320746865207a65726f206160448201526564647265737360d01b6064820152608401610770565b610c8f81611ba2565b6115ba6012600a612339565b6115c790620186a06121a5565b81565b6001600160a01b03831661162c5760405162461bcd60e51b8152602060048201526024808201527f45524332303a20617070726f76652066726f6d20746865207a65726f206164646044820152637265737360e01b6064820152608401610770565b6001600160a01b03821661168d5760405162461bcd60e51b815260206004820152602260248201527f45524332303a20617070726f766520746f20746865207a65726f206164647265604482015261737360f01b6064820152608401610770565b6001600160a01b0383811660008181526001602090815260408083209487168084529482529182902085905590518481527f8c5be1e5ebec7d5bd14f71427d1e84f3dd0314c0f7b2291e5b200ac8c7c3b925910160405180910390a3505050565b60005b600c54811015610c8f576000600c828154811061171057611710612348565b9060005260206000200154905080600f541015801561173e575060008181526010602052604090205460ff16155b156117ff576000818152601060205260408120805460ff19166001179055600d805461271091908590811061177557611775612348565b9060005260206000200154600e5461178d91906121a5565b6117979190612170565b60008381526011602052604081208290556012805492935083929091906117bf90849061215d565b909155505060408051838152602081018390527f8ed12daf03921f6cf3d38d560dee47e5e323c2a96469beef3cdb39c23ef1a742910160405180910390a1505b508061180a8161235e565b9150506116f1565b600061181e8484611272565b9050600019811461188657818110156118795760405162461bcd60e51b815260206004820152601d60248201527f45524332303a20696e73756666696369656e7420616c6c6f77616e63650000006044820152606401610770565b61188684848484036115ca565b50505050565b6001600160a01b0383166118f05760405162461bcd60e51b815260206004820152602560248201527f45524332303a207472616e736665722066726f6d20746865207a65726f206164604482015264647265737360d81b6064820152608401610770565b6001600160a01b0382166119525760405162461bcd60e51b815260206004820152602360248201527f45524332303a207472616e7366657220746f20746865207a65726f206164647260448201526265737360e81b6064820152608401610770565b6001600160a01b038316600090815260208190526040902054818110156119ca5760405162461bcd60e51b815260206004820152602660248201527f45524332303a207472616e7366657220616d6f756e7420657863656564732062604482015265616c616e636560d01b6064820152608401610770565b6001600160a01b03848116600081815260208181526040808320878703905593871680835291849020805487019055925185815290927fddf252ad1be2c89b69c2b068fc378daa952ba7f163c4a11628f55a4df523b3ef910160405180910390a3611886565b600260065403611a825760405162461bcd60e51b815260206004820152601f60248201527f5265656e7472616e637947756172643a207265656e7472616e742063616c6c006044820152606401610770565b6002600655565b6001600160a01b038216611adf5760405162461bcd60e51b815260206004820152601f60248201527f45524332303a206d696e7420746f20746865207a65726f2061646472657373006044820152606401610770565b8060026000828254611af1919061215d565b90915550506001600160a01b038216600081815260208181526040808320805486019055518481527fddf252ad1be2c89b69c2b068fc378daa952ba7f163c4a11628f55a4df523b3ef910160405180910390a35050565b6005546001600160a01b031633146109555760405162461bcd60e51b815260206004820181905260248201527f4f776e61626c653a2063616c6c6572206973206e6f7420746865206f776e65726044820152606401610770565b600580546001600160a01b038381166001600160a01b0319831681179093556040519116919082907f8be0079c531659141344cd1fd0a4f28419497f9722a3daafe3b4186f6b6457e090600090a35050565b6040516001600160a01b038316602482015260448101829052611c5790849063a9059cbb60e01b906064015b60408051601f198184030181529190526020810180516001600160e01b03166001600160e01b031990931692909217909152611dc6565b505050565b6040516001600160a01b03808516602483015283166044820152606481018290526118869085906323b872dd60e01b90608401611c20565b6001600160a01b038216611cf45760405162461bcd60e51b815260206004820152602160248201527f45524332303a206275726e2066726f6d20746865207a65726f206164647265736044820152607360f81b6064820152608401610770565b6001600160a01b03821660009081526020819052604090205481811015611d685760405162461bcd60e51b815260206004820152602260248201527f45524332303a206275726e20616d6f756e7420657863656564732062616c616e604482015261636560f01b6064820152608401610770565b6001600160a01b0383166000818152602081815260408083208686039055600280548790039055518581529192917fddf252ad1be2c89b69c2b068fc378daa952ba7f163c4a11628f55a4df523b3ef910160405180910390a3505050565b6000611e1b826040518060400160405280602081526020017f5361666545524332303a206c6f772d6c6576656c2063616c6c206661696c6564815250856001600160a01b0316611e9b9092919063ffffffff16565b9050805160001480611e3c575080806020019051810190611e3c91906121bc565b611c575760405162461bcd60e51b815260206004820152602a60248201527f5361666545524332303a204552433230206f7065726174696f6e20646964206e6044820152691bdd081cdd58d8d9595960b21b6064820152608401610770565b606061099d848460008585600080866001600160a01b03168587604051611ec29190612377565b60006040518083038185875af1925050503d8060008114611eff576040519150601f19603f3d011682016040523d82523d6000602084013e611f04565b606091505b5091509150611f1587838387611f20565b979650505050505050565b60608315611f8f578251600003611f88576001600160a01b0385163b611f885760405162461bcd60e51b815260206004820152601d60248201527f416464726573733a2063616c6c20746f206e6f6e2d636f6e74726163740000006044820152606401610770565b508161099d565b61099d8383815115611fa45781518083602001fd5b8060405162461bcd60e51b81526004016107709190611ffb565b600060208284031215611fd057600080fd5b5035919050565b60005b83811015611ff2578181015183820152602001611fda565b50506000910152565b602081526000825180602084015261201a816040850160208701611fd7565b601f01601f19169190910160400192915050565b6001600160a01b0381168114610c8f57600080fd5b6000806040838503121561205657600080fd5b82356120618161202e565b946020939093013593505050565b60008060006060848603121561208457600080fd5b833561208f8161202e565b9250602084013561209f8161202e565b929592945050506040919091013590565b6000602082840312156120c257600080fd5b81356120cd8161202e565b9392505050565b600080604083850312156120e757600080fd5b82356120f28161202e565b915060208301356121028161202e565b809150509250929050565b600181811c9082168061212157607f821691505b60208210810361214157634e487b7160e01b600052602260045260246000fd5b50919050565b634e487b7160e01b600052601160045260246000fd5b808201808211156106ed576106ed612147565b60008261218d57634e487b7160e01b600052601260045260246000fd5b500490565b818103818111156106ed576106ed612147565b80820281158282048414176106ed576106ed612147565b6000602082840312156121ce57600080fd5b815180151581146120cd57600080fd5b6000602082840312156121f057600080fd5b5051919050565b60006020828403121561220957600080fd5b81516120cd8161202e565b60208082526021908201527f54726164696e672064697361626c65642061667465722067726164756174696f6040820152603760f91b606082015260800190565b600181815b8085111561229057816000190482111561227657612276612147565b8085161561228357918102915b93841c939080029061225a565b509250929050565b6000826122a7575060016106ed565b816122b4575060006106ed565b81600181146122ca57600281146122d4576122f0565b60019150506106ed565b60ff8411156122e5576122e5612147565b50506001821b6106ed565b5060208310610133831016604e8410600b8410161715612313575081810a6106ed565b61231d8383612255565b806000190482111561233157612331612147565b029392505050565b60006120cd60ff841683612298565b634e487b7160e01b600052603260045260246000fd5b60006001820161237057612370612147565b5060010190565b60008251612389818460208701611fd7565b919091019291505056fea264697066735822122075e3432d3a01bc750386e76a3eff713e8b71a377183affe3c1c36ef301221afa64736f6c63430008140033",
  "linkReferences": {},
  "deployedLinkReferences": {}
}