{
  "_format": "hh-sol-artifact-1",
  "contractName": "LF0GSwapPair",
  "sourceName": "contracts/LF0GSwapPair.sol",
  "abi": [
    {
      "inputs": [],
      "stateMutability": "nonpayable",
      "type": "constructor"
    },
    {
      "anonymous": false,
      "inputs": [
        {
          "indexed": true,
          "internalType": "address",
          "name": "owner",
          "type": "address"
        },
        {
          "indexed": true,
          "internalType": "address",
          "name": "spender",
          "type": "address"
        },
        {
          "indexed": false,
          "internalType": "uint256",
          "name": "value",
          "type": "uint256"
        }
      ],
      "name": "Approval",
      "type": "event"
    },
    {
      "anonymous": false,
      "inputs": [
        {
          "indexed": true,
          "internalType": "address",
          "name": "from",
          "type": "address"
        },
        {
          "indexed": true,
          "internalType": "address",
          "name": "to",
          "type": "address"
        },
        {
          "indexed": false,
          "internalType": "uint256",
          "name": "value",
          "type": "uint256"
        }
      ],
      "name": "Transfer",
      "type": "event"
    },
    {
      "inputs": [
        {
          "internalType": "address",
          "name": "owner",
          "type": "address"
        },
        {
          "internalType": "address",
          "name": "spender",
          "type": "address"
        }
      ],
      "name": "allowance",
      "outputs": [
        {
          "internalType": "uint256",
          "name": "",
          "type": "uint256"
        }
      ],
      "stateMutability": "view",
      "type": "function"
    },
    {
      "inputs": [
        {
          "internalType": "address",
          "name": "spender",
          "type": "address"
        },
        {
          "internalType": "uint256",
          "name": "amount",
          "type": "uint256"
        }
      ],
      "name": "approve",
      "outputs": [
        {
          "internalType": "bool",
          "name": "",
          "type": "bool"
        }
      ],
      "stateMutability": "nonpayable",
      "type": "function"
    },
    {
      "inputs": [
        {
          "internalType": "address",
          "name": "account",
          "type": "address"
        }
      ],
      "name": "balanceOf",
      "outputs": [
        {
          "internalType": "uint256",
          "name": "",
          "type": "uint256"
        }
      ],
      "stateMutability": "view",
      "type": "function"
    },
    {
      "inputs": [],
      "name": "decimals",
      "outputs": [
        {
          "internalType": "uint8",
          "name": "",
          "type": "uint8"
        }
      ],
      "stateMutability": "view",
      "type": "function"
    },
    {
      "inputs": [
        {
          "internalType": "address",
          "name": "spender",
          "type": "address"
        },
        {
          "internalType": "uint256",
          "name": "subtractedValue",
          "type": "uint256"
        }
      ],
      "name": "decreaseAllowance",
      "outputs": [
        {
          "internalType": "bool",
          "name": "",
          "type": "bool"
        }
      ],
      "stateMutability": "nonpayable",
      "type": "function"
    },
    {
      "inputs": [],
      "name": "factory",
      "outputs": [
        {
          "internalType": "address",
          "name": "",
          "type": "address"
        }
      ],
      "stateMutability": "view",
      "type": "function"
    },
    {
      "inputs": [
        {
          "internalType": "uint256",
          "name": "amountOut",
          "type": "uint256"
        },
        {
          "internalType": "bool",
          "name": "isToken0In",
          "type": "bool"
        }
      ],
      "name": "getAmountIn",
      "outputs": [
        {
          "internalType": "uint256",
          "name": "",
          "type": "uint256"
        }
      ],
      "stateMutability": "view",
      "type": "function"
    },
    {
      "inputs": [
        {
          "internalType": "uint256",
          "name": "amountIn",
          "type": "uint256"
        },
        {
          "internalType": "bool",
          "name": "isToken0In",
          "type": "bool"
        }
      ],
      "name": "getAmountOut",
      "outputs": [
        {
          "internalType": "uint256",
          "name": "",
          "type": "uint256"
        }
      ],
      "stateMutability": "view",
      "type": "function"
    },
    {
      "inputs": [],
      "name": "getReserves",
      "outputs": [
        {
          "internalType": "uint112",
          "name": "",
          "type": "uint112"
        },
        {
          "internalType": "uint112",
          "name": "",
          "type": "uint112"
        },
        {
          "internalType": "uint32",
          "name": "",
          "type": "uint32"
        }
      ],
      "stateMutability": "view",
      "type": "function"
    },
    {
      "inputs": [
        {
          "internalType": "address",
          "name": "spender",
          "type": "address"
        },
        {
          "internalType": "uint256",
          "name": "addedValue",
          "type": "uint256"
        }
      ],
      "name": "increaseAllowance",
      "outputs": [
        {
          "internalType": "bool",
          "name": "",
          "type": "bool"
        }
      ],
      "stateMutability": "nonpayable",
      "type": "function"
    },
    {
      "inputs": [],
      "name": "initialised",
      "outputs": [
        {
          "internalType": "bool",
          "name": "",
          "type": "bool"
        }
      ],
      "stateMutability": "view",
      "type": "function"
    },
    {
      "inputs": [
        {
          "internalType": "uint256",
          "name": "tokenAmount",
          "type": "uint256"
        },
        {
          "internalType": "uint256",
          "name": "usdtAmount",
          "type": "uint256"
        }
      ],
      "name": "initialize",
      "outputs": [],
      "stateMutability": "nonpayable",
      "type": "function"
    },
    {
      "inputs": [],
      "name": "name",
      "outputs": [
        {
          "internalType": "string",
          "name": "",
          "type": "string"
        }
      ],
      "stateMutability": "view",
      "type": "function"
    },
    {
      "inputs": [
        {
          "internalType": "uint256",
          "name": "amountIn",
          "type": "uint256"
        },
        {
          "internalType": "uint256",
          "name": "reserveIn",
          "type": "uint256"
        },
        {
          "internalType": "uint256",
          "name": "reserveOut",
          "type": "uint256"
        }
      ],
      "name": "quote",
      "outputs": [
        {
          "internalType": "uint256",
          "name": "",
          "type": "uint256"
        }
      ],
      "stateMutability": "pure",
      "type": "function"
    },
    {
      "inputs": [
        {
          "internalType": "address",
          "name": "_token0",
          "type": "address"
        },
        {
          "internalType": "address",
          "name": "_token1",
          "type": "address"
        }
      ],
      "name": "setup",
      "outputs": [],
      "stateMutability": "nonpayable",
      "type": "function"
    },
    {
      "inputs": [
        {
          "internalType": "uint256",
          "name": "amount0Out",
          "type": "uint256"
        },
        {
          "internalType": "uint256",
          "name": "amount1Out",
          "type": "uint256"
        },
        {
          "internalType": "address",
          "name": "to",
          "type": "address"
        }
      ],
      "name": "swap",
      "outputs": [],
      "stateMutability": "nonpayable",
      "type": "function"
    },
    {
      "inputs": [
        {
          "internalType": "uint256",
          "name": "amountIn",
          "type": "uint256"
        },
        {
          "internalType": "uint256",
          "name": "amountOutMin",
          "type": "uint256"
        },
        {
          "internalType": "bool",
          "name": "isToken0",
          "type": "bool"
        },
        {
          "internalType": "address",
          "name": "to",
          "type": "address"
        }
      ],
      "name": "swapExactTokensForTokens",
      "outputs": [
        {
          "internalType": "uint256",
          "name": "amountOut",
          "type": "uint256"
        }
      ],
      "stateMutability": "nonpayable",
      "type": "function"
    },
    {
      "inputs": [
        {
          "internalType": "uint256",
          "name": "amountOut",
          "type": "uint256"
        },
        {
          "internalType": "uint256",
          "name": "amountInMax",
          "type": "uint256"
        },
        {
          "internalType": "bool",
          "name": "isToken0",
          "type": "bool"
        },
        {
          "internalType": "address",
          "name": "to",
          "type": "address"
        }
      ],
      "name": "swapTokensForExactTokens",
      "outputs": [
        {
          "internalType": "uint256",
          "name": "amountIn",
          "type": "uint256"
        }
      ],
      "stateMutability": "nonpayable",
      "type": "function"
    },
    {
      "inputs": [],
      "name": "symbol",
      "outputs": [
        {
          "internalType": "string",
          "name": "",
          "type": "string"
        }
      ],
      "stateMutability": "view",
      "type": "function"
    },
    {
      "inputs": [],
      "name": "sync",
      "outputs": [],
      "stateMutability": "nonpayable",
      "type": "function"
    },
    {
      "inputs": [],
      "name": "token0",
      "outputs": [
        {
          "internalType": "address",
          "name": "",
          "type": "address"
        }
      ],
      "stateMutability": "view",
      "type": "function"
    },
    {
      "inputs": [],
      "name": "token1",
      "outputs": [
        {
          "internalType": "address",
          "name": "",
          "type": "address"
        }
      ],
      "stateMutability": "view",
      "type": "function"
    },
    {
      "inputs": [],
      "name": "totalSupply",
      "outputs": [
        {
          "internalType": "uint256",
          "name": "",
          "type": "uint256"
        }
      ],
      "stateMutability": "view",
      "type": "function"
    },
    {
      "inputs": [
        {
          "internalType": "address",
          "name": "to",
          "type": "address"
        },
        {
          "internalType": "uint256",
          "name": "amount",
          "type": "uint256"
        }
      ],
      "name": "transfer",
      "outputs": [
        {
          "internalType": "bool",
          "name": "",
          "type": "bool"
        }
      ],
      "stateMutability": "nonpayable",
      "type": "function"
    },
    {
      "inputs": [
        {
          "internalType": "address",
          "name": "from",
          "type": "address"
        },
        {
          "internalType": "address",
          "name": "to",
          "type": "address"
        },
        {
          "internalType": "uint256",
          "name": "amount",
          "type": "uint256"
        }
      ],
      "name": "transferFrom",
      "outputs": [
        {
          "internalType": "bool",
          "name": "",
          "type": "bool"
        }
      ],
      "stateMutability": "nonpayable",
      "type": "function"
    }
  ],
  "bytecode": "0x60806040523480156200001157600080fd5b506040518060400160405280600781526020016604c463047204c560cc1b8152506040518060400160405280600781526020016604c4630472d4c560cc1b815250816003908162000063919062000132565b50600462000072828262000132565b5050600780546001600160a01b0319163317905550620001fe565b634e487b7160e01b600052604160045260246000fd5b600181811c90821680620000b857607f821691505b602082108103620000d957634e487b7160e01b600052602260045260246000fd5b50919050565b601f8211156200012d57600081815260208120601f850160051c81016020861015620001085750805b601f850160051c820191505b81811015620001295782815560010162000114565b5050505b505050565b81516001600160401b038111156200014e576200014e6200008d565b62000166816200015f8454620000a3565b84620000df565b602080601f8311600181146200019e5760008415620001855750858301515b600019600386901b1c1916600185901b17855562000129565b600085815260208120601f198616915b82811015620001cf57888601518255948401946001909101908401620001ae565b5085821015620001ee5787850151600019600388901b60f8161c191681555b5050505050600190811b01905550565b611c36806200020e6000396000f3fe608060405234801561001057600080fd5b50600436106101735760003560e01c80636d9a640a116100de578063aa90d54f11610097578063d21220a711610071578063d21220a714610361578063dd62ed3e14610374578063e4a3011614610387578063fff6cae91461039a57600080fd5b8063aa90d54f14610328578063ad615dec1461033b578063c45a01551461034e57600080fd5b80636d9a640a146102ab57806370a08231146102be57806395d89b41146102e7578063a457c2d7146102ef578063a4743ea314610302578063a9059cbb1461031557600080fd5b806311106ee21161013057806311106ee21461024657806318160ddd1461025957806323b872dd146102615780632d34ba7914610274578063313ce56714610289578063395093511461029857600080fd5b806306fdde031461017857806307003bb4146101965780630902f1ac146101b3578063095ea7b3146101e75780630dfe1681146101fa5780630e2479d814610225575b600080fd5b6101806103a2565b60405161018d9190611837565b60405180910390f35b6009546101a39060ff1681565b604051901515815260200161018d565b6101bb610434565b604080516001600160701b03948516815293909216602084015263ffffffff169082015260600161018d565b6101a36101f5366004611886565b61045e565b60055461020d906001600160a01b031681565b6040516001600160a01b03909116815260200161018d565b6102386102333660046118c1565b610478565b60405190815260200161018d565b6102386102543660046118c1565b61052e565b600254610238565b6101a361026f3660046118f1565b6105a7565b61028761028236600461192d565b6105cb565b005b6040516012815260200161018d565b6101a36102a6366004611886565b610695565b6102876102b9366004611960565b6106b7565b6102386102cc366004611995565b6001600160a01b031660009081526020819052604090205490565b610180610993565b6101a36102fd366004611886565b6109a2565b6102386103103660046119b0565b610a1d565b6101a3610323366004611886565b610cdc565b6102386103363660046119b0565b610cea565b6102386103493660046119f8565b610e06565b60075461020d906001600160a01b031681565b60065461020d906001600160a01b031681565b61023861038236600461192d565b610e68565b610287610395366004611a24565b610e93565b610287610ebe565b6060600380546103b190611a46565b80601f01602080910402602001604051908101604052809291908181526020018280546103dd90611a46565b801561042a5780601f106103ff5761010080835404028352916020019161042a565b820191906000526020600020905b81548152906001019060200180831161040d57829003601f168201915b5050505050905090565b6008546001600160701b0380821692600160701b830490911691600160e01b900463ffffffff1690565b60003361046c818585610fa9565b60019150505b92915050565b60008083116104a25760405162461bcd60e51b815260040161049990611a80565b60405180910390fd5b6000806104ad610434565b50915091506000846104bf57816104c1565b825b6001600160701b031690506000856104d957836104db565b825b6001600160701b031690508087106105055760405162461bcd60e51b815260040161049990611ab5565b61050f8782611b02565b6105198884611b15565b6105239190611b42565b979650505050505050565b600080831161054f5760405162461bcd60e51b815260040161049990611b64565b60008061055a610434565b509150915060008461056c578161056e565b825b6001600160701b031690506000856105865783610588565b825b6001600160701b0316905061059d8783611b9b565b6105198883611b15565b6000336105b58582856110cd565b6105c0858585611147565b506001949350505050565b6007546001600160a01b031633146106175760405162461bcd60e51b815260206004820152600f60248201526e262318239d102327a92124a22222a760891b6044820152606401610499565b60095460ff161561065a5760405162461bcd60e51b815260206004820152600d60248201526c0416c726561647920736574757609c1b6044820152606401610499565b600580546001600160a01b039384166001600160a01b031991821617909155600680549290931691161790556009805460ff19166001179055565b60003361046c8185856106a88383610e68565b6106b29190611b9b565b610fa9565b60008311806106c65750600082115b6106e25760405162461bcd60e51b815260040161049990611a80565b6000806106ed610434565b5091509150816001600160701b0316851080156107125750806001600160701b031684105b61072e5760405162461bcd60e51b815260040161049990611ab5565b841561074b5760055461074b906001600160a01b031684876112eb565b831561076857600654610768906001600160a01b031684866112eb565b6005546040516370a0823160e01b81523060048201526000916001600160a01b0316906370a0823190602401602060405180830381865afa1580156107b1573d6000803e3d6000fd5b505050506040513d601f19601f820116820180604052508101906107d59190611bae565b6006546040516370a0823160e01b81523060048201529192506000916001600160a01b03909116906370a0823190602401602060405180830381865afa158015610823573d6000803e3d6000fd5b505050506040513d601f19601f820116820180604052508101906108479190611bae565b9050600061085e886001600160701b038716611b02565b831161086b576000610888565b61087e886001600160701b038716611b02565b6108889084611b02565b9050600061089f886001600160701b038716611b02565b83116108ac5760006108c9565b6108bf886001600160701b038716611b02565b6108c99084611b02565b905060008211806108da5750600081115b6109265760405162461bcd60e51b815260206004820152601860248201527f4c4630473a20494e53554646494349454e545f494e50555400000000000000006044820152606401610499565b61093c6001600160701b03808716908816611b15565b6109468486611b15565b101561097e5760405162461bcd60e51b81526020600482015260076024820152664c4630473a204b60c81b6044820152606401610499565b6109888484611353565b505050505050505050565b6060600480546103b190611a46565b600033816109b08286610e68565b905083811015610a105760405162461bcd60e51b815260206004820152602560248201527f45524332303a2064656372656173656420616c6c6f77616e63652062656c6f77604482015264207a65726f60d81b6064820152608401610499565b6105c08286868403610fa9565b6000808511610a3e5760405162461bcd60e51b815260040161049990611a80565b600080610a49610434565b5091509150600085610a5b5781610a5d565b825b6001600160701b03169050600086610a755783610a77565b825b6001600160701b03169050600087610a9a576006546001600160a01b0316610aa7565b6005546001600160a01b03165b9050600088610ac1576005546001600160a01b0316610ace565b6006546001600160a01b03165b9050828b10610aef5760405162461bcd60e51b815260040161049990611ab5565b610af98b84611b02565b610b038c86611b15565b610b0d9190611b42565b965089871115610b5f5760405162461bcd60e51b815260206004820152601c60248201527f4c4630473a204558434553534956455f494e5055545f414d4f554e54000000006044820152606401610499565b610b746001600160a01b03831633308a61139b565b610b886001600160a01b038216898d6112eb565b6005546040516370a0823160e01b81523060048201526000916001600160a01b0316906370a0823190602401602060405180830381865afa158015610bd1573d6000803e3d6000fd5b505050506040513d601f19601f82011682018060405250810190610bf59190611bae565b6006546040516370a0823160e01b81523060048201529192506000916001600160a01b03909116906370a0823190602401602060405180830381865afa158015610c43573d6000803e3d6000fd5b505050506040513d601f19601f82011682018060405250810190610c679190611bae565b9050610c7f6001600160701b03808916908a16611b15565b610c898284611b15565b1015610cc15760405162461bcd60e51b81526020600482015260076024820152664c4630473a204b60c81b6044820152606401610499565b610ccb8282611353565b50505050505050505b949350505050565b60003361046c818585611147565b6000808511610d0b5760405162461bcd60e51b815260040161049990611b64565b600080610d16610434565b5091509150600085610d285781610d2a565b825b6001600160701b03169050600086610d425783610d44565b825b6001600160701b03169050600087610d67576006546001600160a01b0316610d74565b6005546001600160a01b03165b9050600088610d8e576005546001600160a01b0316610d9b565b6006546001600160a01b03165b9050610da78b85611b9b565b610db18c85611b15565b610dbb9190611b42565b965089871015610ddd5760405162461bcd60e51b815260040161049990611a80565b610df26001600160a01b03831633308e61139b565b610b886001600160a01b03821689896112eb565b6000808411610e275760405162461bcd60e51b815260040161049990611b64565b600083118015610e375750600082115b610e535760405162461bcd60e51b815260040161049990611ab5565b82610e5e8386611b15565b610cd49190611b42565b6001600160a01b03918216600090815260016020908152604080832093909416825291909152205490565b610e9d8282611353565b610eba61dead610eb5610eb08486611b15565b6113d3565b6114c2565b5050565b6005546040516370a0823160e01b81523060048201526000916001600160a01b0316906370a0823190602401602060405180830381865afa158015610f07573d6000803e3d6000fd5b505050506040513d601f19601f82011682018060405250810190610f2b9190611bae565b6006546040516370a0823160e01b81523060048201529192506000916001600160a01b03909116906370a0823190602401602060405180830381865afa158015610f79573d6000803e3d6000fd5b505050506040513d601f19601f82011682018060405250810190610f9d9190611bae565b9050610eba8282611353565b6001600160a01b03831661100b5760405162461bcd60e51b8152602060048201526024808201527f45524332303a20617070726f76652066726f6d20746865207a65726f206164646044820152637265737360e01b6064820152608401610499565b6001600160a01b03821661106c5760405162461bcd60e51b815260206004820152602260248201527f45524332303a20617070726f766520746f20746865207a65726f206164647265604482015261737360f01b6064820152608401610499565b6001600160a01b0383811660008181526001602090815260408083209487168084529482529182902085905590518481527f8c5be1e5ebec7d5bd14f71427d1e84f3dd0314c0f7b2291e5b200ac8c7c3b925910160405180910390a3505050565b60006110d98484610e68565b9050600019811461114157818110156111345760405162461bcd60e51b815260206004820152601d60248201527f45524332303a20696e73756666696369656e7420616c6c6f77616e63650000006044820152606401610499565b6111418484848403610fa9565b50505050565b6001600160a01b0383166111ab5760405162461bcd60e51b815260206004820152602560248201527f45524332303a207472616e736665722066726f6d20746865207a65726f206164604482015264647265737360d81b6064820152608401610499565b6001600160a01b03821661120d5760405162461bcd60e51b815260206004820152602360248201527f45524332303a207472616e7366657220746f20746865207a65726f206164647260448201526265737360e81b6064820152608401610499565b6001600160a01b038316600090815260208190526040902054818110156112855760405162461bcd60e51b815260206004820152602660248201527f45524332303a207472616e7366657220616d6f756e7420657863656564732062604482015265616c616e636560d01b6064820152608401610499565b6001600160a01b03848116600081815260208181526040808320878703905593871680835291849020805487019055925185815290927fddf252ad1be2c89b69c2b068fc378daa952ba7f163c4a11628f55a4df523b3ef910160405180910390a3611141565b6040516001600160a01b03831660248201526044810182905261134e90849063a9059cbb60e01b906064015b60408051601f198184030181529190526020810180516001600160e01b03166001600160e01b031990931692909217909152611581565b505050565b6008805463ffffffff4216600160e01b026001600160e01b036001600160701b03948516600160701b026001600160e01b031990931694909516939093171792909216179055565b6040516001600160a01b03808516602483015283166044820152606481018290526111419085906323b872dd60e01b90608401611317565b6000816000036113e557506000919050565b600060016113f284611656565b901c6001901b9050600181848161140b5761140b611b2c565b048201901c9050600181848161142357611423611b2c565b048201901c9050600181848161143b5761143b611b2c565b048201901c9050600181848161145357611453611b2c565b048201901c9050600181848161146b5761146b611b2c565b048201901c9050600181848161148357611483611b2c565b048201901c9050600181848161149b5761149b611b2c565b048201901c90506114bb818285816114b5576114b5611b2c565b046116ea565b9392505050565b6001600160a01b0382166115185760405162461bcd60e51b815260206004820152601f60248201527f45524332303a206d696e7420746f20746865207a65726f2061646472657373006044820152606401610499565b806002600082825461152a9190611b9b565b90915550506001600160a01b038216600081815260208181526040808320805486019055518481527fddf252ad1be2c89b69c2b068fc378daa952ba7f163c4a11628f55a4df523b3ef910160405180910390a35050565b60006115d6826040518060400160405280602081526020017f5361666545524332303a206c6f772d6c6576656c2063616c6c206661696c6564815250856001600160a01b03166117009092919063ffffffff16565b90508051600014806115f75750808060200190518101906115f79190611bc7565b61134e5760405162461bcd60e51b815260206004820152602a60248201527f5361666545524332303a204552433230206f7065726174696f6e20646964206e6044820152691bdd081cdd58d8d9595960b21b6064820152608401610499565b600080608083901c1561166b57608092831c92015b604083901c1561167d57604092831c92015b602083901c1561168f57602092831c92015b601083901c156116a157601092831c92015b600883901c156116b357600892831c92015b600483901c156116c557600492831c92015b600283901c156116d757600292831c92015b600183901c156104725760010192915050565b60008183106116f957816114bb565b5090919050565b6060610cd4848460008585600080866001600160a01b031685876040516117279190611be4565b60006040518083038185875af1925050503d8060008114611764576040519150601f19603f3d011682016040523d82523d6000602084013e611769565b606091505b509150915061052387838387606083156117e45782516000036117dd576001600160a01b0385163b6117dd5760405162461bcd60e51b815260206004820152601d60248201527f416464726573733a2063616c6c20746f206e6f6e2d636f6e74726163740000006044820152606401610499565b5081610cd4565b610cd483838151156117f95781518083602001fd5b8060405162461bcd60e51b81526004016104999190611837565b60005b8381101561182e578181015183820152602001611816565b50506000910152565b6020815260008251806020840152611856816040850160208701611813565b601f01601f19169190910160400192915050565b80356001600160a01b038116811461188157600080fd5b919050565b6000806040838503121561189957600080fd5b6118a28361186a565b946020939093013593505050565b80151581146118be57600080fd5b50565b600080604083850312156118d457600080fd5b8235915060208301356118e6816118b0565b809150509250929050565b60008060006060848603121561190657600080fd5b61190f8461186a565b925061191d6020850161186a565b9150604084013590509250925092565b6000806040838503121561194057600080fd5b6119498361186a565b91506119576020840161186a565b90509250929050565b60008060006060848603121561197557600080fd5b833592506020840135915061198c6040850161186a565b90509250925092565b6000602082840312156119a757600080fd5b6114bb8261186a565b600080600080608085870312156119c657600080fd5b843593506020850135925060408501356119df816118b0565b91506119ed6060860161186a565b905092959194509250565b600080600060608486031215611a0d57600080fd5b505081359360208301359350604090920135919050565b60008060408385031215611a3757600080fd5b50508035926020909101359150565b600181811c90821680611a5a57607f821691505b602082108103611a7a57634e487b7160e01b600052602260045260246000fd5b50919050565b6020808252818101527f4c4630473a20494e53554646494349454e545f4f55545055545f414d4f554e54604082015260600190565b6020808252601c908201527f4c4630473a20494e53554646494349454e545f4c495155494449545900000000604082015260600190565b634e487b7160e01b600052601160045260246000fd5b8181038181111561047257610472611aec565b808202811582820484141761047257610472611aec565b634e487b7160e01b600052601260045260246000fd5b600082611b5f57634e487b7160e01b600052601260045260246000fd5b500490565b6020808252601f908201527f4c4630473a20494e53554646494349454e545f494e5055545f414d4f554e5400604082015260600190565b8082018082111561047257610472611aec565b600060208284031215611bc057600080fd5b5051919050565b600060208284031215611bd957600080fd5b81516114bb816118b0565b60008251611bf6818460208701611813565b919091019291505056fea2646970667358221220e604fc6158fe39495787dc325779f6375ddc9a75e06214abcd745c881ecf1d0b64736f6c63430008140033",
  "linkReferences": {},
  "deployedLinkReferences": {}
}