{"contracts/TokenFactory.sol":{"TokenFactory":{"abi":[{"inputs":[{"internalType":"address","name":"_treasury","type":"address"},{"internalType":"address","name":"_gravityScoreSystem","type":"address"},{"internalType":"address","name":"_usdt","type":"address"}],"stateMutability":"nonpayable","type":"constructor"},{"anonymous":false,"inputs":[{"indexed":true,"internalType":"address","name":"previousOwner","type":"address"},{"indexed":true,"internalType":"address","name":"newOwner","type":"address"}],"name":"OwnershipTransferred","type":"event"},{"anonymous":false,"inputs":[{"indexed":true,"internalType":"address","name":"tokenAddress","type":"address"},{"indexed":false,"internalType":"string","name":"name","type":"string"},{"indexed":false,"internalType":"string","name":"symbol","type":"string"},{"indexed":true,"internalType":"address","name":"creator","type":"address"}],"name":"TokenCreated","type":"event"},{"anonymous":false,"inputs":[{"indexed":true,"internalType":"address","name":"token","type":"address"},{"indexed":true,"internalType":"address","name":"pair","type":"address"}],"name":"TokenGraduated","type":"event"},{"inputs":[],"name":"USDT","outputs":[{"internalType":"address","name":"","type":"address"}],"stateMutability":"view","type":"function"},{"inputs":[{"internalType":"address","name":"tokenAddress","type":"address"}],"name":"claimCreatorTokens","outputs":[],"stateMutability":"nonpayable","type":"function"},{"inputs":[{"internalType":"string","name":"_name","type":"string"},{"internalType":"string","name":"_symbol","type":"string"},{"internalType":"string","name":"_description","type":"string"}],"name":"createToken","outputs":[],"stateMutability":"nonpayable","type":"function"},{"inputs":[{"internalType":"uint256","name":"","type":"uint256"}],"name":"createdTokens","outputs":[{"internalType":"address","name":"","type":"address"}],"stateMutability":"view","type":"function"},{"inputs":[{"internalType":"address","name":"","type":"address"},{"internalType":"uint256","name":"","type":"uint256"}],"name":"creatorTokens","outputs":[{"internalType":"address","name":"","type":"address"}],"stateMutability":"view","type":"function"},{"inputs":[],"name":"getAllTokens","outputs":[{"internalType":"address[]","name":"","type":"address[]"}],"stateMutability":"view","type":"function"},{"inputs":[{"internalType":"address","name":"_creator","type":"address"}],"name":"getCreatorTokens","outputs":[{"internalType":"address[]","name":"","type":"address[]"}],"stateMutability":"view","type":"function"},{"inputs":[],"name":"getGraduatedTokens","outputs":[{"internalType":"address[]","name":"","type":"address[]"}],"stateMutability":"view","type":"function"},{"inputs":[{"internalType":"address","name":"token","type":"address"}],"name":"getSwapPair","outputs":[{"internalType":"address","name":"","type":"address"}],"stateMutability":"view","type":"function"},{"inputs":[{"internalType":"address","name":"token","type":"address"},{"internalType":"uint256","name":"usdtAmount","type":"uint256"},{"internalType":"uint256","name":"tokenAmount","type":"uint256"}],"name":"graduateToken","outputs":[{"internalType":"address","name":"pair","type":"address"}],"stateMutability":"nonpayable","type":"function"},{"inputs":[{"internalType":"uint256","name":"","type":"uint256"}],"name":"graduatedTokens","outputs":[{"internalType":"address","name":"","type":"address"}],"stateMutability":"view","type":"function"},{"inputs":[],"name":"graduationRegistry","outputs":[{"internalType":"address","name":"","type":"address"}],"stateMutability":"view","type":"function"},{"inputs":[],"name":"gravityScoreSystem","outputs":[{"internalType":"address","name":"","type":"address"}],"stateMutability":"view","type":"function"},{"inputs":[{"internalType":"address","name":"potentialCreator","type":"address"},{"internalType":"address","name":"tokenAddress","type":"address"}],"name":"isTokenCreator","outputs":[{"internalType":"bool","name":"","type":"bool"}],"stateMutability":"view","type":"function"},{"inputs":[{"internalType":"address","name":"","type":"address"}],"name":"isTokenGraduated","outputs":[{"internalType":"bool","name":"","type":"bool"}],"stateMutability":"view","type":"function"},{"inputs":[],"name":"owner","outputs":[{"internalType":"address","name":"","type":"address"}],"stateMutability":"view","type":"function"},{"inputs":[],"name":"renounceOwnership","outputs":[],"stateMutability":"nonpayable","type":"function"},{"inputs":[{"internalType":"address","name":"_swapFactory","type":"address"},{"internalType":"address","name":"_graduationRegistry","type":"address"}],"name":"setGraduationAddresses","outputs":[],"stateMutability":"nonpayable","type":"function"},{"inputs":[],"name":"swapFactory","outputs":[{"internalType":"address","name":"","type":"address"}],"stateMutability":"view","type":"function"},{"inputs":[{"internalType":"address","name":"","type":"address"}],"name":"tokenData","outputs":[{"internalType":"string","name":"name","type":"string"},{"internalType":"string","name":"symbol","type":"string"},{"internalType":"string","name":"description","type":"string"},{"internalType":"address","name":"creator","type":"address"},{"internalType":"uint256","name":"creationTime","type":"uint256"},{"internalType":"uint256","name":"gravityScore","type":"uint256"}],"stateMutability":"view","type":"function"},{"inputs":[{"internalType":"address","name":"","type":"address"}],"name":"tokenToPair","outputs":[{"internalType":"address","name":"","type":"address"}],"stateMutability":"view","type":"function"},{"inputs":[{"internalType":"address","name":"newOwner","type":"address"}],"name":"transferOwnership","outputs":[],"stateMutability":"nonpayable","type":"function"},{"inputs":[],"name":"treasury","outputs":[{"internalType":"address","name":"","type":"address"}],"stateMutability":"view","type":"function"},{"inputs":[{"internalType":"address","name":"_tokenAddress","type":"address"},{"internalType":"uint256","name":"_newScore","type":"uint256"}],"name":"updateGravityScore","outputs":[],"stateMutability":"nonpayable","type":"function"},{"inputs":[{"internalType":"address","name":"_newSystem","type":"address"}],"name":"updateGravityScoreSystem","outputs":[],"stateMutability":"nonpayable","type":"function"},{"inputs":[{"internalType":"address","name":"_newTreasury","type":"address"}],"name":"updateTreasury","outputs":[],"stateMutability":"nonpayable","type":"function"}],"evm":{"bytecode":{"linkReferences":{},"object":"60a06040523480156200001157600080fd5b5060405162004864380380620048648339810160408190526200003491620000e6565b6200003f3362000079565b600580546001600160a01b03199081166001600160a01b039586161790915560048054909116928416929092179091551660805262000130565b600080546001600160a01b038381166001600160a01b0319831681178455604051919092169283917f8be0079c531659141344cd1fd0a4f28419497f9722a3daafe3b4186f6b6457e09190a35050565b80516001600160a01b0381168114620000e157600080fd5b919050565b600080600060608486031215620000fc57600080fd5b6200010784620000c9565b92506200011760208501620000c9565b91506200012760408501620000c9565b90509250925092565b60805161470a6200015a600039600081816103be015281816107280152610e34015261470a6000f3fe60806040523480156200001157600080fd5b5060043610620001af5760003560e01c80637f51bb1f11620000f0578063c54e44eb11620000a3578063d5afd0ac116200007a578063d5afd0ac14620003fe578063d782d647146200042d578063db3fa4cc1462000444578063f2fde38b146200045b57600080fd5b8063c54e44eb14620003b8578063ca10e48114620003e0578063d1db355814620003ea57600080fd5b80637f51bb1f146200031e5780638a047d5e14620003355780638d01596114620003615780638da5cb5b146200037857806394aed7d0146200038a578063ae6862ff14620003a157600080fd5b8063388e8fd2116200016657806365b7ce47116200013d57806365b7ce4714620002d2578063715018a614620002e957806374abfa5414620002f35780637944f944146200030a57600080fd5b8063388e8fd2146200027057806358f3634014620002a757806361d027b314620002be57600080fd5b80630cb849dd14620001b45780631110b8ac14620001e55780631a4bc34e14620001fe5780632097c4bd146200021557806327e45c2c146200022c5780632a5c792a1462000257575b600080fd5b600454620001c8906001600160a01b031681565b6040516001600160a01b0390911681526020015b60405180910390f35b620001fc620001f6366004620015f7565b62000472565b005b620001c86200020f3660046200161e565b620005cd565b620001c86200022636600462001638565b620005f8565b620002436200023d366004620015f7565b6200096e565b604051620001dc96959493929190620016c4565b6200026162000b5e565b604051620001dc91906200172b565b6200029662000281366004620015f7565b60086020526000908152604090205460ff1681565b6040519015158152602001620001dc565b620001fc620002b83660046200177a565b62000bc2565b600554620001c8906001600160a01b031681565b620001fc620002e3366004620017a9565b62000c98565b620001fc62000d2e565b6200026162000304366004620015f7565b62000d46565b600654620001c8906001600160a01b031681565b620001fc6200032f366004620015f7565b62000dbe565b620001c862000346366004620015f7565b6009602052600090815260409020546001600160a01b031681565b620001fc62000372366004620015f7565b62000dea565b6000546001600160a01b0316620001c8565b620001fc6200039b36600462001892565b62000e16565b62000296620003b2366004620017a9565b62000fff565b620001c87f000000000000000000000000000000000000000000000000000000000000000081565b6200026162001116565b600754620001c8906001600160a01b031681565b620001c86200040f366004620015f7565b6001600160a01b039081166000908152600960205260409020541690565b620001c86200043e3660046200161e565b62001178565b620001c8620004553660046200177a565b62001189565b620001fc6200046c366004620015f7565b620011c2565b60008190506000336001600160a01b0316826001600160a01b0316638da5cb5b6040518163ffffffff1660e01b8152600401602060405180830381865afa158015620004c2573d6000803e3d6000fd5b505050506040513d601f19601f82011682018060405250810190620004e8919062001924565b6001600160a01b0316149050600062000502338562000fff565b905081806200050e5750805b6200056c5760405162461bcd60e51b8152602060048201526024808201527f43616c6c6572206973206e6f7420746f6b656e206f776e6572206f722063726560448201526330ba37b960e11b60648201526084015b60405180910390fd5b6040516351a6005760e11b81523360048201526001600160a01b0384169063a34c00ae90602401600060405180830381600087803b158015620005ae57600080fd5b505af1158015620005c3573d6000803e3d6000fd5b5050505050505050565b600a8181548110620005de57600080fd5b6000918252602090912001546001600160a01b0316905081565b6000336001600160a01b038516146200064b5760405162461bcd60e51b815260206004820152601460248201527321b0b63632b91036bab9ba103132903a37b5b2b760611b604482015260640162000563565b6001600160a01b03841660009081526008602052604090205460ff1615620006b65760405162461bcd60e51b815260206004820152601760248201527f546f6b656e20616c726561647920677261647561746564000000000000000000604482015260640162000563565b6006546001600160a01b0316620007065760405162461bcd60e51b815260206004820152601360248201527214ddd85c119858dd1bdc9e481b9bdd081cd95d606a1b604482015260640162000563565b6006546040516364e329cb60e11b81526001600160a01b0386811660048301527f0000000000000000000000000000000000000000000000000000000000000000811660248301529091169063c9c65396906044016020604051808303816000875af11580156200077b573d6000803e3d6000fd5b505050506040513d601f19601f82011682018060405250810190620007a1919062001924565b9050620007ba6001600160a01b03851685838562001241565b60008315620007ca5783620007cd565b60015b604051637251808b60e11b815260048101859052602481018290529091506001600160a01b0383169063e4a3011690604401600060405180830381600087803b1580156200081a57600080fd5b505af11580156200082f573d6000803e3d6000fd5b5050506001600160a01b038087166000818152600860209081526040808320805460ff191660019081179091556009909252822080548886166001600160a01b031991821617909155600a805492830181559092527fc65a7bb8d6351c1cf70c95a316cc6a92839c986682d98bc35f958f4883f9d2a80180549091169091179055600754161590506200092657600754604051634739f7e560e01b81526001600160a01b038781166004830152848116602483015290911690634739f7e590604401600060405180830381600087803b1580156200090c57600080fd5b505af115801562000921573d6000803e3d6000fd5b505050505b816001600160a01b0316856001600160a01b03167f806ef27e0c58d1db68e3780cb50bde63b59139693b61ab9fdff83126acc3a9a060405160405180910390a3509392505050565b6003602052600090815260409020805481906200098b9062001944565b80601f0160208091040260200160405190810160405280929190818152602001828054620009b99062001944565b801562000a0a5780601f10620009de5761010080835404028352916020019162000a0a565b820191906000526020600020905b815481529060010190602001808311620009ec57829003601f168201915b50505050509080600101805462000a219062001944565b80601f016020809104026020016040519081016040528092919081815260200182805462000a4f9062001944565b801562000aa05780601f1062000a745761010080835404028352916020019162000aa0565b820191906000526020600020905b81548152906001019060200180831162000a8257829003601f168201915b50505050509080600201805462000ab79062001944565b80601f016020809104026020016040519081016040528092919081815260200182805462000ae59062001944565b801562000b365780601f1062000b0a5761010080835404028352916020019162000b36565b820191906000526020600020905b81548152906001019060200180831162000b1857829003601f168201915b505050506003830154600484015460059094015492936001600160a01b039091169290915086565b6060600180548060200260200160405190810160405280929190818152602001828054801562000bb857602002820191906000526020600020905b81546001600160a01b0316815260019091019060200180831162000b99575b5050505050905090565b6004546001600160a01b031633148062000be657506000546001600160a01b031633145b62000c255760405162461bcd60e51b815260206004820152600e60248201526d139bdd08185d5d1a1bdc9a5e995960921b604482015260640162000563565b6001600160a01b0382166000818152600360205260409081902060050183905551631d3d97e160e01b815260048101839052631d3d97e190602401600060405180830381600087803b15801562000c7b57600080fd5b505af115801562000c90573d6000803e3d6000fd5b505050505050565b62000ca2620012a3565b6001600160a01b0382161580159062000cc357506001600160a01b03811615155b62000d005760405162461bcd60e51b815260206004820152600c60248201526b5a65726f206164647265737360a01b604482015260640162000563565b600680546001600160a01b039384166001600160a01b03199182161790915560078054929093169116179055565b62000d38620012a3565b62000d446000620012ff565b565b6001600160a01b03811660009081526002602090815260409182902080548351818402810184019094528084526060939283018282801562000db257602002820191906000526020600020905b81546001600160a01b0316815260019091019060200180831162000d93575b50505050509050919050565b62000dc8620012a3565b600580546001600160a01b0319166001600160a01b0392909216919091179055565b62000df4620012a3565b600480546001600160a01b0319166001600160a01b0392909216919091179055565b600083838333600560009054906101000a90046001600160a01b03167f000000000000000000000000000000000000000000000000000000000000000060405162000e6190620015d3565b62000e729695949392919062001980565b604051809103906000f08015801562000e8f573d6000803e3d6000fd5b506001805480820182557fb10e2d527612073b26eecdfd717e6a320cf44b4afac2b0732d9fcbe2b7fa0cf60180546001600160a01b0384166001600160a01b0319918216811790925533600081815260026020908152604080832080549788018155835281832090960180549094168517909355845160c0810186528a81528084018a9052808601899052606081019290925242608083015260a08201819052928352600390915291902081519293508392819062000f4f908262001a35565b506020820151600182019062000f66908262001a35565b506040820151600282019062000f7d908262001a35565b5060608201516003820180546001600160a01b0319166001600160a01b039283161790556080830151600483015560a09092015160059091015560405133918316907f6596c1670eb3390048d23721809c3da5d3f531375ac0e2cab0f77a808ed643319062000ff0908990899062001b02565b60405180910390a35050505050565b6001600160a01b038181166000908152600360208190526040822001549091808516911603620010325750600162001110565b6001600160a01b0383166000908152600260209081526040808320805482518185028101850190935280835291929091908301828280156200109e57602002820191906000526020600020905b81546001600160a01b031681526001909101906020018083116200107f575b5050505050905060005b81518110156200110957836001600160a01b0316828281518110620010d157620010d162001b34565b60200260200101516001600160a01b031603620010f45760019250505062001110565b80620011008162001b4a565b915050620010a8565b5060009150505b92915050565b6060600a80548060200260200160405190810160405280929190818152602001828054801562000bb8576020028201919060005260206000209081546001600160a01b0316815260019091019060200180831162000b99575050505050905090565b60018181548110620005de57600080fd5b60026020528160005260406000208181548110620011a657600080fd5b6000918252602090912001546001600160a01b03169150829050565b620011cc620012a3565b6001600160a01b038116620012335760405162461bcd60e51b815260206004820152602660248201527f4f776e61626c653a206e6577206f776e657220697320746865207a65726f206160448201526564647265737360d01b606482015260840162000563565b6200123e81620012ff565b50565b604080516001600160a01b0385811660248301528416604482015260648082018490528251808303909101815260849091019091526020810180516001600160e01b03166323b872dd60e01b1790526200129d9085906200134f565b50505050565b6000546001600160a01b0316331462000d445760405162461bcd60e51b815260206004820181905260248201527f4f776e61626c653a2063616c6c6572206973206e6f7420746865206f776e6572604482015260640162000563565b600080546001600160a01b038381166001600160a01b0319831681178455604051919092169283917f8be0079c531659141344cd1fd0a4f28419497f9722a3daafe3b4186f6b6457e09190a35050565b6000620013a6826040518060400160405280602081526020017f5361666545524332303a206c6f772d6c6576656c2063616c6c206661696c6564815250856001600160a01b0316620014309092919063ffffffff16565b9050805160001480620013ca575080806020019051810190620013ca919062001b72565b6200142b5760405162461bcd60e51b815260206004820152602a60248201527f5361666545524332303a204552433230206f7065726174696f6e20646964206e6044820152691bdd081cdd58d8d9595960b21b606482015260840162000563565b505050565b606062001441848460008562001449565b949350505050565b606082471015620014ac5760405162461bcd60e51b815260206004820152602660248201527f416464726573733a20696e73756666696369656e742062616c616e636520666f6044820152651c8818d85b1b60d21b606482015260840162000563565b600080866001600160a01b03168587604051620014ca919062001b96565b60006040518083038185875af1925050503d806000811462001509576040519150601f19603f3d011682016040523d82523d6000602084013e6200150e565b606091505b509150915062001521878383876200152c565b979650505050505050565b60608315620015a057825160000362001598576001600160a01b0385163b620015985760405162461bcd60e51b815260206004820152601d60248201527f416464726573733a2063616c6c20746f206e6f6e2d636f6e7472616374000000604482015260640162000563565b508162001441565b620014418383815115620015b75781518083602001fd5b8060405162461bcd60e51b815260040162000563919062001bb4565b612b0b8062001bca83390190565b6001600160a01b03811681146200123e57600080fd5b6000602082840312156200160a57600080fd5b81356200161781620015e1565b9392505050565b6000602082840312156200163157600080fd5b5035919050565b6000806000606084860312156200164e57600080fd5b83356200165b81620015e1565b95602085013595506040909401359392505050565b60005b838110156200168d57818101518382015260200162001673565b50506000910152565b60008151808452620016b081602086016020860162001670565b601f01601f19169290920160200192915050565b60c081526000620016d960c083018962001696565b8281036020840152620016ed818962001696565b9050828103604084015262001703818862001696565b6001600160a01b039690961660608401525050608081019290925260a0909101529392505050565b6020808252825182820181905260009190848201906040850190845b818110156200176e5783516001600160a01b03168352928401929184019160010162001747565b50909695505050505050565b600080604083850312156200178e57600080fd5b82356200179b81620015e1565b946020939093013593505050565b60008060408385031215620017bd57600080fd5b8235620017ca81620015e1565b91506020830135620017dc81620015e1565b809150509250929050565b634e487b7160e01b600052604160045260246000fd5b600082601f8301126200180f57600080fd5b813567ffffffffffffffff808211156200182d576200182d620017e7565b604051601f8301601f19908116603f01168101908282118183101715620018585762001858620017e7565b816040528381528660208588010111156200187257600080fd5b836020870160208301376000602085830101528094505050505092915050565b600080600060608486031215620018a857600080fd5b833567ffffffffffffffff80821115620018c157600080fd5b620018cf87838801620017fd565b94506020860135915080821115620018e657600080fd5b620018f487838801620017fd565b935060408601359150808211156200190b57600080fd5b506200191a86828701620017fd565b9150509250925092565b6000602082840312156200193757600080fd5b81516200161781620015e1565b600181811c908216806200195957607f821691505b6020821081036200197a57634e487b7160e01b600052602260045260246000fd5b50919050565b60c0815260006200199560c083018962001696565b8281036020840152620019a9818962001696565b90508281036040840152620019bf818862001696565b6001600160a01b03968716606085015294861660808401525050921660a0909201919091529392505050565b601f8211156200142b57600081815260208120601f850160051c8101602086101562001a145750805b601f850160051c820191505b8181101562000c905782815560010162001a20565b815167ffffffffffffffff81111562001a525762001a52620017e7565b62001a6a8162001a63845462001944565b84620019eb565b602080601f83116001811462001aa2576000841562001a895750858301515b600019600386901b1c1916600185901b17855562000c90565b600085815260208120601f198616915b8281101562001ad35788860151825594840194600190910190840162001ab2565b508582101562001af25787850151600019600388901b60f8161c191681555b5050505050600190811b01905550565b60408152600062001b17604083018562001696565b828103602084015262001b2b818562001696565b95945050505050565b634e487b7160e01b600052603260045260246000fd5b60006001820162001b6b57634e487b7160e01b600052601160045260246000fd5b5060010190565b60006020828403121562001b8557600080fd5b815180151581146200161757600080fd5b6000825162001baa81846020870162001670565b9190910192915050565b6020815260006200161760208301846200169656fe61014060405260c860a090815261019060c05261025860e052610320610100526103e8610120526200003690600c90600562000220565b506040805160a0810182526101f481526103e860208201526107d091810191909152610bb86060820152610dac60808201526200007890600d90600562000220565b506000600f8190556012556013805461ffff60a01b1916600160a81b179055348015620000a457600080fd5b5060405162002b0b38038062002b0b833981016040819052620000c7916200036f565b85856003620000d78382620004c6565b506004620000e68282620004c6565b50505062000103620000fd620001ca60201b60201c565b620001ce565b60016006556007620001168582620004c6565b50600880546001600160a01b03199081163317909155601380546001600160a01b03858116919093161790558116608052620001556012600a620006a7565b6200016490620186a0620006bf565b60098190556b061a73c7cc33de0c3de00000600a8190556200018691620006bf565b600b556064620001a460056b061a73c7cc33de0c3de00000620006bf565b620001b09190620006d9565b600e55620001be83620001ce565b505050505050620006fc565b3390565b600580546001600160a01b038381166001600160a01b0319831681179093556040519116919082907f8be0079c531659141344cd1fd0a4f28419497f9722a3daafe3b4186f6b6457e090600090a35050565b82805482825590600052602060002090810192821562000264579160200282015b8281111562000264578251829061ffff1690559160200191906001019062000241565b506200027292915062000276565b5090565b5b8082111562000272576000815560010162000277565b634e487b7160e01b600052604160045260246000fd5b600082601f830112620002b557600080fd5b81516001600160401b0380821115620002d257620002d26200028d565b604051601f8301601f19908116603f01168101908282118183101715620002fd57620002fd6200028d565b816040528381526020925086838588010111156200031a57600080fd5b600091505b838210156200033e57858201830151818301840152908201906200031f565b600093810190920192909252949350505050565b80516001600160a01b03811681146200036a57600080fd5b919050565b60008060008060008060c087890312156200038957600080fd5b86516001600160401b0380821115620003a157600080fd5b620003af8a838b01620002a3565b97506020890151915080821115620003c657600080fd5b620003d48a838b01620002a3565b96506040890151915080821115620003eb57600080fd5b50620003fa89828a01620002a3565b9450506200040b6060880162000352565b92506200041b6080880162000352565b91506200042b60a0880162000352565b90509295509295509295565b600181811c908216806200044c57607f821691505b6020821081036200046d57634e487b7160e01b600052602260045260246000fd5b50919050565b601f821115620004c157600081815260208120601f850160051c810160208610156200049c5750805b601f850160051c820191505b81811015620004bd57828155600101620004a8565b5050505b505050565b81516001600160401b03811115620004e257620004e26200028d565b620004fa81620004f3845462000437565b8462000473565b602080601f831160018114620005325760008415620005195750858301515b600019600386901b1c1916600185901b178555620004bd565b600085815260208120601f198616915b82811015620005635788860151825594840194600190910190840162000542565b5085821015620005825787850151600019600388901b60f8161c191681555b5050505050600190811b01905550565b634e487b7160e01b600052601160045260246000fd5b600181815b80851115620005e9578160001904821115620005cd57620005cd62000592565b80851615620005db57918102915b93841c9390800290620005ad565b509250929050565b6000826200060257506001620006a1565b816200061157506000620006a1565b81600181146200062a5760028114620006355762000655565b6001915050620006a1565b60ff84111562000649576200064962000592565b50506001821b620006a1565b5060208310610133831016604e8410600b84101617156200067a575081810a620006a1565b620006868383620005a8565b80600019048211156200069d576200069d62000592565b0290505b92915050565b6000620006b860ff841683620005f1565b9392505050565b8082028115828204841417620006a157620006a162000592565b600082620006f757634e487b7160e01b600052601260045260246000fd5b500490565b6080516123c962000742600039600081816105af01528181610dff01528181610f6001528181611179015281816111b801528181611440015261147e01526123c96000f3fe608060405234801561001057600080fd5b50600436106102d65760003560e01c80638da5cb5b11610182578063aaf5eb68116100e9578063d96a094a116100a2578063eb91d37e1161007c578063eb91d37e1461061c578063ef2cfd1a14610624578063f2fde38b1461062c578063f6cbb4d41461063f57600080fd5b8063d96a094a146105e3578063dd62ed3e146105f6578063e4849b321461060957600080fd5b8063aaf5eb681461057f578063b4f40c611461058e578063c45a015514610597578063c54e44eb146105aa578063d3618cca146105d1578063d73792a9146105d957600080fd5b80639eef3c351161013b5780639eef3c351461051c578063a34c00ae14610525578063a3b2587714610538578063a457c2d714610546578063a6b02bc314610559578063a9059cbb1461056c57600080fd5b80638da5cb5b146104cb57806390825c28146104dc57806395d89b41146104e457806398a1447e146104ec57806399a5d747146104f55780639e5f26021461050857600080fd5b8063313ce5671161024157806358e5c3fb116101fa57806370a08231116101d457806370a082311461047f578063715018a6146104a85780637284e416146104b0578063798c87ce146104b857600080fd5b806358e5c3fb1461045157806361d027b31461045957806369fcd4ac1461046c57600080fd5b8063313ce56714610406578063395093511461041b5780634b50640f1461042e5780634bad951014610436578063543546291461043f57806354cad9731461044857600080fd5b806318160ddd1161029357806318160ddd146103905780631b1158ab146103985780631d3d97e1146103ab57806323b872dd146103c057806326991cc8146103d35780632d11c58a146103fe57600080fd5b806305f9c597146102db578063064a59d01461031357806306fdde0314610327578063095ea7b31461033c5780630fbdc42e1461034f57806315db91711461037d575b600080fd5b6102fe6102e9366004611fbe565b60106020526000908152604090205460ff1681565b60405190151581526020015b60405180910390f35b6013546102fe90600160a81b900460ff1681565b61032f610647565b60405161030a9190611ffb565b6102fe61034a366004612043565b6106d9565b61036f61035d366004611fbe565b60116020526000908152604090205481565b60405190815260200161030a565b61036f61038b366004611fbe565b6106f3565b60025461036f565b61036f6b061a73c7cc33de0c3de0000081565b6103be6103b9366004611fbe565b610714565b005b6102fe6103ce36600461206f565b610818565b6014546103e6906001600160a01b031681565b6040516001600160a01b03909116815260200161030a565b61036f606481565b60125b60405160ff909116815260200161030a565b6102fe610429366004612043565b61083c565b6103be61085e565b61036f600a5481565b61036f600e5481565b61036f600f5481565b61036f600581565b6013546103e6906001600160a01b031681565b61036f61047a366004611fbe565b610957565b61036f61048d3660046120b0565b6001600160a01b031660009081526020819052604090205490565b6103be6109a5565b61032f6109b7565b61036f6104c6366004611fbe565b610a45565b6005546001600160a01b03166103e6565b61036f610a55565b61032f610a84565b61036f60095481565b61036f610503366004611fbe565b610a93565b6013546102fe90600160a01b900460ff1681565b61036f60125481565b6103be6105333660046120b0565b610aae565b61036f66038d7ea4c6800081565b6102fe610554366004612043565b610c92565b61036f610567366004611fbe565b610d0d565b6102fe61057a366004612043565b610d53565b61036f670de0b6b3a764000081565b61036f600b5481565b6008546103e6906001600160a01b031681565b6103e67f000000000000000000000000000000000000000000000000000000000000000081565b6103be610d61565b61036f620186a081565b6103be6105f1366004611fbe565b611035565b61036f6106043660046120d4565b611272565b6103be610617366004611fbe565b61129d565b61036f61151d565b610409601281565b6103be61063a3660046120b0565b611538565b61036f6115ae565b6060600380546106569061210d565b80601f01602080910402602001604051908101604052809291908181526020018280546106829061210d565b80156106cf5780601f106106a4576101008083540402835291602001916106cf565b820191906000526020600020905b8154815290600101906020018083116106b257829003601f168201915b5050505050905090565b6000336106e78185856115ca565b60019150505b92915050565b600c818154811061070357600080fd5b600091825260209091200154905081565b6008546001600160a01b031633148061073757506005546001600160a01b031633145b6107795760405162461bcd60e51b815260206004820152600e60248201526d139bdd08185d5d1a1bdc9a5e995960921b60448201526064015b60405180910390fd5b6103e88111156107cb5760405162461bcd60e51b815260206004820181905260248201527f477261766974792053636f72652063616e6e6f742065786365656420313030306044820152606401610770565b600f80549082905560408051828152602081018490527f2a59b5b6ffec36f241ef80c1e1b70d2d76f9f2f743f1d88a337ca62c60982d39910160405180910390a16108146116ee565b5050565b600033610826858285611812565b61083185858561188c565b506001949350505050565b6000336106e781858561084f8383611272565b610859919061215d565b6115ca565b610866611a30565b6005546001600160a01b031633148061088957506008546001600160a01b031633145b6108df5760405162461bcd60e51b815260206004820152602160248201527f4f6e6c792063726561746f72206f7220666163746f72792063616e20636c61696044820152606d60f81b6064820152608401610770565b6000601254116109265760405162461bcd60e51b81526020600482015260126024820152714e6f20746f6b656e7320746f20636c61696d60701b6044820152606401610770565b60128054600090915561094a6109446005546001600160a01b031690565b82611a89565b506109556001600655565b565b60008082600a54610968919061215d565b9050600081600b5461097a9190612170565b9050600954811061098f575060009392505050565b8060095461099d9190612192565b949350505050565b6109ad611b48565b6109556000611ba2565b600780546109c49061210d565b80601f01602080910402602001604051908101604052809291908181526020018280546109f09061210d565b8015610a3d5780601f10610a1257610100808354040283529160200191610a3d565b820191906000526020600020905b815481529060010190602001808311610a2057829003601f168201915b505050505081565b600d818154811061070357600080fd5b6000670de0b6b3a7640000600a54610a6b61151d565b610a7591906121a5565b610a7f9190612170565b905090565b6060600480546106569061210d565b6000620186a0610aa46064846121a5565b6106ed9190612170565b610ab6611a30565b6008546001600160a01b03163314610b095760405162461bcd60e51b81526020600482015260166024820152754f6e6c7920666163746f72792063616e20636c61696d60501b6044820152606401610770565b600060125411610b505760405162461bcd60e51b81526020600482015260126024820152714e6f20746f6b656e7320746f20636c61696d60701b6044820152606401610770565b6001600160a01b038116610b9a5760405162461bcd60e51b8152602060048201526011602482015270526563697069656e74206973207a65726f60781b6044820152606401610770565b6005546001600160a01b0382811691161480610c25575060085460405163ae6862ff60e01b81526001600160a01b0383811660048301523060248301529091169063ae6862ff90604401602060405180830381865afa158015610c01573d6000803e3d6000fd5b505050506040513d601f19601f82011682018060405250810190610c2591906121bc565b610c715760405162461bcd60e51b815260206004820152601e60248201527f526563697069656e74206973206e6f7420746f6b656e2063726561746f7200006044820152606401610770565b601280546000909155610c848282611a89565b50610c8f6001600655565b50565b60003381610ca08286611272565b905083811015610d005760405162461bcd60e51b815260206004820152602560248201527f45524332303a2064656372656173656420616c6c6f77616e63652062656c6f77604482015264207a65726f60d81b6064820152608401610770565b61083182868684036115ca565b60008082600954610d1e919061215d565b9050600081600b54610d309190612170565b9050600a548110610d45575060009392505050565b80600a5461099d9190612192565b6000336106e781858561188c565b610d69611b48565b610d71611a30565b601354600160a01b900460ff1615610dcb5760405162461bcd60e51b815260206004820152601a60248201527f546f6b656e20697320616c7265616479206772616475617465640000000000006044820152606401610770565b6013805461ffff60a01b1916600160a01b1790556040516370a0823160e01b81523060048201526000906001600160a01b037f000000000000000000000000000000000000000000000000000000000000000016906370a0823190602401602060405180830381865afa158015610e46573d6000803e3d6000fd5b505050506040513d601f19601f82011682018060405250810190610e6a91906121de565b90508060006064610e7a60025490565b610e859060146121a5565b610e8f9190612170565b9050610e9b3082611a89565b600854610eb39030906001600160a01b0316836115ca565b600854604051632097c4bd60e01b815230600482015260006024820181905260448201849052916001600160a01b031690632097c4bd906064016020604051808303816000875af1158015610f0c573d6000803e3d6000fd5b505050506040513d601f19601f82011682018060405250810190610f3091906121f7565b601480546001600160a01b0319166001600160a01b03831617905590508215610fdb57610f876001600160a01b037f0000000000000000000000000000000000000000000000000000000000000000168285611bf4565b806001600160a01b031663fff6cae96040518163ffffffff1660e01b8152600401600060405180830381600087803b158015610fc257600080fd5b505af1158015610fd6573d6000803e3d6000fd5b505050505b6040805184815260208101849052428183015290516001600160a01b0383169130917f5ec1e9daf7affe04984801e0d07de6448f00139d72977b7c948bf698bd353f769181900360600190a3505050506109556001600655565b61103d611a30565b600081116110825760405162461bcd60e51b81526020600482015260126024820152710416d6f756e74206d757374206265203e20360741b6044820152606401610770565b601354600160a81b900460ff166110ab5760405162461bcd60e51b815260040161077090612214565b60006110b682610d0d565b9050600081116110fe5760405162461bcd60e51b815260206004820152601360248201527216995c9bc81d1bdad95b9cc81d1bc81b5a5b9d606a1b6044820152606401610770565b6000620186a061110f6064856121a5565b6111199190612170565b90506000611127828561215d565b9050836009600082825461113b919061215d565b9250508190555082600a60008282546111549190612192565b9091555050600a5460095461116991906121a5565b600b556111a16001600160a01b037f000000000000000000000000000000000000000000000000000000000000000016333084611c5c565b8115611217576013546111e1906001600160a01b037f00000000000000000000000000000000000000000000000000000000000000008116911684611bf4565b60405182815233907f06c5efeff5c320943d265dc4e5f1af95ad523555ce0c1957e367dda5514572df9060200160405180910390a25b6112213384611a89565b604080518581526020810185905290810183905233907f0d1a0d5e3d583a0e92588799dd06e50fd78c07daf05f0cc06d7b848b1ca445f1906060015b60405180910390a2505050610c8f6001600655565b6001600160a01b03918216600090815260016020908152604080832093909416825291909152205490565b6112a5611a30565b600081116112ea5760405162461bcd60e51b81526020600482015260126024820152710416d6f756e74206d757374206265203e20360741b6044820152606401610770565b3360009081526020819052604090205481111561133f5760405162461bcd60e51b8152602060048201526013602482015272496e73756666696369656e7420746f6b656e7360681b6044820152606401610770565b601354600160a81b900460ff166113685760405162461bcd60e51b815260040161077090612214565b600061137382610957565b9050600081116113bb5760405162461bcd60e51b81526020600482015260136024820152722d32b937902aa9a22a103a37903932ba3ab93760691b6044820152606401610770565b6000620186a06113cc6064846121a5565b6113d69190612170565b905060006113e48284612192565b905082600960008282546113f89190612192565b9250508190555083600a6000828254611411919061215d565b9091555050600a5460095461142691906121a5565b600b556114333385611c94565b6114676001600160a01b037f0000000000000000000000000000000000000000000000000000000000000000163383611bf4565b81156114dd576013546114a7906001600160a01b037f00000000000000000000000000000000000000000000000000000000000000008116911684611bf4565b60405182815233907f06c5efeff5c320943d265dc4e5f1af95ad523555ce0c1957e367dda5514572df9060200160405180910390a25b604080518581526020810183905290810183905233907f6db63bebf1e6540277744df32846ebdb98385b1a73f2d5de49b28348add63f509060600161125d565b6000600a54600954670de0b6b3a7640000610a7591906121a5565b611540611b48565b6001600160a01b0381166115a55760405162461bcd60e51b815260206004820152602660248201527f4f776e61626c653a206e6577206f776e657220697320746865207a65726f206160448201526564647265737360d01b6064820152608401610770565b610c8f81611ba2565b6115ba6012600a612339565b6115c790620186a06121a5565b81565b6001600160a01b03831661162c5760405162461bcd60e51b8152602060048201526024808201527f45524332303a20617070726f76652066726f6d20746865207a65726f206164646044820152637265737360e01b6064820152608401610770565b6001600160a01b03821661168d5760405162461bcd60e51b815260206004820152602260248201527f45524332303a20617070726f766520746f20746865207a65726f206164647265604482015261737360f01b6064820152608401610770565b6001600160a01b0383811660008181526001602090815260408083209487168084529482529182902085905590518481527f8c5be1e5ebec7d5bd14f71427d1e84f3dd0314c0f7b2291e5b200ac8c7c3b925910160405180910390a3505050565b60005b600c54811015610c8f576000600c828154811061171057611710612348565b9060005260206000200154905080600f541015801561173e575060008181526010602052604090205460ff16155b156117ff576000818152601060205260408120805460ff19166001179055600d805461271091908590811061177557611775612348565b9060005260206000200154600e5461178d91906121a5565b6117979190612170565b60008381526011602052604081208290556012805492935083929091906117bf90849061215d565b909155505060408051838152602081018390527f8ed12daf03921f6cf3d38d560dee47e5e323c2a96469beef3cdb39c23ef1a742910160405180910390a1505b508061180a8161235e565b9150506116f1565b600061181e8484611272565b9050600019811461188657818110156118795760405162461bcd60e51b815260206004820152601d60248201527f45524332303a20696e73756666696369656e7420616c6c6f77616e63650000006044820152606401610770565b61188684848484036115ca565b50505050565b6001600160a01b0383166118f05760405162461bcd60e51b815260206004820152602560248201527f45524332303a207472616e736665722066726f6d20746865207a65726f206164604482015264647265737360d81b6064820152608401610770565b6001600160a01b0382166119525760405162461bcd60e51b815260206004820152602360248201527f45524332303a207472616e7366657220746f20746865207a65726f206164647260448201526265737360e81b6064820152608401610770565b6001600160a01b038316600090815260208190526040902054818110156119ca5760405162461bcd60e51b815260206004820152602660248201527f45524332303a207472616e7366657220616d6f756e7420657863656564732062604482015265616c616e636560d01b6064820152608401610770565b6001600160a01b03848116600081815260208181526040808320878703905593871680835291849020805487019055925185815290927fddf252ad1be2c89b69c2b068fc378daa952ba7f163c4a11628f55a4df523b3ef910160405180910390a3611886565b600260065403611a825760405162461bcd60e51b815260206004820152601f60248201527f5265656e7472616e637947756172643a207265656e7472616e742063616c6c006044820152606401610770565b6002600655565b6001600160a01b038216611adf5760405162461bcd60e51b815260206004820152601f60248201527f45524332303a206d696e7420746f20746865207a65726f2061646472657373006044820152606401610770565b8060026000828254611af1919061215d565b90915550506001600160a01b038216600081815260208181526040808320805486019055518481527fddf252ad1be2c89b69c2b068fc378daa952ba7f163c4a11628f55a4df523b3ef910160405180910390a35050565b6005546001600160a01b031633146109555760405162461bcd60e51b815260206004820181905260248201527f4f776e61626c653a2063616c6c6572206973206e6f7420746865206f776e65726044820152606401610770565b600580546001600160a01b038381166001600160a01b0319831681179093556040519116919082907f8be0079c531659141344cd1fd0a4f28419497f9722a3daafe3b4186f6b6457e090600090a35050565b6040516001600160a01b038316602482015260448101829052611c5790849063a9059cbb60e01b906064015b60408051601f198184030181529190526020810180516001600160e01b03166001600160e01b031990931692909217909152611dc6565b505050565b6040516001600160a01b03808516602483015283166044820152606481018290526118869085906323b872dd60e01b90608401611c20565b6001600160a01b038216611cf45760405162461bcd60e51b815260206004820152602160248201527f45524332303a206275726e2066726f6d20746865207a65726f206164647265736044820152607360f81b6064820152608401610770565b6001600160a01b03821660009081526020819052604090205481811015611d685760405162461bcd60e51b815260206004820152602260248201527f45524332303a206275726e20616d6f756e7420657863656564732062616c616e604482015261636560f01b6064820152608401610770565b6001600160a01b0383166000818152602081815260408083208686039055600280548790039055518581529192917fddf252ad1be2c89b69c2b068fc378daa952ba7f163c4a11628f55a4df523b3ef910160405180910390a3505050565b6000611e1b826040518060400160405280602081526020017f5361666545524332303a206c6f772d6c6576656c2063616c6c206661696c6564815250856001600160a01b0316611e9b9092919063ffffffff16565b9050805160001480611e3c575080806020019051810190611e3c91906121bc565b611c575760405162461bcd60e51b815260206004820152602a60248201527f5361666545524332303a204552433230206f7065726174696f6e20646964206e6044820152691bdd081cdd58d8d9595960b21b6064820152608401610770565b606061099d848460008585600080866001600160a01b03168587604051611ec29190612377565b60006040518083038185875af1925050503d8060008114611eff576040519150601f19603f3d011682016040523d82523d6000602084013e611f04565b606091505b5091509150611f1587838387611f20565b979650505050505050565b60608315611f8f578251600003611f88576001600160a01b0385163b611f885760405162461bcd60e51b815260206004820152601d60248201527f416464726573733a2063616c6c20746f206e6f6e2d636f6e74726163740000006044820152606401610770565b508161099d565b61099d8383815115611fa45781518083602001fd5b8060405162461bcd60e51b81526004016107709190611ffb565b600060208284031215611fd057600080fd5b5035919050565b60005b83811015611ff2578181015183820152602001611fda565b50506000910152565b602081526000825180602084015261201a816040850160208701611fd7565b601f01601f19169190910160400192915050565b6001600160a01b0381168114610c8f57600080fd5b6000806040838503121561205657600080fd5b82356120618161202e565b946020939093013593505050565b60008060006060848603121561208457600080fd5b833561208f8161202e565b9250602084013561209f8161202e565b929592945050506040919091013590565b6000602082840312156120c257600080fd5b81356120cd8161202e565b9392505050565b600080604083850312156120e757600080fd5b82356120f28161202e565b915060208301356121028161202e565b809150509250929050565b600181811c9082168061212157607f821691505b60208210810361214157634e487b7160e01b600052602260045260246000fd5b50919050565b634e487b7160e01b600052601160045260246000fd5b808201808211156106ed576106ed612147565b60008261218d57634e487b7160e01b600052601260045260246000fd5b500490565b818103818111156106ed576106ed612147565b80820281158282048414176106ed576106ed612147565b6000602082840312156121ce57600080fd5b815180151581146120cd57600080fd5b6000602082840312156121f057600080fd5b5051919050565b60006020828403121561220957600080fd5b81516120cd8161202e565b60208082526021908201527f54726164696e672064697361626c65642061667465722067726164756174696f6040820152603760f91b606082015260800190565b600181815b8085111561229057816000190482111561227657612276612147565b8085161561228357918102915b93841c939080029061225a565b509250929050565b6000826122a7575060016106ed565b816122b4575060006106ed565b81600181146122ca57600281146122d4576122f0565b60019150506106ed565b60ff8411156122e5576122e5612147565b50506001821b6106ed565b5060208310610133831016604e8410600b8410161715612313575081810a6106ed565b61231d8383612255565b806000190482111561233157612331612147565b029392505050565b60006120cd60ff841683612298565b634e487b7160e01b600052603260045260246000fd5b60006001820161237057612370612147565b5060010190565b60008251612389818460208701611fd7565b919091019291505056fea264697066735822122075e3432d3a01bc750386e76a3eff713e8b71a377183affe3c1c36ef301221afa64736f6c63430008140033a26469706673582212208f24c1ff88cf3d59f063139118a67c3c95aaf44724b0179de72fe8caf757bc3264736f6c63430008140033","opcodes":"PUSH1 0xA0 PUSH1 0x40 MSTORE CALLVALUE DUP1 ISZERO PUSH3 0x11 JUMPI PUSH1 0x0 DUP1 REVERT JUMPDEST POP PUSH1 0x40 MLOAD PUSH3 0x4864 CODESIZE SUB DUP1 PUSH3 0x4864 DUP4 CODECOPY DUP2 ADD PUSH1 0x40 DUP2 SWAP1 MSTORE PUSH3 0x34 SWAP2 PUSH3 0xE6 JUMP JUMPDEST PUSH3 0x3F CALLER PUSH3 0x79 JUMP JUMPDEST PUSH1 0x5 DUP1 SLOAD PUSH1 0x1 PUSH1 0x1 PUSH1 0xA0 SHL SUB NOT SWAP1 DUP2 AND PUSH1 0x1 PUSH1 0x1 PUSH1 0xA0 SHL SUB SWAP6 DUP7 AND OR SWAP1 SWAP2 SSTORE PUSH1 0x4 DUP1 SLOAD SWAP1 SWAP2 AND SWAP3 DUP5 AND SWAP3 SWAP1 SWAP3 OR SWAP1 SWAP2 SSTORE AND PUSH1 0x80 MSTORE PUSH3 0x130 JUMP JUMPDEST PUSH1 0x0 DUP1 SLOAD PUSH1 0x1 PUSH1 0x1 PUSH1 0xA0 SHL SUB DUP4 DUP2 AND PUSH1 0x1 PUSH1 0x1 PUSH1 0xA0 SHL SUB NOT DUP4 AND DUP2 OR DUP5 SSTORE PUSH1 0x40 MLOAD SWAP2 SWAP1 SWAP3 AND SWAP3 DUP4 SWAP2 PUSH32 0x8BE0079C531659141344CD1FD0A4F28419497F9722A3DAAFE3B4186F6B6457E0 SWAP2 SWAP1 LOG3 POP POP JUMP JUMPDEST DUP1 MLOAD PUSH1 0x1 PUSH1 0x1 PUSH1 0xA0 SHL SUB DUP2 AND DUP2 EQ PUSH3 0xE1 JUMPI PUSH1 0x0 DUP1 REVERT JUMPDEST SWAP2 SWAP1 POP JUMP JUMPDEST PUSH1 0x0 DUP1 PUSH1 0x0 PUSH1 0x60 DUP5 DUP7 SUB SLT ISZERO PUSH3 0xFC JUMPI PUSH1 0x0 DUP1 REVERT JUMPDEST PUSH3 0x107 DUP5 PUSH3 0xC9 JUMP JUMPDEST SWAP3 POP PUSH3 0x117 PUSH1 0x20 DUP6 ADD PUSH3 0xC9 JUMP JUMPDEST SWAP2 POP PUSH3 0x127 PUSH1 0x40 DUP6 ADD PUSH3 0xC9 JUMP JUMPDEST SWAP1 POP SWAP3 POP SWAP3 POP SWAP3 JUMP JUMPDEST PUSH1 0x80 MLOAD PUSH2 0x470A PUSH3 0x15A PUSH1 0x0 CODECOPY PUSH1 0x0 DUP2 DUP2 PUSH2 0x3BE ADD MSTORE DUP2 DUP2 PUSH2 0x728 ADD MSTORE PUSH2 0xE34 ADD MSTORE PUSH2 0x470A PUSH1 0x0 RETURN INVALID PUSH1 0x80 PUSH1 0x40 MSTORE CALLVALUE DUP1 ISZERO PUSH3 0x11 JUMPI PUSH1 0x0 DUP1 REVERT JUMPDEST POP PUSH1 0x4 CALLDATASIZE LT PUSH3 0x1AF JUMPI PUSH1 0x0 CALLDATALOAD PUSH1 0xE0 SHR DUP1 PUSH4 0x7F51BB1F GT PUSH3 0xF0 JUMPI DUP1 PUSH4 0xC54E44EB GT PUSH3 0xA3 JUMPI DUP1 PUSH4 0xD5AFD0AC GT PUSH3 0x7A JUMPI DUP1 PUSH4 0xD5AFD0AC EQ PUSH3 0x3FE JUMPI DUP1 PUSH4 0xD782D647 EQ PUSH3 0x42D JUMPI DUP1 PUSH4 0xDB3FA4CC EQ PUSH3 0x444 JUMPI DUP1 PUSH4 0xF2FDE38B EQ PUSH3 0x45B JUMPI PUSH1 0x0 DUP1 REVERT JUMPDEST DUP1 PUSH4 0xC54E44EB EQ PUSH3 0x3B8 JUMPI DUP1 PUSH4 0xCA10E481 EQ PUSH3 0x3E0 JUMPI DUP1 PUSH4 0xD1DB3558 EQ PUSH3 0x3EA JUMPI PUSH1 0x0 DUP1 REVERT JUMPDEST DUP1 PUSH4 0x7F51BB1F EQ PUSH3 0x31E JUMPI DUP1 PUSH4 0x8A047D5E EQ PUSH3 0x335 JUMPI DUP1 PUSH4 0x8D015961 EQ PUSH3 0x361 JUMPI DUP1 PUSH4 0x8DA5CB5B EQ PUSH3 0x378 JUMPI DUP1 PUSH4 0x94AED7D0 EQ PUSH3 0x38A JUMPI DUP1 PUSH4 0xAE6862FF EQ PUSH3 0x3A1 JUMPI PUSH1 0x0 DUP1 REVERT JUMPDEST DUP1 PUSH4 0x388E8FD2 GT PUSH3 0x166 JUMPI DUP1 PUSH4 0x65B7CE47 GT PUSH3 0x13D JUMPI DUP1 PUSH4 0x65B7CE47 EQ PUSH3 0x2D2 JUMPI DUP1 PUSH4 0x715018A6 EQ PUSH3 0x2E9 JUMPI DUP1 PUSH4 0x74ABFA54 EQ PUSH3 0x2F3 JUMPI DUP1 PUSH4 0x7944F944 EQ PUSH3 0x30A JUMPI PUSH1 0x0 DUP1 REVERT JUMPDEST DUP1 PUSH4 0x388E8FD2 EQ PUSH3 0x270 JUMPI DUP1 PUSH4 0x58F36340 EQ PUSH3 0x2A7 JUMPI DUP1 PUSH4 0x61D027B3 EQ PUSH3 0x2BE JUMPI PUSH1 0x0 DUP1 REVERT JUMPDEST DUP1 PUSH4 0xCB849DD EQ PUSH3 0x1B4 JUMPI DUP1 PUSH4 0x1110B8AC EQ PUSH3 0x1E5 JUMPI DUP1 PUSH4 0x1A4BC34E EQ PUSH3 0x1FE JUMPI DUP1 PUSH4 0x2097C4BD EQ PUSH3 0x215 JUMPI DUP1 PUSH4 0x27E45C2C EQ PUSH3 0x22C JUMPI DUP1 PUSH4 0x2A5C792A EQ PUSH3 0x257 JUMPI JUMPDEST PUSH1 0x0 DUP1 REVERT JUMPDEST PUSH1 0x4 SLOAD PUSH3 0x1C8 SWAP1 PUSH1 0x1 PUSH1 0x1 PUSH1 0xA0 SHL SUB AND DUP2 JUMP JUMPDEST PUSH1 0x40 MLOAD PUSH1 0x1 PUSH1 0x1 PUSH1 0xA0 SHL SUB SWAP1 SWAP2 AND DUP2 MSTORE PUSH1 0x20 ADD JUMPDEST PUSH1 0x40 MLOAD DUP1 SWAP2 SUB SWAP1 RETURN JUMPDEST PUSH3 0x1FC PUSH3 0x1F6 CALLDATASIZE PUSH1 0x4 PUSH3 0x15F7 JUMP JUMPDEST PUSH3 0x472 JUMP JUMPDEST STOP JUMPDEST PUSH3 0x1C8 PUSH3 0x20F CALLDATASIZE PUSH1 0x4 PUSH3 0x161E JUMP JUMPDEST PUSH3 0x5CD JUMP JUMPDEST PUSH3 0x1C8 PUSH3 0x226 CALLDATASIZE PUSH1 0x4 PUSH3 0x1638 JUMP JUMPDEST PUSH3 0x5F8 JUMP JUMPDEST PUSH3 0x243 PUSH3 0x23D CALLDATASIZE PUSH1 0x4 PUSH3 0x15F7 JUMP JUMPDEST PUSH3 0x96E JUMP JUMPDEST PUSH1 0x40 MLOAD PUSH3 0x1DC SWAP7 SWAP6 SWAP5 SWAP4 SWAP3 SWAP2 SWAP1 PUSH3 0x16C4 JUMP JUMPDEST PUSH3 0x261 PUSH3 0xB5E JUMP JUMPDEST PUSH1 0x40 MLOAD PUSH3 0x1DC SWAP2 SWAP1 PUSH3 0x172B JUMP JUMPDEST PUSH3 0x296 PUSH3 0x281 CALLDATASIZE PUSH1 0x4 PUSH3 0x15F7 JUMP JUMPDEST PUSH1 0x8 PUSH1 0x20 MSTORE PUSH1 0x0 SWAP1 DUP2 MSTORE PUSH1 0x40 SWAP1 KECCAK256 SLOAD PUSH1 0xFF AND DUP2 JUMP JUMPDEST PUSH1 0x40 MLOAD SWAP1 ISZERO ISZERO DUP2 MSTORE PUSH1 0x20 ADD PUSH3 0x1DC JUMP JUMPDEST PUSH3 0x1FC PUSH3 0x2B8 CALLDATASIZE PUSH1 0x4 PUSH3 0x177A JUMP JUMPDEST PUSH3 0xBC2 JUMP JUMPDEST PUSH1 0x5 SLOAD PUSH3 0x1C8 SWAP1 PUSH1 0x1 PUSH1 0x1 PUSH1 0xA0 SHL SUB AND DUP2 JUMP JUMPDEST PUSH3 0x1FC PUSH3 0x2E3 CALLDATASIZE PUSH1 0x4 PUSH3 0x17A9 JUMP JUMPDEST PUSH3 0xC98 JUMP JUMPDEST PUSH3 0x1FC PUSH3 0xD2E JUMP JUMPDEST PUSH3 0x261 PUSH3 0x304 CALLDATASIZE PUSH1 0x4 PUSH3 0x15F7 JUMP JUMPDEST PUSH3 0xD46 JUMP JUMPDEST PUSH1 0x6 SLOAD PUSH3 0x1C8 SWAP1 PUSH1 0x1 PUSH1 0x1 PUSH1 0xA0 SHL SUB AND DUP2 JUMP JUMPDEST PUSH3 0x1FC PUSH3 0x32F CALLDATASIZE PUSH1 0x4 PUSH3 0x15F7 JUMP JUMPDEST PUSH3 0xDBE JUMP JUMPDEST PUSH3 0x1C8 PUSH3 0x346 CALLDATASIZE PUSH1 0x4 PUSH3 0x15F7 JUMP JUMPDEST PUSH1 0x9 PUSH1 0x20 MSTORE PUSH1 0x0 SWAP1 DUP2 MSTORE PUSH1 0x40 SWAP1 KECCAK256 SLOAD PUSH1 0x1 PUSH1 0x1 PUSH1 0xA0 SHL SUB AND DUP2 JUMP JUMPDEST PUSH3 0x1FC PUSH3 0x372 CALLDATASIZE PUSH1 0x4 PUSH3 0x15F7 JUMP JUMPDEST PUSH3 0xDEA JUMP JUMPDEST PUSH1 0x0 SLOAD PUSH1 0x1 PUSH1 0x1 PUSH1 0xA0 SHL SUB AND PUSH3 0x1C8 JUMP JUMPDEST PUSH3 0x1FC PUSH3 0x39B CALLDATASIZE PUSH1 0x4 PUSH3 0x1892 JUMP JUMPDEST PUSH3 0xE16 JUMP JUMPDEST PUSH3 0x296 PUSH3 0x3B2 CALLDATASIZE PUSH1 0x4 PUSH3 0x17A9 JUMP JUMPDEST PUSH3 0xFFF JUMP JUMPDEST PUSH3 0x1C8 PUSH32 0x0 DUP2 JUMP JUMPDEST PUSH3 0x261 PUSH3 0x1116 JUMP JUMPDEST PUSH1 0x7 SLOAD PUSH3 0x1C8 SWAP1 PUSH1 0x1 PUSH1 0x1 PUSH1 0xA0 SHL SUB AND DUP2 JUMP JUMPDEST PUSH3 0x1C8 PUSH3 0x40F CALLDATASIZE PUSH1 0x4 PUSH3 0x15F7 JUMP JUMPDEST PUSH1 0x1 PUSH1 0x1 PUSH1 0xA0 SHL SUB SWAP1 DUP2 AND PUSH1 0x0 SWAP1 DUP2 MSTORE PUSH1 0x9 PUSH1 0x20 MSTORE PUSH1 0x40 SWAP1 KECCAK256 SLOAD AND SWAP1 JUMP JUMPDEST PUSH3 0x1C8 PUSH3 0x43E CALLDATASIZE PUSH1 0x4 PUSH3 0x161E JUMP JUMPDEST PUSH3 0x1178 JUMP JUMPDEST PUSH3 0x1C8 PUSH3 0x455 CALLDATASIZE PUSH1 0x4 PUSH3 0x177A JUMP JUMPDEST PUSH3 0x1189 JUMP JUMPDEST PUSH3 0x1FC PUSH3 0x46C CALLDATASIZE PUSH1 0x4 PUSH3 0x15F7 JUMP JUMPDEST PUSH3 0x11C2 JUMP JUMPDEST PUSH1 0x0 DUP2 SWAP1 POP PUSH1 0x0 CALLER PUSH1 0x1 PUSH1 0x1 PUSH1 0xA0 SHL SUB AND DUP3 PUSH1 0x1 PUSH1 0x1 PUSH1 0xA0 SHL SUB AND PUSH4 0x8DA5CB5B PUSH1 0x40 MLOAD DUP2 PUSH4 0xFFFFFFFF AND PUSH1 0xE0 SHL DUP2 MSTORE PUSH1 0x4 ADD PUSH1 0x20 PUSH1 0x40 MLOAD DUP1 DUP4 SUB DUP2 DUP7 GAS STATICCALL ISZERO DUP1 ISZERO PUSH3 0x4C2 JUMPI RETURNDATASIZE PUSH1 0x0 DUP1 RETURNDATACOPY RETURNDATASIZE PUSH1 0x0 REVERT JUMPDEST POP POP POP POP PUSH1 0x40 MLOAD RETURNDATASIZE PUSH1 0x1F NOT PUSH1 0x1F DUP3 ADD AND DUP3 ADD DUP1 PUSH1 0x40 MSTORE POP DUP2 ADD SWAP1 PUSH3 0x4E8 SWAP2 SWAP1 PUSH3 0x1924 JUMP JUMPDEST PUSH1 0x1 PUSH1 0x1 PUSH1 0xA0 SHL SUB AND EQ SWAP1 POP PUSH1 0x0 PUSH3 0x502 CALLER DUP6 PUSH3 0xFFF JUMP JUMPDEST SWAP1 POP DUP2 DUP1 PUSH3 0x50E JUMPI POP DUP1 JUMPDEST PUSH3 0x56C JUMPI PUSH1 0x40 MLOAD PUSH3 0x461BCD PUSH1 0xE5 SHL DUP2 MSTORE PUSH1 0x20 PUSH1 0x4 DUP3 ADD MSTORE PUSH1 0x24 DUP1 DUP3 ADD MSTORE PUSH32 0x43616C6C6572206973206E6F7420746F6B656E206F776E6572206F7220637265 PUSH1 0x44 DUP3 ADD MSTORE PUSH4 0x30BA37B9 PUSH1 0xE1 SHL PUSH1 0x64 DUP3 ADD MSTORE PUSH1 0x84 ADD JUMPDEST PUSH1 0x40 MLOAD DUP1 SWAP2 SUB SWAP1 REVERT JUMPDEST PUSH1 0x40 MLOAD PUSH4 0x51A60057 PUSH1 0xE1 SHL DUP2 MSTORE CALLER PUSH1 0x4 DUP3 ADD MSTORE PUSH1 0x1 PUSH1 0x1 PUSH1 0xA0 SHL SUB DUP5 AND SWAP1 PUSH4 0xA34C00AE SWAP1 PUSH1 0x24 ADD PUSH1 0x0 PUSH1 0x40 MLOAD DUP1 DUP4 SUB DUP2 PUSH1 0x0 DUP8 DUP1 EXTCODESIZE ISZERO DUP1 ISZERO PUSH3 0x5AE JUMPI PUSH1 0x0 DUP1 REVERT JUMPDEST POP GAS CALL ISZERO DUP1 ISZERO PUSH3 0x5C3 JUMPI RETURNDATASIZE PUSH1 0x0 DUP1 RETURNDATACOPY RETURNDATASIZE PUSH1 0x0 REVERT JUMPDEST POP POP POP POP POP POP POP POP JUMP JUMPDEST PUSH1 0xA DUP2 DUP2 SLOAD DUP2 LT PUSH3 0x5DE JUMPI PUSH1 0x0 DUP1 REVERT JUMPDEST PUSH1 0x0 SWAP2 DUP3 MSTORE PUSH1 0x20 SWAP1 SWAP2 KECCAK256 ADD SLOAD PUSH1 0x1 PUSH1 0x1 PUSH1 0xA0 SHL SUB AND SWAP1 POP DUP2 JUMP JUMPDEST PUSH1 0x0 CALLER PUSH1 0x1 PUSH1 0x1 PUSH1 0xA0 SHL SUB DUP6 AND EQ PUSH3 0x64B JUMPI PUSH1 0x40 MLOAD PUSH3 0x461BCD PUSH1 0xE5 SHL DUP2 MSTORE PUSH1 0x20 PUSH1 0x4 DUP3 ADD MSTORE PUSH1 0x14 PUSH1 0x24 DUP3 ADD MSTORE PUSH20 0x21B0B63632B91036BAB9BA103132903A37B5B2B7 PUSH1 0x61 SHL PUSH1 0x44 DUP3 ADD MSTORE PUSH1 0x64 ADD PUSH3 0x563 JUMP JUMPDEST PUSH1 0x1 PUSH1 0x1 PUSH1 0xA0 SHL SUB DUP5 AND PUSH1 0x0 SWAP1 DUP2 MSTORE PUSH1 0x8 PUSH1 0x20 MSTORE PUSH1 0x40 SWAP1 KECCAK256 SLOAD PUSH1 0xFF AND ISZERO PUSH3 0x6B6 JUMPI PUSH1 0x40 MLOAD PUSH3 0x461BCD PUSH1 0xE5 SHL DUP2 MSTORE PUSH1 0x20 PUSH1 0x4 DUP3 ADD MSTORE PUSH1 0x17 PUSH1 0x24 DUP3 ADD MSTORE PUSH32 0x546F6B656E20616C726561647920677261647561746564000000000000000000 PUSH1 0x44 DUP3 ADD MSTORE PUSH1 0x64 ADD PUSH3 0x563 JUMP JUMPDEST PUSH1 0x6 SLOAD PUSH1 0x1 PUSH1 0x1 PUSH1 0xA0 SHL SUB AND PUSH3 0x706 JUMPI PUSH1 0x40 MLOAD PUSH3 0x461BCD PUSH1 0xE5 SHL DUP2 MSTORE PUSH1 0x20 PUSH1 0x4 DUP3 ADD MSTORE PUSH1 0x13 PUSH1 0x24 DUP3 ADD MSTORE PUSH19 0x14DDD85C119858DD1BDC9E481B9BDD081CD95D PUSH1 0x6A SHL PUSH1 0x44 DUP3 ADD MSTORE PUSH1 0x64 ADD PUSH3 0x563 JUMP JUMPDEST PUSH1 0x6 SLOAD PUSH1 0x40 MLOAD PUSH4 0x64E329CB PUSH1 0xE1 SHL DUP2 MSTORE PUSH1 0x1 PUSH1 0x1 PUSH1 0xA0 SHL SUB DUP7 DUP2 AND PUSH1 0x4 DUP4 ADD MSTORE PUSH32 0x0 DUP2 AND PUSH1 0x24 DUP4 ADD MSTORE SWAP1 SWAP2 AND SWAP1 PUSH4 0xC9C65396 SWAP1 PUSH1 0x44 ADD PUSH1 0x20 PUSH1 0x40 MLOAD DUP1 DUP4 SUB DUP2 PUSH1 0x0 DUP8 GAS CALL ISZERO DUP1 ISZERO PUSH3 0x77B JUMPI RETURNDATASIZE PUSH1 0x0 DUP1 RETURNDATACOPY RETURNDATASIZE PUSH1 0x0 REVERT JUMPDEST POP POP POP POP PUSH1 0x40 MLOAD RETURNDATASIZE PUSH1 0x1F NOT PUSH1 0x1F DUP3 ADD AND DUP3 ADD DUP1 PUSH1 0x40 MSTORE POP DUP2 ADD SWAP1 PUSH3 0x7A1 SWAP2 SWAP1 PUSH3 0x1924 JUMP JUMPDEST SWAP1 POP PUSH3 0x7BA PUSH1 0x1 PUSH1 0x1 PUSH1 0xA0 SHL SUB DUP6 AND DUP6 DUP4 DUP6 PUSH3 0x1241 JUMP JUMPDEST PUSH1 0x0 DUP4 ISZERO PUSH3 0x7CA JUMPI DUP4 PUSH3 0x7CD JUMP JUMPDEST PUSH1 0x1 JUMPDEST PUSH1 0x40 MLOAD PUSH4 0x7251808B PUSH1 0xE1 SHL DUP2 MSTORE PUSH1 0x4 DUP2 ADD DUP6 SWAP1 MSTORE PUSH1 0x24 DUP2 ADD DUP3 SWAP1 MSTORE SWAP1 SWAP2 POP PUSH1 0x1 PUSH1 0x1 PUSH1 0xA0 SHL SUB DUP4 AND SWAP1 PUSH4 0xE4A30116 SWAP1 PUSH1 0x44 ADD PUSH1 0x0 PUSH1 0x40 MLOAD DUP1 DUP4 SUB DUP2 PUSH1 0x0 DUP8 DUP1 EXTCODESIZE ISZERO DUP1 ISZERO PUSH3 0x81A JUMPI PUSH1 0x0 DUP1 REVERT JUMPDEST POP GAS CALL ISZERO DUP1 ISZERO PUSH3 0x82F JUMPI RETURNDATASIZE PUSH1 0x0 DUP1 RETURNDATACOPY RETURNDATASIZE PUSH1 0x0 REVERT JUMPDEST POP POP POP PUSH1 0x1 PUSH1 0x1 PUSH1 0xA0 SHL SUB DUP1 DUP8 AND PUSH1 0x0 DUP2 DUP2 MSTORE PUSH1 0x8 PUSH1 0x20 SWAP1 DUP2 MSTORE PUSH1 0x40 DUP1 DUP4 KECCAK256 DUP1 SLOAD PUSH1 0xFF NOT AND PUSH1 0x1 SWAP1 DUP2 OR SWAP1 SWAP2 SSTORE PUSH1 0x9 SWAP1 SWAP3 MSTORE DUP3 KECCAK256 DUP1 SLOAD DUP9 DUP7 AND PUSH1 0x1 PUSH1 0x1 PUSH1 0xA0 SHL SUB NOT SWAP2 DUP3 AND OR SWAP1 SWAP2 SSTORE PUSH1 0xA DUP1 SLOAD SWAP3 DUP4 ADD DUP2 SSTORE SWAP1 SWAP3 MSTORE PUSH32 0xC65A7BB8D6351C1CF70C95A316CC6A92839C986682D98BC35F958F4883F9D2A8 ADD DUP1 SLOAD SWAP1 SWAP2 AND SWAP1 SWAP2 OR SWAP1 SSTORE PUSH1 0x7 SLOAD AND ISZERO SWAP1 POP PUSH3 0x926 JUMPI PUSH1 0x7 SLOAD PUSH1 0x40 MLOAD PUSH4 0x4739F7E5 PUSH1 0xE0 SHL DUP2 MSTORE PUSH1 0x1 PUSH1 0x1 PUSH1 0xA0 SHL SUB DUP8 DUP2 AND PUSH1 0x4 DUP4 ADD MSTORE DUP5 DUP2 AND PUSH1 0x24 DUP4 ADD MSTORE SWAP1 SWAP2 AND SWAP1 PUSH4 0x4739F7E5 SWAP1 PUSH1 0x44 ADD PUSH1 0x0 PUSH1 0x40 MLOAD DUP1 DUP4 SUB DUP2 PUSH1 0x0 DUP8 DUP1 EXTCODESIZE ISZERO DUP1 ISZERO PUSH3 0x90C JUMPI PUSH1 0x0 DUP1 REVERT JUMPDEST POP GAS CALL ISZERO DUP1 ISZERO PUSH3 0x921 JUMPI RETURNDATASIZE PUSH1 0x0 DUP1 RETURNDATACOPY RETURNDATASIZE PUSH1 0x0 REVERT JUMPDEST POP POP POP POP JUMPDEST DUP2 PUSH1 0x1 PUSH1 0x1 PUSH1 0xA0 SHL SUB AND DUP6 PUSH1 0x1 PUSH1 0x1 PUSH1 0xA0 SHL SUB AND PUSH32 0x806EF27E0C58D1DB68E3780CB50BDE63B59139693B61AB9FDFF83126ACC3A9A0 PUSH1 0x40 MLOAD PUSH1 0x40 MLOAD DUP1 SWAP2 SUB SWAP1 LOG3 POP SWAP4 SWAP3 POP POP POP JUMP JUMPDEST PUSH1 0x3 PUSH1 0x20 MSTORE PUSH1 0x0 SWAP1 DUP2 MSTORE PUSH1 0x40 SWAP1 KECCAK256 DUP1 SLOAD DUP2 SWAP1 PUSH3 0x98B SWAP1 PUSH3 0x1944 JUMP JUMPDEST DUP1 PUSH1 0x1F ADD PUSH1 0x20 DUP1 SWAP2 DIV MUL PUSH1 0x20 ADD PUSH1 0x40 MLOAD SWAP1 DUP2 ADD PUSH1 0x40 MSTORE DUP1 SWAP3 SWAP2 SWAP1 DUP2 DUP2 MSTORE PUSH1 0x20 ADD DUP3 DUP1 SLOAD PUSH3 0x9B9 SWAP1 PUSH3 0x1944 JUMP JUMPDEST DUP1 ISZERO PUSH3 0xA0A JUMPI DUP1 PUSH1 0x1F LT PUSH3 0x9DE JUMPI PUSH2 0x100 DUP1 DUP4 SLOAD DIV MUL DUP4 MSTORE SWAP2 PUSH1 0x20 ADD SWAP2 PUSH3 0xA0A JUMP JUMPDEST DUP3 ADD SWAP2 SWAP1 PUSH1 0x0 MSTORE PUSH1 0x20 PUSH1 0x0 KECCAK256 SWAP1 JUMPDEST DUP2 SLOAD DUP2 MSTORE SWAP1 PUSH1 0x1 ADD SWAP1 PUSH1 0x20 ADD DUP1 DUP4 GT PUSH3 0x9EC JUMPI DUP3 SWAP1 SUB PUSH1 0x1F AND DUP3 ADD SWAP2 JUMPDEST POP POP POP POP POP SWAP1 DUP1 PUSH1 0x1 ADD DUP1 SLOAD PUSH3 0xA21 SWAP1 PUSH3 0x1944 JUMP JUMPDEST DUP1 PUSH1 0x1F ADD PUSH1 0x20 DUP1 SWAP2 DIV MUL PUSH1 0x20 ADD PUSH1 0x40 MLOAD SWAP1 DUP2 ADD PUSH1 0x40 MSTORE DUP1 SWAP3 SWAP2 SWAP1 DUP2 DUP2 MSTORE PUSH1 0x20 ADD DUP3 DUP1 SLOAD PUSH3 0xA4F SWAP1 PUSH3 0x1944 JUMP JUMPDEST DUP1 ISZERO PUSH3 0xAA0 JUMPI DUP1 PUSH1 0x1F LT PUSH3 0xA74 JUMPI PUSH2 0x100 DUP1 DUP4 SLOAD DIV MUL DUP4 MSTORE SWAP2 PUSH1 0x20 ADD SWAP2 PUSH3 0xAA0 JUMP JUMPDEST DUP3 ADD SWAP2 SWAP1 PUSH1 0x0 MSTORE PUSH1 0x20 PUSH1 0x0 KECCAK256 SWAP1 JUMPDEST DUP2 SLOAD DUP2 MSTORE SWAP1 PUSH1 0x1 ADD SWAP1 PUSH1 0x20 ADD DUP1 DUP4 GT PUSH3 0xA82 JUMPI DUP3 SWAP1 SUB PUSH1 0x1F AND DUP3 ADD SWAP2 JUMPDEST POP POP POP POP POP SWAP1 DUP1 PUSH1 0x2 ADD DUP1 SLOAD PUSH3 0xAB7 SWAP1 PUSH3 0x1944 JUMP JUMPDEST DUP1 PUSH1 0x1F ADD PUSH1 0x20 DUP1 SWAP2 DIV MUL PUSH1 0x20 ADD PUSH1 0x40 MLOAD SWAP1 DUP2 ADD PUSH1 0x40 MSTORE DUP1 SWAP3 SWAP2 SWAP1 DUP2 DUP2 MSTORE PUSH1 0x20 ADD DUP3 DUP1 SLOAD PUSH3 0xAE5 SWAP1 PUSH3 0x1944 JUMP JUMPDEST DUP1 ISZERO PUSH3 0xB36 JUMPI DUP1 PUSH1 0x1F LT PUSH3 0xB0A JUMPI PUSH2 0x100 DUP1 DUP4 SLOAD DIV MUL DUP4 MSTORE SWAP2 PUSH1 0x20 ADD SWAP2 PUSH3 0xB36 JUMP JUMPDEST DUP3 ADD SWAP2 SWAP1 PUSH1 0x0 MSTORE PUSH1 0x20 PUSH1 0x0 KECCAK256 SWAP1 JUMPDEST DUP2 SLOAD DUP2 MSTORE SWAP1 PUSH1 0x1 ADD SWAP1 PUSH1 0x20 ADD DUP1 DUP4 GT PUSH3 0xB18 JUMPI DUP3 SWAP1 SUB PUSH1 0x1F AND DUP3 ADD SWAP2 JUMPDEST POP POP POP POP PUSH1 0x3 DUP4 ADD SLOAD PUSH1 0x4 DUP5 ADD SLOAD PUSH1 0x5 SWAP1 SWAP5 ADD SLOAD SWAP3 SWAP4 PUSH1 0x1 PUSH1 0x1 PUSH1 0xA0 SHL SUB SWAP1 SWAP2 AND SWAP3 SWAP1 SWAP2 POP DUP7 JUMP JUMPDEST PUSH1 0x60 PUSH1 0x1 DUP1 SLOAD DUP1 PUSH1 0x20 MUL PUSH1 0x20 ADD PUSH1 0x40 MLOAD SWAP1 DUP2 ADD PUSH1 0x40 MSTORE DUP1 SWAP3 SWAP2 SWAP1 DUP2 DUP2 MSTORE PUSH1 0x20 ADD DUP3 DUP1 SLOAD DUP1 ISZERO PUSH3 0xBB8 JUMPI PUSH1 0x20 MUL DUP3 ADD SWAP2 SWAP1 PUSH1 0x0 MSTORE PUSH1 0x20 PUSH1 0x0 KECCAK256 SWAP1 JUMPDEST DUP2 SLOAD PUSH1 0x1 PUSH1 0x1 PUSH1 0xA0 SHL SUB AND DUP2 MSTORE PUSH1 0x1 SWAP1 SWAP2 ADD SWAP1 PUSH1 0x20 ADD DUP1 DUP4 GT PUSH3 0xB99 JUMPI JUMPDEST POP POP POP POP POP SWAP1 POP SWAP1 JUMP JUMPDEST PUSH1 0x4 SLOAD PUSH1 0x1 PUSH1 0x1 PUSH1 0xA0 SHL SUB AND CALLER EQ DUP1 PUSH3 0xBE6 JUMPI POP PUSH1 0x0 SLOAD PUSH1 0x1 PUSH1 0x1 PUSH1 0xA0 SHL SUB AND CALLER EQ JUMPDEST PUSH3 0xC25 JUMPI PUSH1 0x40 MLOAD PUSH3 0x461BCD PUSH1 0xE5 SHL DUP2 MSTORE PUSH1 0x20 PUSH1 0x4 DUP3 ADD MSTORE PUSH1 0xE PUSH1 0x24 DUP3 ADD MSTORE PUSH14 0x139BDD08185D5D1A1BDC9A5E9959 PUSH1 0x92 SHL PUSH1 0x44 DUP3 ADD MSTORE PUSH1 0x64 ADD PUSH3 0x563 JUMP JUMPDEST PUSH1 0x1 PUSH1 0x1 PUSH1 0xA0 SHL SUB DUP3 AND PUSH1 0x0 DUP2 DUP2 MSTORE PUSH1 0x3 PUSH1 0x20 MSTORE PUSH1 0x40 SWAP1 DUP2 SWAP1 KECCAK256 PUSH1 0x5 ADD DUP4 SWAP1 SSTORE MLOAD PUSH4 0x1D3D97E1 PUSH1 0xE0 SHL DUP2 MSTORE PUSH1 0x4 DUP2 ADD DUP4 SWAP1 MSTORE PUSH4 0x1D3D97E1 SWAP1 PUSH1 0x24 ADD PUSH1 0x0 PUSH1 0x40 MLOAD DUP1 DUP4 SUB DUP2 PUSH1 0x0 DUP8 DUP1 EXTCODESIZE ISZERO DUP1 ISZERO PUSH3 0xC7B JUMPI PUSH1 0x0 DUP1 REVERT JUMPDEST POP GAS CALL ISZERO DUP1 ISZERO PUSH3 0xC90 JUMPI RETURNDATASIZE PUSH1 0x0 DUP1 RETURNDATACOPY RETURNDATASIZE PUSH1 0x0 REVERT JUMPDEST POP POP POP POP POP POP JUMP JUMPDEST PUSH3 0xCA2 PUSH3 0x12A3 JUMP JUMPDEST PUSH1 0x1 PUSH1 0x1 PUSH1 0xA0 SHL SUB DUP3 AND ISZERO DUP1 ISZERO SWAP1 PUSH3 0xCC3 JUMPI POP PUSH1 0x1 PUSH1 0x1 PUSH1 0xA0 SHL SUB DUP2 AND ISZERO ISZERO JUMPDEST PUSH3 0xD00 JUMPI PUSH1 0x40 MLOAD PUSH3 0x461BCD PUSH1 0xE5 SHL DUP2 MSTORE PUSH1 0x20 PUSH1 0x4 DUP3 ADD MSTORE PUSH1 0xC PUSH1 0x24 DUP3 ADD MSTORE PUSH12 0x5A65726F2061646472657373 PUSH1 0xA0 SHL PUSH1 0x44 DUP3 ADD MSTORE PUSH1 0x64 ADD PUSH3 0x563 JUMP JUMPDEST PUSH1 0x6 DUP1 SLOAD PUSH1 0x1 PUSH1 0x1 PUSH1 0xA0 SHL SUB SWAP4 DUP5 AND PUSH1 0x1 PUSH1 0x1 PUSH1 0xA0 SHL SUB NOT SWAP2 DUP3 AND OR SWAP1 SWAP2 SSTORE PUSH1 0x7 DUP1 SLOAD SWAP3 SWAP1 SWAP4 AND SWAP2 AND OR SWAP1 SSTORE JUMP JUMPDEST PUSH3 0xD38 PUSH3 0x12A3 JUMP JUMPDEST PUSH3 0xD44 PUSH1 0x0 PUSH3 0x12FF JUMP JUMPDEST JUMP JUMPDEST PUSH1 0x1 PUSH1 0x1 PUSH1 0xA0 SHL SUB DUP2 AND PUSH1 0x0 SWAP1 DUP2 MSTORE PUSH1 0x2 PUSH1 0x20 SWAP1 DUP2 MSTORE PUSH1 0x40 SWAP2 DUP3 SWAP1 KECCAK256 DUP1 SLOAD DUP4 MLOAD DUP2 DUP5 MUL DUP2 ADD DUP5 ADD SWAP1 SWAP5 MSTORE DUP1 DUP5 MSTORE PUSH1 0x60 SWAP4 SWAP3 DUP4 ADD DUP3 DUP3 DUP1 ISZERO PUSH3 0xDB2 JUMPI PUSH1 0x20 MUL DUP3 ADD SWAP2 SWAP1 PUSH1 0x0 MSTORE PUSH1 0x20 PUSH1 0x0 KECCAK256 SWAP1 JUMPDEST DUP2 SLOAD PUSH1 0x1 PUSH1 0x1 PUSH1 0xA0 SHL SUB AND DUP2 MSTORE PUSH1 0x1 SWAP1 SWAP2 ADD SWAP1 PUSH1 0x20 ADD DUP1 DUP4 GT PUSH3 0xD93 JUMPI JUMPDEST POP POP POP POP POP SWAP1 POP SWAP2 SWAP1 POP JUMP JUMPDEST PUSH3 0xDC8 PUSH3 0x12A3 JUMP JUMPDEST PUSH1 0x5 DUP1 SLOAD PUSH1 0x1 PUSH1 0x1 PUSH1 0xA0 SHL SUB NOT AND PUSH1 0x1 PUSH1 0x1 PUSH1 0xA0 SHL SUB SWAP3 SWAP1 SWAP3 AND SWAP2 SWAP1 SWAP2 OR SWAP1 SSTORE JUMP JUMPDEST PUSH3 0xDF4 PUSH3 0x12A3 JUMP JUMPDEST PUSH1 0x4 DUP1 SLOAD PUSH1 0x1 PUSH1 0x1 PUSH1 0xA0 SHL SUB NOT AND PUSH1 0x1 PUSH1 0x1 PUSH1 0xA0 SHL SUB SWAP3 SWAP1 SWAP3 AND SWAP2 SWAP1 SWAP2 OR SWAP1 SSTORE JUMP JUMPDEST PUSH1 0x0 DUP4 DUP4 DUP4 CALLER PUSH1 0x5 PUSH1 0x0 SWAP1 SLOAD SWAP1 PUSH2 0x100 EXP SWAP1 DIV PUSH1 0x1 PUSH1 0x1 PUSH1 0xA0 SHL SUB AND PUSH32 0x0 PUSH1 0x40 MLOAD PUSH3 0xE61 SWAP1 PUSH3 0x15D3 JUMP JUMPDEST PUSH3 0xE72 SWAP7 SWAP6 SWAP5 SWAP4 SWAP3 SWAP2 SWAP1 PUSH3 0x1980 JUMP JUMPDEST PUSH1 0x40 MLOAD DUP1 SWAP2 SUB SWAP1 PUSH1 0x0 CREATE DUP1 ISZERO DUP1 ISZERO PUSH3 0xE8F JUMPI RETURNDATASIZE PUSH1 0x0 DUP1 RETURNDATACOPY RETURNDATASIZE PUSH1 0x0 REVERT JUMPDEST POP PUSH1 0x1 DUP1 SLOAD DUP1 DUP3 ADD DUP3 SSTORE PUSH32 0xB10E2D527612073B26EECDFD717E6A320CF44B4AFAC2B0732D9FCBE2B7FA0CF6 ADD DUP1 SLOAD PUSH1 0x1 PUSH1 0x1 PUSH1 0xA0 SHL SUB DUP5 AND PUSH1 0x1 PUSH1 0x1 PUSH1 0xA0 SHL SUB NOT SWAP2 DUP3 AND DUP2 OR SWAP1 SWAP3 SSTORE CALLER PUSH1 0x0 DUP2 DUP2 MSTORE PUSH1 0x2 PUSH1 0x20 SWAP1 DUP2 MSTORE PUSH1 0x40 DUP1 DUP4 KECCAK256 DUP1 SLOAD SWAP8 DUP9 ADD DUP2 SSTORE DUP4 MSTORE DUP2 DUP4 KECCAK256 SWAP1 SWAP7 ADD DUP1 SLOAD SWAP1 SWAP5 AND DUP6 OR SWAP1 SWAP4 SSTORE DUP5 MLOAD PUSH1 0xC0 DUP2 ADD DUP7 MSTORE DUP11 DUP2 MSTORE DUP1 DUP5 ADD DUP11 SWAP1 MSTORE DUP1 DUP7 ADD DUP10 SWAP1 MSTORE PUSH1 0x60 DUP2 ADD SWAP3 SWAP1 SWAP3 MSTORE TIMESTAMP PUSH1 0x80 DUP4 ADD MSTORE PUSH1 0xA0 DUP3 ADD DUP2 SWAP1 MSTORE SWAP3 DUP4 MSTORE PUSH1 0x3 SWAP1 SWAP2 MSTORE SWAP2 SWAP1 KECCAK256 DUP2 MLOAD SWAP3 SWAP4 POP DUP4 SWAP3 DUP2 SWAP1 PUSH3 0xF4F SWAP1 DUP3 PUSH3 0x1A35 JUMP JUMPDEST POP PUSH1 0x20 DUP3 ADD MLOAD PUSH1 0x1 DUP3 ADD SWAP1 PUSH3 0xF66 SWAP1 DUP3 PUSH3 0x1A35 JUMP JUMPDEST POP PUSH1 0x40 DUP3 ADD MLOAD PUSH1 0x2 DUP3 ADD SWAP1 PUSH3 0xF7D SWAP1 DUP3 PUSH3 0x1A35 JUMP JUMPDEST POP PUSH1 0x60 DUP3 ADD MLOAD PUSH1 0x3 DUP3 ADD DUP1 SLOAD PUSH1 0x1 PUSH1 0x1 PUSH1 0xA0 SHL SUB NOT AND PUSH1 0x1 PUSH1 0x1 PUSH1 0xA0 SHL SUB SWAP3 DUP4 AND OR SWAP1 SSTORE PUSH1 0x80 DUP4 ADD MLOAD PUSH1 0x4 DUP4 ADD SSTORE PUSH1 0xA0 SWAP1 SWAP3 ADD MLOAD PUSH1 0x5 SWAP1 SWAP2 ADD SSTORE PUSH1 0x40 MLOAD CALLER SWAP2 DUP4 AND SWAP1 PUSH32 0x6596C1670EB3390048D23721809C3DA5D3F531375AC0E2CAB0F77A808ED64331 SWAP1 PUSH3 0xFF0 SWAP1 DUP10 SWAP1 DUP10 SWAP1 PUSH3 0x1B02 JUMP JUMPDEST PUSH1 0x40 MLOAD DUP1 SWAP2 SUB SWAP1 LOG3 POP POP POP POP POP JUMP JUMPDEST PUSH1 0x1 PUSH1 0x1 PUSH1 0xA0 SHL SUB DUP2 DUP2 AND PUSH1 0x0 SWAP1 DUP2 MSTORE PUSH1 0x3 PUSH1 0x20 DUP2 SWAP1 MSTORE PUSH1 0x40 DUP3 KECCAK256 ADD SLOAD SWAP1 SWAP2 DUP1 DUP6 AND SWAP2 AND SUB PUSH3 0x1032 JUMPI POP PUSH1 0x1 PUSH3 0x1110 JUMP JUMPDEST PUSH1 0x1 PUSH1 0x1 PUSH1 0xA0 SHL SUB DUP4 AND PUSH1 0x0 SWAP1 DUP2 MSTORE PUSH1 0x2 PUSH1 0x20 SWAP1 DUP2 MSTORE PUSH1 0x40 DUP1 DUP4 KECCAK256 DUP1 SLOAD DUP3 MLOAD DUP2 DUP6 MUL DUP2 ADD DUP6 ADD SWAP1 SWAP4 MSTORE DUP1 DUP4 MSTORE SWAP2 SWAP3 SWAP1 SWAP2 SWAP1 DUP4 ADD DUP3 DUP3 DUP1 ISZERO PUSH3 0x109E JUMPI PUSH1 0x20 MUL DUP3 ADD SWAP2 SWAP1 PUSH1 0x0 MSTORE PUSH1 0x20 PUSH1 0x0 KECCAK256 SWAP1 JUMPDEST DUP2 SLOAD PUSH1 0x1 PUSH1 0x1 PUSH1 0xA0 SHL SUB AND DUP2 MSTORE PUSH1 0x1 SWAP1 SWAP2 ADD SWAP1 PUSH1 0x20 ADD DUP1 DUP4 GT PUSH3 0x107F JUMPI JUMPDEST POP POP POP POP POP SWAP1 POP PUSH1 0x0 JUMPDEST DUP2 MLOAD DUP2 LT ISZERO PUSH3 0x1109 JUMPI DUP4 PUSH1 0x1 PUSH1 0x1 PUSH1 0xA0 SHL SUB AND DUP3 DUP3 DUP2 MLOAD DUP2 LT PUSH3 0x10D1 JUMPI PUSH3 0x10D1 PUSH3 0x1B34 JUMP JUMPDEST PUSH1 0x20 MUL PUSH1 0x20 ADD ADD MLOAD PUSH1 0x1 PUSH1 0x1 PUSH1 0xA0 SHL SUB AND SUB PUSH3 0x10F4 JUMPI PUSH1 0x1 SWAP3 POP POP POP PUSH3 0x1110 JUMP JUMPDEST DUP1 PUSH3 0x1100 DUP2 PUSH3 0x1B4A JUMP JUMPDEST SWAP2 POP POP PUSH3 0x10A8 JUMP JUMPDEST POP PUSH1 0x0 SWAP2 POP POP JUMPDEST SWAP3 SWAP2 POP POP JUMP JUMPDEST PUSH1 0x60 PUSH1 0xA DUP1 SLOAD DUP1 PUSH1 0x20 MUL PUSH1 0x20 ADD PUSH1 0x40 MLOAD SWAP1 DUP2 ADD PUSH1 0x40 MSTORE DUP1 SWAP3 SWAP2 SWAP1 DUP2 DUP2 MSTORE PUSH1 0x20 ADD DUP3 DUP1 SLOAD DUP1 ISZERO PUSH3 0xBB8 JUMPI PUSH1 0x20 MUL DUP3 ADD SWAP2 SWAP1 PUSH1 0x0 MSTORE PUSH1 0x20 PUSH1 0x0 KECCAK256 SWAP1 DUP2 SLOAD PUSH1 0x1 PUSH1 0x1 PUSH1 0xA0 SHL SUB AND DUP2 MSTORE PUSH1 0x1 SWAP1 SWAP2 ADD SWAP1 PUSH1 0x20 ADD DUP1 DUP4 GT PUSH3 0xB99 JUMPI POP POP POP POP POP SWAP1 POP SWAP1 JUMP JUMPDEST PUSH1 0x1 DUP2 DUP2 SLOAD DUP2 LT PUSH3 0x5DE JUMPI PUSH1 0x0 DUP1 REVERT JUMPDEST PUSH1 0x2 PUSH1 0x20 MSTORE DUP2 PUSH1 0x0 MSTORE PUSH1 0x40 PUSH1 0x0 KECCAK256 DUP2 DUP2 SLOAD DUP2 LT PUSH3 0x11A6 JUMPI PUSH1 0x0 DUP1 REVERT JUMPDEST PUSH1 0x0 SWAP2 DUP3 MSTORE PUSH1 0x20 SWAP1 SWAP2 KECCAK256 ADD SLOAD PUSH1 0x1 PUSH1 0x1 PUSH1 0xA0 SHL SUB AND SWAP2 POP DUP3 SWAP1 POP JUMP JUMPDEST PUSH3 0x11CC PUSH3 0x12A3 JUMP JUMPDEST PUSH1 0x1 PUSH1 0x1 PUSH1 0xA0 SHL SUB DUP2 AND PUSH3 0x1233 JUMPI PUSH1 0x40 MLOAD PUSH3 0x461BCD PUSH1 0xE5 SHL DUP2 MSTORE PUSH1 0x20 PUSH1 0x4 DUP3 ADD MSTORE PUSH1 0x26 PUSH1 0x24 DUP3 ADD MSTORE PUSH32 0x4F776E61626C653A206E6577206F776E657220697320746865207A65726F2061 PUSH1 0x44 DUP3 ADD MSTORE PUSH6 0x646472657373 PUSH1 0xD0 SHL PUSH1 0x64 DUP3 ADD MSTORE PUSH1 0x84 ADD PUSH3 0x563 JUMP JUMPDEST PUSH3 0x123E DUP2 PUSH3 0x12FF JUMP JUMPDEST POP JUMP JUMPDEST PUSH1 0x40 DUP1 MLOAD PUSH1 0x1 PUSH1 0x1 PUSH1 0xA0 SHL SUB DUP6 DUP2 AND PUSH1 0x24 DUP4 ADD MSTORE DUP5 AND PUSH1 0x44 DUP3 ADD MSTORE PUSH1 0x64 DUP1 DUP3 ADD DUP5 SWAP1 MSTORE DUP3 MLOAD DUP1 DUP4 SUB SWAP1 SWAP2 ADD DUP2 MSTORE PUSH1 0x84 SWAP1 SWAP2 ADD SWAP1 SWAP2 MSTORE PUSH1 0x20 DUP2 ADD DUP1 MLOAD PUSH1 0x1 PUSH1 0x1 PUSH1 0xE0 SHL SUB AND PUSH4 0x23B872DD PUSH1 0xE0 SHL OR SWAP1 MSTORE PUSH3 0x129D SWAP1 DUP6 SWAP1 PUSH3 0x134F JUMP JUMPDEST POP POP POP POP JUMP JUMPDEST PUSH1 0x0 SLOAD PUSH1 0x1 PUSH1 0x1 PUSH1 0xA0 SHL SUB AND CALLER EQ PUSH3 0xD44 JUMPI PUSH1 0x40 MLOAD PUSH3 0x461BCD PUSH1 0xE5 SHL DUP2 MSTORE PUSH1 0x20 PUSH1 0x4 DUP3 ADD DUP2 SWAP1 MSTORE PUSH1 0x24 DUP3 ADD MSTORE PUSH32 0x4F776E61626C653A2063616C6C6572206973206E6F7420746865206F776E6572 PUSH1 0x44 DUP3 ADD MSTORE PUSH1 0x64 ADD PUSH3 0x563 JUMP JUMPDEST PUSH1 0x0 DUP1 SLOAD PUSH1 0x1 PUSH1 0x1 PUSH1 0xA0 SHL SUB DUP4 DUP2 AND PUSH1 0x1 PUSH1 0x1 PUSH1 0xA0 SHL SUB NOT DUP4 AND DUP2 OR DUP5 SSTORE PUSH1 0x40 MLOAD SWAP2 SWAP1 SWAP3 AND SWAP3 DUP4 SWAP2 PUSH32 0x8BE0079C531659141344CD1FD0A4F28419497F9722A3DAAFE3B4186F6B6457E0 SWAP2 SWAP1 LOG3 POP POP JUMP JUMPDEST PUSH1 0x0 PUSH3 0x13A6 DUP3 PUSH1 0x40 MLOAD DUP1 PUSH1 0x40 ADD PUSH1 0x40 MSTORE DUP1 PUSH1 0x20 DUP2 MSTORE PUSH1 0x20 ADD PUSH32 0x5361666545524332303A206C6F772D6C6576656C2063616C6C206661696C6564 DUP2 MSTORE POP DUP6 PUSH1 0x1 PUSH1 0x1 PUSH1 0xA0 SHL SUB AND PUSH3 0x1430 SWAP1 SWAP3 SWAP2 SWAP1 PUSH4 0xFFFFFFFF AND JUMP JUMPDEST SWAP1 POP DUP1 MLOAD PUSH1 0x0 EQ DUP1 PUSH3 0x13CA JUMPI POP DUP1 DUP1 PUSH1 0x20 ADD SWAP1 MLOAD DUP2 ADD SWAP1 PUSH3 0x13CA SWAP2 SWAP1 PUSH3 0x1B72 JUMP JUMPDEST PUSH3 0x142B JUMPI PUSH1 0x40 MLOAD PUSH3 0x461BCD PUSH1 0xE5 SHL DUP2 MSTORE PUSH1 0x20 PUSH1 0x4 DUP3 ADD MSTORE PUSH1 0x2A PUSH1 0x24 DUP3 ADD MSTORE PUSH32 0x5361666545524332303A204552433230206F7065726174696F6E20646964206E PUSH1 0x44 DUP3 ADD MSTORE PUSH10 0x1BDD081CDD58D8D95959 PUSH1 0xB2 SHL PUSH1 0x64 DUP3 ADD MSTORE PUSH1 0x84 ADD PUSH3 0x563 JUMP JUMPDEST POP POP POP JUMP JUMPDEST PUSH1 0x60 PUSH3 0x1441 DUP5 DUP5 PUSH1 0x0 DUP6 PUSH3 0x1449 JUMP JUMPDEST SWAP5 SWAP4 POP POP POP POP JUMP JUMPDEST PUSH1 0x60 DUP3 SELFBALANCE LT ISZERO PUSH3 0x14AC JUMPI PUSH1 0x40 MLOAD PUSH3 0x461BCD PUSH1 0xE5 SHL DUP2 MSTORE PUSH1 0x20 PUSH1 0x4 DUP3 ADD MSTORE PUSH1 0x26 PUSH1 0x24 DUP3 ADD MSTORE PUSH32 0x416464726573733A20696E73756666696369656E742062616C616E636520666F PUSH1 0x44 DUP3 ADD MSTORE PUSH6 0x1C8818D85B1B PUSH1 0xD2 SHL PUSH1 0x64 DUP3 ADD MSTORE PUSH1 0x84 ADD PUSH3 0x563 JUMP JUMPDEST PUSH1 0x0 DUP1 DUP7 PUSH1 0x1 PUSH1 0x1 PUSH1 0xA0 SHL SUB AND DUP6 DUP8 PUSH1 0x40 MLOAD PUSH3 0x14CA SWAP2 SWAP1 PUSH3 0x1B96 JUMP JUMPDEST PUSH1 0x0 PUSH1 0x40 MLOAD DUP1 DUP4 SUB DUP2 DUP6 DUP8 GAS CALL SWAP3 POP POP POP RETURNDATASIZE DUP1 PUSH1 0x0 DUP2 EQ PUSH3 0x1509 JUMPI PUSH1 0x40 MLOAD SWAP2 POP PUSH1 0x1F NOT PUSH1 0x3F RETURNDATASIZE ADD AND DUP3 ADD PUSH1 0x40 MSTORE RETURNDATASIZE DUP3 MSTORE RETURNDATASIZE PUSH1 0x0 PUSH1 0x20 DUP5 ADD RETURNDATACOPY PUSH3 0x150E JUMP JUMPDEST PUSH1 0x60 SWAP2 POP JUMPDEST POP SWAP2 POP SWAP2 POP PUSH3 0x1521 DUP8 DUP4 DUP4 DUP8 PUSH3 0x152C JUMP JUMPDEST SWAP8 SWAP7 POP POP POP POP POP POP POP JUMP JUMPDEST PUSH1 0x60 DUP4 ISZERO PUSH3 0x15A0 JUMPI DUP3 MLOAD PUSH1 0x0 SUB PUSH3 0x1598 JUMPI PUSH1 0x1 PUSH1 0x1 PUSH1 0xA0 SHL SUB DUP6 AND EXTCODESIZE PUSH3 0x1598 JUMPI PUSH1 0x40 MLOAD PUSH3 0x461BCD PUSH1 0xE5 SHL DUP2 MSTORE PUSH1 0x20 PUSH1 0x4 DUP3 ADD MSTORE PUSH1 0x1D PUSH1 0x24 DUP3 ADD MSTORE PUSH32 0x416464726573733A2063616C6C20746F206E6F6E2D636F6E7472616374000000 PUSH1 0x44 DUP3 ADD MSTORE PUSH1 0x64 ADD PUSH3 0x563 JUMP JUMPDEST POP DUP2 PUSH3 0x1441 JUMP JUMPDEST PUSH3 0x1441 DUP4 DUP4 DUP2 MLOAD ISZERO PUSH3 0x15B7 JUMPI DUP2 MLOAD DUP1 DUP4 PUSH1 0x20 ADD REVERT JUMPDEST DUP1 PUSH1 0x40 MLOAD PUSH3 0x461BCD PUSH1 0xE5 SHL DUP2 MSTORE PUSH1 0x4 ADD PUSH3 0x563 SWAP2 SWAP1 PUSH3 0x1BB4 JUMP JUMPDEST PUSH2 0x2B0B DUP1 PUSH3 0x1BCA DUP4 CODECOPY ADD SWAP1 JUMP JUMPDEST PUSH1 0x1 PUSH1 0x1 PUSH1 0xA0 SHL SUB DUP2 AND DUP2 EQ PUSH3 0x123E JUMPI PUSH1 0x0 DUP1 REVERT JUMPDEST PUSH1 0x0 PUSH1 0x20 DUP3 DUP5 SUB SLT ISZERO PUSH3 0x160A JUMPI PUSH1 0x0 DUP1 REVERT JUMPDEST DUP2 CALLDATALOAD PUSH3 0x1617 DUP2 PUSH3 0x15E1 JUMP JUMPDEST SWAP4 SWAP3 POP POP POP JUMP JUMPDEST PUSH1 0x0 PUSH1 0x20 DUP3 DUP5 SUB SLT ISZERO PUSH3 0x1631 JUMPI PUSH1 0x0 DUP1 REVERT JUMPDEST POP CALLDATALOAD SWAP2 SWAP1 POP JUMP JUMPDEST PUSH1 0x0 DUP1 PUSH1 0x0 PUSH1 0x60 DUP5 DUP7 SUB SLT ISZERO PUSH3 0x164E JUMPI PUSH1 0x0 DUP1 REVERT JUMPDEST DUP4 CALLDATALOAD PUSH3 0x165B DUP2 PUSH3 0x15E1 JUMP JUMPDEST SWAP6 PUSH1 0x20 DUP6 ADD CALLDATALOAD SWAP6 POP PUSH1 0x40 SWAP1 SWAP5 ADD CALLDATALOAD SWAP4 SWAP3 POP POP POP JUMP JUMPDEST PUSH1 0x0 JUMPDEST DUP4 DUP2 LT ISZERO PUSH3 0x168D JUMPI DUP2 DUP2 ADD MLOAD DUP4 DUP3 ADD MSTORE PUSH1 0x20 ADD PUSH3 0x1673 JUMP JUMPDEST POP POP PUSH1 0x0 SWAP2 ADD MSTORE JUMP JUMPDEST PUSH1 0x0 DUP2 MLOAD DUP1 DUP5 MSTORE PUSH3 0x16B0 DUP2 PUSH1 0x20 DUP7 ADD PUSH1 0x20 DUP7 ADD PUSH3 0x1670 JUMP JUMPDEST PUSH1 0x1F ADD PUSH1 0x1F NOT AND SWAP3 SWAP1 SWAP3 ADD PUSH1 0x20 ADD SWAP3 SWAP2 POP POP JUMP JUMPDEST PUSH1 0xC0 DUP2 MSTORE PUSH1 0x0 PUSH3 0x16D9 PUSH1 0xC0 DUP4 ADD DUP10 PUSH3 0x1696 JUMP JUMPDEST DUP3 DUP2 SUB PUSH1 0x20 DUP5 ADD MSTORE PUSH3 0x16ED DUP2 DUP10 PUSH3 0x1696 JUMP JUMPDEST SWAP1 POP DUP3 DUP2 SUB PUSH1 0x40 DUP5 ADD MSTORE PUSH3 0x1703 DUP2 DUP9 PUSH3 0x1696 JUMP JUMPDEST PUSH1 0x1 PUSH1 0x1 PUSH1 0xA0 SHL SUB SWAP7 SWAP1 SWAP7 AND PUSH1 0x60 DUP5 ADD MSTORE POP POP PUSH1 0x80 DUP2 ADD SWAP3 SWAP1 SWAP3 MSTORE PUSH1 0xA0 SWAP1 SWAP2 ADD MSTORE SWAP4 SWAP3 POP POP POP JUMP JUMPDEST PUSH1 0x20 DUP1 DUP3 MSTORE DUP3 MLOAD DUP3 DUP3 ADD DUP2 SWAP1 MSTORE PUSH1 0x0 SWAP2 SWAP1 DUP5 DUP3 ADD SWAP1 PUSH1 0x40 DUP6 ADD SWAP1 DUP5 JUMPDEST DUP2 DUP2 LT ISZERO PUSH3 0x176E JUMPI DUP4 MLOAD PUSH1 0x1 PUSH1 0x1 PUSH1 0xA0 SHL SUB AND DUP4 MSTORE SWAP3 DUP5 ADD SWAP3 SWAP2 DUP5 ADD SWAP2 PUSH1 0x1 ADD PUSH3 0x1747 JUMP JUMPDEST POP SWAP1 SWAP7 SWAP6 POP POP POP POP POP POP JUMP JUMPDEST PUSH1 0x0 DUP1 PUSH1 0x40 DUP4 DUP6 SUB SLT ISZERO PUSH3 0x178E JUMPI PUSH1 0x0 DUP1 REVERT JUMPDEST DUP3 CALLDATALOAD PUSH3 0x179B DUP2 PUSH3 0x15E1 JUMP JUMPDEST SWAP5 PUSH1 0x20 SWAP4 SWAP1 SWAP4 ADD CALLDATALOAD SWAP4 POP POP POP JUMP JUMPDEST PUSH1 0x0 DUP1 PUSH1 0x40 DUP4 DUP6 SUB SLT ISZERO PUSH3 0x17BD JUMPI PUSH1 0x0 DUP1 REVERT JUMPDEST DUP3 CALLDATALOAD PUSH3 0x17CA DUP2 PUSH3 0x15E1 JUMP JUMPDEST SWAP2 POP PUSH1 0x20 DUP4 ADD CALLDATALOAD PUSH3 0x17DC DUP2 PUSH3 0x15E1 JUMP JUMPDEST DUP1 SWAP2 POP POP SWAP3 POP SWAP3 SWAP1 POP JUMP JUMPDEST PUSH4 0x4E487B71 PUSH1 0xE0 SHL PUSH1 0x0 MSTORE PUSH1 0x41 PUSH1 0x4 MSTORE PUSH1 0x24 PUSH1 0x0 REVERT JUMPDEST PUSH1 0x0 DUP3 PUSH1 0x1F DUP4 ADD SLT PUSH3 0x180F JUMPI PUSH1 0x0 DUP1 REVERT JUMPDEST DUP2 CALLDATALOAD PUSH8 0xFFFFFFFFFFFFFFFF DUP1 DUP3 GT ISZERO PUSH3 0x182D JUMPI PUSH3 0x182D PUSH3 0x17E7 JUMP JUMPDEST PUSH1 0x40 MLOAD PUSH1 0x1F DUP4 ADD PUSH1 0x1F NOT SWAP1 DUP2 AND PUSH1 0x3F ADD AND DUP2 ADD SWAP1 DUP3 DUP3 GT DUP2 DUP4 LT OR ISZERO PUSH3 0x1858 JUMPI PUSH3 0x1858 PUSH3 0x17E7 JUMP JUMPDEST DUP2 PUSH1 0x40 MSTORE DUP4 DUP2 MSTORE DUP7 PUSH1 0x20 DUP6 DUP9 ADD ADD GT ISZERO PUSH3 0x1872 JUMPI PUSH1 0x0 DUP1 REVERT JUMPDEST DUP4 PUSH1 0x20 DUP8 ADD PUSH1 0x20 DUP4 ADD CALLDATACOPY PUSH1 0x0 PUSH1 0x20 DUP6 DUP4 ADD ADD MSTORE DUP1 SWAP5 POP POP POP POP POP SWAP3 SWAP2 POP POP JUMP JUMPDEST PUSH1 0x0 DUP1 PUSH1 0x0 PUSH1 0x60 DUP5 DUP7 SUB SLT ISZERO PUSH3 0x18A8 JUMPI PUSH1 0x0 DUP1 REVERT JUMPDEST DUP4 CALLDATALOAD PUSH8 0xFFFFFFFFFFFFFFFF DUP1 DUP3 GT ISZERO PUSH3 0x18C1 JUMPI PUSH1 0x0 DUP1 REVERT JUMPDEST PUSH3 0x18CF DUP8 DUP4 DUP9 ADD PUSH3 0x17FD JUMP JUMPDEST SWAP5 POP PUSH1 0x20 DUP7 ADD CALLDATALOAD SWAP2 POP DUP1 DUP3 GT ISZERO PUSH3 0x18E6 JUMPI PUSH1 0x0 DUP1 REVERT JUMPDEST PUSH3 0x18F4 DUP8 DUP4 DUP9 ADD PUSH3 0x17FD JUMP JUMPDEST SWAP4 POP PUSH1 0x40 DUP7 ADD CALLDATALOAD SWAP2 POP DUP1 DUP3 GT ISZERO PUSH3 0x190B JUMPI PUSH1 0x0 DUP1 REVERT JUMPDEST POP PUSH3 0x191A DUP7 DUP3 DUP8 ADD PUSH3 0x17FD JUMP JUMPDEST SWAP2 POP POP SWAP3 POP SWAP3 POP SWAP3 JUMP JUMPDEST PUSH1 0x0 PUSH1 0x20 DUP3 DUP5 SUB SLT ISZERO PUSH3 0x1937 JUMPI PUSH1 0x0 DUP1 REVERT JUMPDEST DUP2 MLOAD PUSH3 0x1617 DUP2 PUSH3 0x15E1 JUMP JUMPDEST PUSH1 0x1 DUP2 DUP2 SHR SWAP1 DUP3 AND DUP1 PUSH3 0x1959 JUMPI PUSH1 0x7F DUP3 AND SWAP2 POP JUMPDEST PUSH1 0x20 DUP3 LT DUP2 SUB PUSH3 0x197A JUMPI PUSH4 0x4E487B71 PUSH1 0xE0 SHL PUSH1 0x0 MSTORE PUSH1 0x22 PUSH1 0x4 MSTORE PUSH1 0x24 PUSH1 0x0 REVERT JUMPDEST POP SWAP2 SWAP1 POP JUMP JUMPDEST PUSH1 0xC0 DUP2 MSTORE PUSH1 0x0 PUSH3 0x1995 PUSH1 0xC0 DUP4 ADD DUP10 PUSH3 0x1696 JUMP JUMPDEST DUP3 DUP2 SUB PUSH1 0x20 DUP5 ADD MSTORE PUSH3 0x19A9 DUP2 DUP10 PUSH3 0x1696 JUMP JUMPDEST SWAP1 POP DUP3 DUP2 SUB PUSH1 0x40 DUP5 ADD MSTORE PUSH3 0x19BF DUP2 DUP9 PUSH3 0x1696 JUMP JUMPDEST PUSH1 0x1 PUSH1 0x1 PUSH1 0xA0 SHL SUB SWAP7 DUP8 AND PUSH1 0x60 DUP6 ADD MSTORE SWAP5 DUP7 AND PUSH1 0x80 DUP5 ADD MSTORE POP POP SWAP3 AND PUSH1 0xA0 SWAP1 SWAP3 ADD SWAP2 SWAP1 SWAP2 MSTORE SWAP4 SWAP3 POP POP POP JUMP JUMPDEST PUSH1 0x1F DUP3 GT ISZERO PUSH3 0x142B JUMPI PUSH1 0x0 DUP2 DUP2 MSTORE PUSH1 0x20 DUP2 KECCAK256 PUSH1 0x1F DUP6 ADD PUSH1 0x5 SHR DUP2 ADD PUSH1 0x20 DUP7 LT ISZERO PUSH3 0x1A14 JUMPI POP DUP1 JUMPDEST PUSH1 0x1F DUP6 ADD PUSH1 0x5 SHR DUP3 ADD SWAP2 POP JUMPDEST DUP2 DUP2 LT ISZERO PUSH3 0xC90 JUMPI DUP3 DUP2 SSTORE PUSH1 0x1 ADD PUSH3 0x1A20 JUMP JUMPDEST DUP2 MLOAD PUSH8 0xFFFFFFFFFFFFFFFF DUP2 GT ISZERO PUSH3 0x1A52 JUMPI PUSH3 0x1A52 PUSH3 0x17E7 JUMP JUMPDEST PUSH3 0x1A6A DUP2 PUSH3 0x1A63 DUP5 SLOAD PUSH3 0x1944 JUMP JUMPDEST DUP5 PUSH3 0x19EB JUMP JUMPDEST PUSH1 0x20 DUP1 PUSH1 0x1F DUP4 GT PUSH1 0x1 DUP2 EQ PUSH3 0x1AA2 JUMPI PUSH1 0x0 DUP5 ISZERO PUSH3 0x1A89 JUMPI POP DUP6 DUP4 ADD MLOAD JUMPDEST PUSH1 0x0 NOT PUSH1 0x3 DUP7 SWAP1 SHL SHR NOT AND PUSH1 0x1 DUP6 SWAP1 SHL OR DUP6 SSTORE PUSH3 0xC90 JUMP JUMPDEST PUSH1 0x0 DUP6 DUP2 MSTORE PUSH1 0x20 DUP2 KECCAK256 PUSH1 0x1F NOT DUP7 AND SWAP2 JUMPDEST DUP3 DUP2 LT ISZERO PUSH3 0x1AD3 JUMPI DUP9 DUP7 ADD MLOAD DUP3 SSTORE SWAP5 DUP5 ADD SWAP5 PUSH1 0x1 SWAP1 SWAP2 ADD SWAP1 DUP5 ADD PUSH3 0x1AB2 JUMP JUMPDEST POP DUP6 DUP3 LT ISZERO PUSH3 0x1AF2 JUMPI DUP8 DUP6 ADD MLOAD PUSH1 0x0 NOT PUSH1 0x3 DUP9 SWAP1 SHL PUSH1 0xF8 AND SHR NOT AND DUP2 SSTORE JUMPDEST POP POP POP POP POP PUSH1 0x1 SWAP1 DUP2 SHL ADD SWAP1 SSTORE POP JUMP JUMPDEST PUSH1 0x40 DUP2 MSTORE PUSH1 0x0 PUSH3 0x1B17 PUSH1 0x40 DUP4 ADD DUP6 PUSH3 0x1696 JUMP JUMPDEST DUP3 DUP2 SUB PUSH1 0x20 DUP5 ADD MSTORE PUSH3 0x1B2B DUP2 DUP6 PUSH3 0x1696 JUMP JUMPDEST SWAP6 SWAP5 POP POP POP POP POP JUMP JUMPDEST PUSH4 0x4E487B71 PUSH1 0xE0 SHL PUSH1 0x0 MSTORE PUSH1 0x32 PUSH1 0x4 MSTORE PUSH1 0x24 PUSH1 0x0 REVERT JUMPDEST PUSH1 0x0 PUSH1 0x1 DUP3 ADD PUSH3 0x1B6B JUMPI PUSH4 0x4E487B71 PUSH1 0xE0 SHL PUSH1 0x0 MSTORE PUSH1 0x11 PUSH1 0x4 MSTORE PUSH1 0x24 PUSH1 0x0 REVERT JUMPDEST POP PUSH1 0x1 ADD SWAP1 JUMP JUMPDEST PUSH1 0x0 PUSH1 0x20 DUP3 DUP5 SUB SLT ISZERO PUSH3 0x1B85 JUMPI PUSH1 0x0 DUP1 REVERT JUMPDEST DUP2 MLOAD DUP1 ISZERO ISZERO DUP2 EQ PUSH3 0x1617 JUMPI PUSH1 0x0 DUP1 REVERT JUMPDEST PUSH1 0x0 DUP3 MLOAD PUSH3 0x1BAA DUP2 DUP5 PUSH1 0x20 DUP8 ADD PUSH3 0x1670 JUMP JUMPDEST SWAP2 SWAP1 SWAP2 ADD SWAP3 SWAP2 POP POP JUMP JUMPDEST PUSH1 0x20 DUP2 MSTORE PUSH1 0x0 PUSH3 0x1617 PUSH1 0x20 DUP4 ADD DUP5 PUSH3 0x1696 JUMP INVALID PUSH2 0x140 PUSH1 0x40 MSTORE PUSH1 0xC8 PUSH1 0xA0 SWAP1 DUP2 MSTORE PUSH2 0x190 PUSH1 0xC0 MSTORE PUSH2 0x258 PUSH1 0xE0 MSTORE PUSH2 0x320 PUSH2 0x100 MSTORE PUSH2 0x3E8 PUSH2 0x120 MSTORE PUSH3 0x36 SWAP1 PUSH1 0xC SWAP1 PUSH1 0x5 PUSH3 0x220 JUMP JUMPDEST POP PUSH1 0x40 DUP1 MLOAD PUSH1 0xA0 DUP2 ADD DUP3 MSTORE PUSH2 0x1F4 DUP2 MSTORE PUSH2 0x3E8 PUSH1 0x20 DUP3 ADD MSTORE PUSH2 0x7D0 SWAP2 DUP2 ADD SWAP2 SWAP1 SWAP2 MSTORE PUSH2 0xBB8 PUSH1 0x60 DUP3 ADD MSTORE PUSH2 0xDAC PUSH1 0x80 DUP3 ADD MSTORE PUSH3 0x78 SWAP1 PUSH1 0xD SWAP1 PUSH1 0x5 PUSH3 0x220 JUMP JUMPDEST POP PUSH1 0x0 PUSH1 0xF DUP2 SWAP1 SSTORE PUSH1 0x12 SSTORE PUSH1 0x13 DUP1 SLOAD PUSH2 0xFFFF PUSH1 0xA0 SHL NOT AND PUSH1 0x1 PUSH1 0xA8 SHL OR SWAP1 SSTORE CALLVALUE DUP1 ISZERO PUSH3 0xA4 JUMPI PUSH1 0x0 DUP1 REVERT JUMPDEST POP PUSH1 0x40 MLOAD PUSH3 0x2B0B CODESIZE SUB DUP1 PUSH3 0x2B0B DUP4 CODECOPY DUP2 ADD PUSH1 0x40 DUP2 SWAP1 MSTORE PUSH3 0xC7 SWAP2 PUSH3 0x36F JUMP JUMPDEST DUP6 DUP6 PUSH1 0x3 PUSH3 0xD7 DUP4 DUP3 PUSH3 0x4C6 JUMP JUMPDEST POP PUSH1 0x4 PUSH3 0xE6 DUP3 DUP3 PUSH3 0x4C6 JUMP JUMPDEST POP POP POP PUSH3 0x103 PUSH3 0xFD PUSH3 0x1CA PUSH1 0x20 SHL PUSH1 0x20 SHR JUMP JUMPDEST PUSH3 0x1CE JUMP JUMPDEST PUSH1 0x1 PUSH1 0x6 SSTORE PUSH1 0x7 PUSH3 0x116 DUP6 DUP3 PUSH3 0x4C6 JUMP JUMPDEST POP PUSH1 0x8 DUP1 SLOAD PUSH1 0x1 PUSH1 0x1 PUSH1 0xA0 SHL SUB NOT SWAP1 DUP2 AND CALLER OR SWAP1 SWAP2 SSTORE PUSH1 0x13 DUP1 SLOAD PUSH1 0x1 PUSH1 0x1 PUSH1 0xA0 SHL SUB DUP6 DUP2 AND SWAP2 SWAP1 SWAP4 AND OR SWAP1 SSTORE DUP2 AND PUSH1 0x80 MSTORE PUSH3 0x155 PUSH1 0x12 PUSH1 0xA PUSH3 0x6A7 JUMP JUMPDEST PUSH3 0x164 SWAP1 PUSH3 0x186A0 PUSH3 0x6BF JUMP JUMPDEST PUSH1 0x9 DUP2 SWAP1 SSTORE PUSH12 0x61A73C7CC33DE0C3DE00000 PUSH1 0xA DUP2 SWAP1 SSTORE PUSH3 0x186 SWAP2 PUSH3 0x6BF JUMP JUMPDEST PUSH1 0xB SSTORE PUSH1 0x64 PUSH3 0x1A4 PUSH1 0x5 PUSH12 0x61A73C7CC33DE0C3DE00000 PUSH3 0x6BF JUMP JUMPDEST PUSH3 0x1B0 SWAP2 SWAP1 PUSH3 0x6D9 JUMP JUMPDEST PUSH1 0xE SSTORE PUSH3 0x1BE DUP4 PUSH3 0x1CE JUMP JUMPDEST POP POP POP POP POP POP PUSH3 0x6FC JUMP JUMPDEST CALLER SWAP1 JUMP JUMPDEST PUSH1 0x5 DUP1 SLOAD PUSH1 0x1 PUSH1 0x1 PUSH1 0xA0 SHL SUB DUP4 DUP2 AND PUSH1 0x1 PUSH1 0x1 PUSH1 0xA0 SHL SUB NOT DUP4 AND DUP2 OR SWAP1 SWAP4 SSTORE PUSH1 0x40 MLOAD SWAP2 AND SWAP2 SWAP1 DUP3 SWAP1 PUSH32 0x8BE0079C531659141344CD1FD0A4F28419497F9722A3DAAFE3B4186F6B6457E0 SWAP1 PUSH1 0x0 SWAP1 LOG3 POP POP JUMP JUMPDEST DUP3 DUP1 SLOAD DUP3 DUP3 SSTORE SWAP1 PUSH1 0x0 MSTORE PUSH1 0x20 PUSH1 0x0 KECCAK256 SWAP1 DUP2 ADD SWAP3 DUP3 ISZERO PUSH3 0x264 JUMPI SWAP2 PUSH1 0x20 MUL DUP3 ADD JUMPDEST DUP3 DUP2 GT ISZERO PUSH3 0x264 JUMPI DUP3 MLOAD DUP3 SWAP1 PUSH2 0xFFFF AND SWAP1 SSTORE SWAP2 PUSH1 0x20 ADD SWAP2 SWAP1 PUSH1 0x1 ADD SWAP1 PUSH3 0x241 JUMP JUMPDEST POP PUSH3 0x272 SWAP3 SWAP2 POP PUSH3 0x276 JUMP JUMPDEST POP SWAP1 JUMP JUMPDEST JUMPDEST DUP1 DUP3 GT ISZERO PUSH3 0x272 JUMPI PUSH1 0x0 DUP2 SSTORE PUSH1 0x1 ADD PUSH3 0x277 JUMP JUMPDEST PUSH4 0x4E487B71 PUSH1 0xE0 SHL PUSH1 0x0 MSTORE PUSH1 0x41 PUSH1 0x4 MSTORE PUSH1 0x24 PUSH1 0x0 REVERT JUMPDEST PUSH1 0x0 DUP3 PUSH1 0x1F DUP4 ADD SLT PUSH3 0x2B5 JUMPI PUSH1 0x0 DUP1 REVERT JUMPDEST DUP2 MLOAD PUSH1 0x1 PUSH1 0x1 PUSH1 0x40 SHL SUB DUP1 DUP3 GT ISZERO PUSH3 0x2D2 JUMPI PUSH3 0x2D2 PUSH3 0x28D JUMP JUMPDEST PUSH1 0x40 MLOAD PUSH1 0x1F DUP4 ADD PUSH1 0x1F NOT SWAP1 DUP2 AND PUSH1 0x3F ADD AND DUP2 ADD SWAP1 DUP3 DUP3 GT DUP2 DUP4 LT OR ISZERO PUSH3 0x2FD JUMPI PUSH3 0x2FD PUSH3 0x28D JUMP JUMPDEST DUP2 PUSH1 0x40 MSTORE DUP4 DUP2 MSTORE PUSH1 0x20 SWAP3 POP DUP7 DUP4 DUP6 DUP9 ADD ADD GT ISZERO PUSH3 0x31A JUMPI PUSH1 0x0 DUP1 REVERT JUMPDEST PUSH1 0x0 SWAP2 POP JUMPDEST DUP4 DUP3 LT ISZERO PUSH3 0x33E JUMPI DUP6 DUP3 ADD DUP4 ADD MLOAD DUP2 DUP4 ADD DUP5 ADD MSTORE SWAP1 DUP3 ADD SWAP1 PUSH3 0x31F JUMP JUMPDEST PUSH1 0x0 SWAP4 DUP2 ADD SWAP1 SWAP3 ADD SWAP3 SWAP1 SWAP3 MSTORE SWAP5 SWAP4 POP POP POP POP JUMP JUMPDEST DUP1 MLOAD PUSH1 0x1 PUSH1 0x1 PUSH1 0xA0 SHL SUB DUP2 AND DUP2 EQ PUSH3 0x36A JUMPI PUSH1 0x0 DUP1 REVERT JUMPDEST SWAP2 SWAP1 POP JUMP JUMPDEST PUSH1 0x0 DUP1 PUSH1 0x0 DUP1 PUSH1 0x0 DUP1 PUSH1 0xC0 DUP8 DUP10 SUB SLT ISZERO PUSH3 0x389 JUMPI PUSH1 0x0 DUP1 REVERT JUMPDEST DUP7 MLOAD PUSH1 0x1 PUSH1 0x1 PUSH1 0x40 SHL SUB DUP1 DUP3 GT ISZERO PUSH3 0x3A1 JUMPI PUSH1 0x0 DUP1 REVERT JUMPDEST PUSH3 0x3AF DUP11 DUP4 DUP12 ADD PUSH3 0x2A3 JUMP JUMPDEST SWAP8 POP PUSH1 0x20 DUP10 ADD MLOAD SWAP2 POP DUP1 DUP3 GT ISZERO PUSH3 0x3C6 JUMPI PUSH1 0x0 DUP1 REVERT JUMPDEST PUSH3 0x3D4 DUP11 DUP4 DUP12 ADD PUSH3 0x2A3 JUMP JUMPDEST SWAP7 POP PUSH1 0x40 DUP10 ADD MLOAD SWAP2 POP DUP1 DUP3 GT ISZERO PUSH3 0x3EB JUMPI PUSH1 0x0 DUP1 REVERT JUMPDEST POP PUSH3 0x3FA DUP10 DUP3 DUP11 ADD PUSH3 0x2A3 JUMP JUMPDEST SWAP5 POP POP PUSH3 0x40B PUSH1 0x60 DUP9 ADD PUSH3 0x352 JUMP JUMPDEST SWAP3 POP PUSH3 0x41B PUSH1 0x80 DUP9 ADD PUSH3 0x352 JUMP JUMPDEST SWAP2 POP PUSH3 0x42B PUSH1 0xA0 DUP9 ADD PUSH3 0x352 JUMP JUMPDEST SWAP1 POP SWAP3 SWAP6 POP SWAP3 SWAP6 POP SWAP3 SWAP6 JUMP JUMPDEST PUSH1 0x1 DUP2 DUP2 SHR SWAP1 DUP3 AND DUP1 PUSH3 0x44C JUMPI PUSH1 0x7F DUP3 AND SWAP2 POP JUMPDEST PUSH1 0x20 DUP3 LT DUP2 SUB PUSH3 0x46D JUMPI PUSH4 0x4E487B71 PUSH1 0xE0 SHL PUSH1 0x0 MSTORE PUSH1 0x22 PUSH1 0x4 MSTORE PUSH1 0x24 PUSH1 0x0 REVERT JUMPDEST POP SWAP2 SWAP1 POP JUMP JUMPDEST PUSH1 0x1F DUP3 GT ISZERO PUSH3 0x4C1 JUMPI PUSH1 0x0 DUP2 DUP2 MSTORE PUSH1 0x20 DUP2 KECCAK256 PUSH1 0x1F DUP6 ADD PUSH1 0x5 SHR DUP2 ADD PUSH1 0x20 DUP7 LT ISZERO PUSH3 0x49C JUMPI POP DUP1 JUMPDEST PUSH1 0x1F DUP6 ADD PUSH1 0x5 SHR DUP3 ADD SWAP2 POP JUMPDEST DUP2 DUP2 LT ISZERO PUSH3 0x4BD JUMPI DUP3 DUP2 SSTORE PUSH1 0x1 ADD PUSH3 0x4A8 JUMP JUMPDEST POP POP POP JUMPDEST POP POP POP JUMP JUMPDEST DUP2 MLOAD PUSH1 0x1 PUSH1 0x1 PUSH1 0x40 SHL SUB DUP2 GT ISZERO PUSH3 0x4E2 JUMPI PUSH3 0x4E2 PUSH3 0x28D JUMP JUMPDEST PUSH3 0x4FA DUP2 PUSH3 0x4F3 DUP5 SLOAD PUSH3 0x437 JUMP JUMPDEST DUP5 PUSH3 0x473 JUMP JUMPDEST PUSH1 0x20 DUP1 PUSH1 0x1F DUP4 GT PUSH1 0x1 DUP2 EQ PUSH3 0x532 JUMPI PUSH1 0x0 DUP5 ISZERO PUSH3 0x519 JUMPI POP DUP6 DUP4 ADD MLOAD JUMPDEST PUSH1 0x0 NOT PUSH1 0x3 DUP7 SWAP1 SHL SHR NOT AND PUSH1 0x1 DUP6 SWAP1 SHL OR DUP6 SSTORE PUSH3 0x4BD JUMP JUMPDEST PUSH1 0x0 DUP6 DUP2 MSTORE PUSH1 0x20 DUP2 KECCAK256 PUSH1 0x1F NOT DUP7 AND SWAP2 JUMPDEST DUP3 DUP2 LT ISZERO PUSH3 0x563 JUMPI DUP9 DUP7 ADD MLOAD DUP3 SSTORE SWAP5 DUP5 ADD SWAP5 PUSH1 0x1 SWAP1 SWAP2 ADD SWAP1 DUP5 ADD PUSH3 0x542 JUMP JUMPDEST POP DUP6 DUP3 LT ISZERO PUSH3 0x582 JUMPI DUP8 DUP6 ADD MLOAD PUSH1 0x0 NOT PUSH1 0x3 DUP9 SWAP1 SHL PUSH1 0xF8 AND SHR NOT AND DUP2 SSTORE JUMPDEST POP POP POP POP POP PUSH1 0x1 SWAP1 DUP2 SHL ADD SWAP1 SSTORE POP JUMP JUMPDEST PUSH4 0x4E487B71 PUSH1 0xE0 SHL PUSH1 0x0 MSTORE PUSH1 0x11 PUSH1 0x4 MSTORE PUSH1 0x24 PUSH1 0x0 REVERT JUMPDEST PUSH1 0x1 DUP2 DUP2 JUMPDEST DUP1 DUP6 GT ISZERO PUSH3 0x5E9 JUMPI DUP2 PUSH1 0x0 NOT DIV DUP3 GT ISZERO PUSH3 0x5CD JUMPI PUSH3 0x5CD PUSH3 0x592 JUMP JUMPDEST DUP1 DUP6 AND ISZERO PUSH3 0x5DB JUMPI SWAP2 DUP2 MUL SWAP2 JUMPDEST SWAP4 DUP5 SHR SWAP4 SWAP1 DUP1 MUL SWAP1 PUSH3 0x5AD JUMP JUMPDEST POP SWAP3 POP SWAP3 SWAP1 POP JUMP JUMPDEST PUSH1 0x0 DUP3 PUSH3 0x602 JUMPI POP PUSH1 0x1 PUSH3 0x6A1 JUMP JUMPDEST DUP2 PUSH3 0x611 JUMPI POP PUSH1 0x0 PUSH3 0x6A1 JUMP JUMPDEST DUP2 PUSH1 0x1 DUP2 EQ PUSH3 0x62A JUMPI PUSH1 0x2 DUP2 EQ PUSH3 0x635 JUMPI PUSH3 0x655 JUMP JUMPDEST PUSH1 0x1 SWAP2 POP POP PUSH3 0x6A1 JUMP JUMPDEST PUSH1 0xFF DUP5 GT ISZERO PUSH3 0x649 JUMPI PUSH3 0x649 PUSH3 0x592 JUMP JUMPDEST POP POP PUSH1 0x1 DUP3 SHL PUSH3 0x6A1 JUMP JUMPDEST POP PUSH1 0x20 DUP4 LT PUSH2 0x133 DUP4 LT AND PUSH1 0x4E DUP5 LT PUSH1 0xB DUP5 LT AND OR ISZERO PUSH3 0x67A JUMPI POP DUP2 DUP2 EXP PUSH3 0x6A1 JUMP JUMPDEST PUSH3 0x686 DUP4 DUP4 PUSH3 0x5A8 JUMP JUMPDEST DUP1 PUSH1 0x0 NOT DIV DUP3 GT ISZERO PUSH3 0x69D JUMPI PUSH3 0x69D PUSH3 0x592 JUMP JUMPDEST MUL SWAP1 POP JUMPDEST SWAP3 SWAP2 POP POP JUMP JUMPDEST PUSH1 0x0 PUSH3 0x6B8 PUSH1 0xFF DUP5 AND DUP4 PUSH3 0x5F1 JUMP JUMPDEST SWAP4 SWAP3 POP POP POP JUMP JUMPDEST DUP1 DUP3 MUL DUP2 ISZERO DUP3 DUP3 DIV DUP5 EQ OR PUSH3 0x6A1 JUMPI PUSH3 0x6A1 PUSH3 0x592 JUMP JUMPDEST PUSH1 0x0 DUP3 PUSH3 0x6F7 JUMPI PUSH4 0x4E487B71 PUSH1 0xE0 SHL PUSH1 0x0 MSTORE PUSH1 0x12 PUSH1 0x4 MSTORE PUSH1 0x24 PUSH1 0x0 REVERT JUMPDEST POP DIV SWAP1 JUMP JUMPDEST PUSH1 0x80 MLOAD PUSH2 0x23C9 PUSH3 0x742 PUSH1 0x0 CODECOPY PUSH1 0x0 DUP2 DUP2 PUSH2 0x5AF ADD MSTORE DUP2 DUP2 PUSH2 0xDFF ADD MSTORE DUP2 DUP2 PUSH2 0xF60 ADD MSTORE DUP2 DUP2 PUSH2 0x1179 ADD MSTORE DUP2 DUP2 PUSH2 0x11B8 ADD MSTORE DUP2 DUP2 PUSH2 0x1440 ADD MSTORE PUSH2 0x147E ADD MSTORE PUSH2 0x23C9 PUSH1 0x0 RETURN INVALID PUSH1 0x80 PUSH1 0x40 MSTORE CALLVALUE DUP1 ISZERO PUSH2 0x10 JUMPI PUSH1 0x0 DUP1 REVERT JUMPDEST POP PUSH1 0x4 CALLDATASIZE LT PUSH2 0x2D6 JUMPI PUSH1 0x0 CALLDATALOAD PUSH1 0xE0 SHR DUP1 PUSH4 0x8DA5CB5B GT PUSH2 0x182 JUMPI DUP1 PUSH4 0xAAF5EB68 GT PUSH2 0xE9 JUMPI DUP1 PUSH4 0xD96A094A GT PUSH2 0xA2 JUMPI DUP1 PUSH4 0xEB91D37E GT PUSH2 0x7C JUMPI DUP1 PUSH4 0xEB91D37E EQ PUSH2 0x61C JUMPI DUP1 PUSH4 0xEF2CFD1A EQ PUSH2 0x624 JUMPI DUP1 PUSH4 0xF2FDE38B EQ PUSH2 0x62C JUMPI DUP1 PUSH4 0xF6CBB4D4 EQ PUSH2 0x63F JUMPI PUSH1 0x0 DUP1 REVERT JUMPDEST DUP1 PUSH4 0xD96A094A EQ PUSH2 0x5E3 JUMPI DUP1 PUSH4 0xDD62ED3E EQ PUSH2 0x5F6 JUMPI DUP1 PUSH4 0xE4849B32 EQ PUSH2 0x609 JUMPI PUSH1 0x0 DUP1 REVERT JUMPDEST DUP1 PUSH4 0xAAF5EB68 EQ PUSH2 0x57F JUMPI DUP1 PUSH4 0xB4F40C61 EQ PUSH2 0x58E JUMPI DUP1 PUSH4 0xC45A0155 EQ PUSH2 0x597 JUMPI DUP1 PUSH4 0xC54E44EB EQ PUSH2 0x5AA JUMPI DUP1 PUSH4 0xD3618CCA EQ PUSH2 0x5D1 JUMPI DUP1 PUSH4 0xD73792A9 EQ PUSH2 0x5D9 JUMPI PUSH1 0x0 DUP1 REVERT JUMPDEST DUP1 PUSH4 0x9EEF3C35 GT PUSH2 0x13B JUMPI DUP1 PUSH4 0x9EEF3C35 EQ PUSH2 0x51C JUMPI DUP1 PUSH4 0xA34C00AE EQ PUSH2 0x525 JUMPI DUP1 PUSH4 0xA3B25877 EQ PUSH2 0x538 JUMPI DUP1 PUSH4 0xA457C2D7 EQ PUSH2 0x546 JUMPI DUP1 PUSH4 0xA6B02BC3 EQ PUSH2 0x559 JUMPI DUP1 PUSH4 0xA9059CBB EQ PUSH2 0x56C JUMPI PUSH1 0x0 DUP1 REVERT JUMPDEST DUP1 PUSH4 0x8DA5CB5B EQ PUSH2 0x4CB JUMPI DUP1 PUSH4 0x90825C28 EQ PUSH2 0x4DC JUMPI DUP1 PUSH4 0x95D89B41 EQ PUSH2 0x4E4 JUMPI DUP1 PUSH4 0x98A1447E EQ PUSH2 0x4EC JUMPI DUP1 PUSH4 0x99A5D747 EQ PUSH2 0x4F5 JUMPI DUP1 PUSH4 0x9E5F2602 EQ PUSH2 0x508 JUMPI PUSH1 0x0 DUP1 REVERT JUMPDEST DUP1 PUSH4 0x313CE567 GT PUSH2 0x241 JUMPI DUP1 PUSH4 0x58E5C3FB GT PUSH2 0x1FA JUMPI DUP1 PUSH4 0x70A08231 GT PUSH2 0x1D4 JUMPI DUP1 PUSH4 0x70A08231 EQ PUSH2 0x47F JUMPI DUP1 PUSH4 0x715018A6 EQ PUSH2 0x4A8 JUMPI DUP1 PUSH4 0x7284E416 EQ PUSH2 0x4B0 JUMPI DUP1 PUSH4 0x798C87CE EQ PUSH2 0x4B8 JUMPI PUSH1 0x0 DUP1 REVERT JUMPDEST DUP1 PUSH4 0x58E5C3FB EQ PUSH2 0x451 JUMPI DUP1 PUSH4 0x61D027B3 EQ PUSH2 0x459 JUMPI DUP1 PUSH4 0x69FCD4AC EQ PUSH2 0x46C JUMPI PUSH1 0x0 DUP1 REVERT JUMPDEST DUP1 PUSH4 0x313CE567 EQ PUSH2 0x406 JUMPI DUP1 PUSH4 0x39509351 EQ PUSH2 0x41B JUMPI DUP1 PUSH4 0x4B50640F EQ PUSH2 0x42E JUMPI DUP1 PUSH4 0x4BAD9510 EQ PUSH2 0x436 JUMPI DUP1 PUSH4 0x54354629 EQ PUSH2 0x43F JUMPI DUP1 PUSH4 0x54CAD973 EQ PUSH2 0x448 JUMPI PUSH1 0x0 DUP1 REVERT JUMPDEST DUP1 PUSH4 0x18160DDD GT PUSH2 0x293 JUMPI DUP1 PUSH4 0x18160DDD EQ PUSH2 0x390 JUMPI DUP1 PUSH4 0x1B1158AB EQ PUSH2 0x398 JUMPI DUP1 PUSH4 0x1D3D97E1 EQ PUSH2 0x3AB JUMPI DUP1 PUSH4 0x23B872DD EQ PUSH2 0x3C0 JUMPI DUP1 PUSH4 0x26991CC8 EQ PUSH2 0x3D3 JUMPI DUP1 PUSH4 0x2D11C58A EQ PUSH2 0x3FE JUMPI PUSH1 0x0 DUP1 REVERT JUMPDEST DUP1 PUSH4 0x5F9C597 EQ PUSH2 0x2DB JUMPI DUP1 PUSH4 0x64A59D0 EQ PUSH2 0x313 JUMPI DUP1 PUSH4 0x6FDDE03 EQ PUSH2 0x327 JUMPI DUP1 PUSH4 0x95EA7B3 EQ PUSH2 0x33C JUMPI DUP1 PUSH4 0xFBDC42E EQ PUSH2 0x34F JUMPI DUP1 PUSH4 0x15DB9171 EQ PUSH2 0x37D JUMPI JUMPDEST PUSH1 0x0 DUP1 REVERT JUMPDEST PUSH2 0x2FE PUSH2 0x2E9 CALLDATASIZE PUSH1 0x4 PUSH2 0x1FBE JUMP JUMPDEST PUSH1 0x10 PUSH1 0x20 MSTORE PUSH1 0x0 SWAP1 DUP2 MSTORE PUSH1 0x40 SWAP1 KECCAK256 SLOAD PUSH1 0xFF AND DUP2 JUMP JUMPDEST PUSH1 0x40 MLOAD SWAP1 ISZERO ISZERO DUP2 MSTORE PUSH1 0x20 ADD JUMPDEST PUSH1 0x40 MLOAD DUP1 SWAP2 SUB SWAP1 RETURN JUMPDEST PUSH1 0x13 SLOAD PUSH2 0x2FE SWAP1 PUSH1 0x1 PUSH1 0xA8 SHL SWAP1 DIV PUSH1 0xFF AND DUP2 JUMP JUMPDEST PUSH2 0x32F PUSH2 0x647 JUMP JUMPDEST PUSH1 0x40 MLOAD PUSH2 0x30A SWAP2 SWAP1 PUSH2 0x1FFB JUMP JUMPDEST PUSH2 0x2FE PUSH2 0x34A CALLDATASIZE PUSH1 0x4 PUSH2 0x2043 JUMP JUMPDEST PUSH2 0x6D9 JUMP JUMPDEST PUSH2 0x36F PUSH2 0x35D CALLDATASIZE PUSH1 0x4 PUSH2 0x1FBE JUMP JUMPDEST PUSH1 0x11 PUSH1 0x20 MSTORE PUSH1 0x0 SWAP1 DUP2 MSTORE PUSH1 0x40 SWAP1 KECCAK256 SLOAD DUP2 JUMP JUMPDEST PUSH1 0x40 MLOAD SWAP1 DUP2 MSTORE PUSH1 0x20 ADD PUSH2 0x30A JUMP JUMPDEST PUSH2 0x36F PUSH2 0x38B CALLDATASIZE PUSH1 0x4 PUSH2 0x1FBE JUMP JUMPDEST PUSH2 0x6F3 JUMP JUMPDEST PUSH1 0x2 SLOAD PUSH2 0x36F JUMP JUMPDEST PUSH2 0x36F PUSH12 0x61A73C7CC33DE0C3DE00000 DUP2 JUMP JUMPDEST PUSH2 0x3BE PUSH2 0x3B9 CALLDATASIZE PUSH1 0x4 PUSH2 0x1FBE JUMP JUMPDEST PUSH2 0x714 JUMP JUMPDEST STOP JUMPDEST PUSH2 0x2FE PUSH2 0x3CE CALLDATASIZE PUSH1 0x4 PUSH2 0x206F JUMP JUMPDEST PUSH2 0x818 JUMP JUMPDEST PUSH1 0x14 SLOAD PUSH2 0x3E6 SWAP1 PUSH1 0x1 PUSH1 0x1 PUSH1 0xA0 SHL SUB AND DUP2 JUMP JUMPDEST PUSH1 0x40 MLOAD PUSH1 0x1 PUSH1 0x1 PUSH1 0xA0 SHL SUB SWAP1 SWAP2 AND DUP2 MSTORE PUSH1 0x20 ADD PUSH2 0x30A JUMP JUMPDEST PUSH2 0x36F PUSH1 0x64 DUP2 JUMP JUMPDEST PUSH1 0x12 JUMPDEST PUSH1 0x40 MLOAD PUSH1 0xFF SWAP1 SWAP2 AND DUP2 MSTORE PUSH1 0x20 ADD PUSH2 0x30A JUMP JUMPDEST PUSH2 0x2FE PUSH2 0x429 CALLDATASIZE PUSH1 0x4 PUSH2 0x2043 JUMP JUMPDEST PUSH2 0x83C JUMP JUMPDEST PUSH2 0x3BE PUSH2 0x85E JUMP JUMPDEST PUSH2 0x36F PUSH1 0xA SLOAD DUP2 JUMP JUMPDEST PUSH2 0x36F PUSH1 0xE SLOAD DUP2 JUMP JUMPDEST PUSH2 0x36F PUSH1 0xF SLOAD DUP2 JUMP JUMPDEST PUSH2 0x36F PUSH1 0x5 DUP2 JUMP JUMPDEST PUSH1 0x13 SLOAD PUSH2 0x3E6 SWAP1 PUSH1 0x1 PUSH1 0x1 PUSH1 0xA0 SHL SUB AND DUP2 JUMP JUMPDEST PUSH2 0x36F PUSH2 0x47A CALLDATASIZE PUSH1 0x4 PUSH2 0x1FBE JUMP JUMPDEST PUSH2 0x957 JUMP JUMPDEST PUSH2 0x36F PUSH2 0x48D CALLDATASIZE PUSH1 0x4 PUSH2 0x20B0 JUMP JUMPDEST PUSH1 0x1 PUSH1 0x1 PUSH1 0xA0 SHL SUB AND PUSH1 0x0 SWAP1 DUP2 MSTORE PUSH1 0x20 DUP2 SWAP1 MSTORE PUSH1 0x40 SWAP1 KECCAK256 SLOAD SWAP1 JUMP JUMPDEST PUSH2 0x3BE PUSH2 0x9A5 JUMP JUMPDEST PUSH2 0x32F PUSH2 0x9B7 JUMP JUMPDEST PUSH2 0x36F PUSH2 0x4C6 CALLDATASIZE PUSH1 0x4 PUSH2 0x1FBE JUMP JUMPDEST PUSH2 0xA45 JUMP JUMPDEST PUSH1 0x5 SLOAD PUSH1 0x1 PUSH1 0x1 PUSH1 0xA0 SHL SUB AND PUSH2 0x3E6 JUMP JUMPDEST PUSH2 0x36F PUSH2 0xA55 JUMP JUMPDEST PUSH2 0x32F PUSH2 0xA84 JUMP JUMPDEST PUSH2 0x36F PUSH1 0x9 SLOAD DUP2 JUMP JUMPDEST PUSH2 0x36F PUSH2 0x503 CALLDATASIZE PUSH1 0x4 PUSH2 0x1FBE JUMP JUMPDEST PUSH2 0xA93 JUMP JUMPDEST PUSH1 0x13 SLOAD PUSH2 0x2FE SWAP1 PUSH1 0x1 PUSH1 0xA0 SHL SWAP1 DIV PUSH1 0xFF AND DUP2 JUMP JUMPDEST PUSH2 0x36F PUSH1 0x12 SLOAD DUP2 JUMP JUMPDEST PUSH2 0x3BE PUSH2 0x533 CALLDATASIZE PUSH1 0x4 PUSH2 0x20B0 JUMP JUMPDEST PUSH2 0xAAE JUMP JUMPDEST PUSH2 0x36F PUSH7 0x38D7EA4C68000 DUP2 JUMP JUMPDEST PUSH2 0x2FE PUSH2 0x554 CALLDATASIZE PUSH1 0x4 PUSH2 0x2043 JUMP JUMPDEST PUSH2 0xC92 JUMP JUMPDEST PUSH2 0x36F PUSH2 0x567 CALLDATASIZE PUSH1 0x4 PUSH2 0x1FBE JUMP JUMPDEST PUSH2 0xD0D JUMP JUMPDEST PUSH2 0x2FE PUSH2 0x57A CALLDATASIZE PUSH1 0x4 PUSH2 0x2043 JUMP JUMPDEST PUSH2 0xD53 JUMP JUMPDEST PUSH2 0x36F PUSH8 0xDE0B6B3A7640000 DUP2 JUMP JUMPDEST PUSH2 0x36F PUSH1 0xB SLOAD DUP2 JUMP JUMPDEST PUSH1 0x8 SLOAD PUSH2 0x3E6 SWAP1 PUSH1 0x1 PUSH1 0x1 PUSH1 0xA0 SHL SUB AND DUP2 JUMP JUMPDEST PUSH2 0x3E6 PUSH32 0x0 DUP2 JUMP JUMPDEST PUSH2 0x3BE PUSH2 0xD61 JUMP JUMPDEST PUSH2 0x36F PUSH3 0x186A0 DUP2 JUMP JUMPDEST PUSH2 0x3BE PUSH2 0x5F1 CALLDATASIZE PUSH1 0x4 PUSH2 0x1FBE JUMP JUMPDEST PUSH2 0x1035 JUMP JUMPDEST PUSH2 0x36F PUSH2 0x604 CALLDATASIZE PUSH1 0x4 PUSH2 0x20D4 JUMP JUMPDEST PUSH2 0x1272 JUMP JUMPDEST PUSH2 0x3BE PUSH2 0x617 CALLDATASIZE PUSH1 0x4 PUSH2 0x1FBE JUMP JUMPDEST PUSH2 0x129D JUMP JUMPDEST PUSH2 0x36F PUSH2 0x151D JUMP JUMPDEST PUSH2 0x409 PUSH1 0x12 DUP2 JUMP JUMPDEST PUSH2 0x3BE PUSH2 0x63A CALLDATASIZE PUSH1 0x4 PUSH2 0x20B0 JUMP JUMPDEST PUSH2 0x1538 JUMP JUMPDEST PUSH2 0x36F PUSH2 0x15AE JUMP JUMPDEST PUSH1 0x60 PUSH1 0x3 DUP1 SLOAD PUSH2 0x656 SWAP1 PUSH2 0x210D JUMP JUMPDEST DUP1 PUSH1 0x1F ADD PUSH1 0x20 DUP1 SWAP2 DIV MUL PUSH1 0x20 ADD PUSH1 0x40 MLOAD SWAP1 DUP2 ADD PUSH1 0x40 MSTORE DUP1 SWAP3 SWAP2 SWAP1 DUP2 DUP2 MSTORE PUSH1 0x20 ADD DUP3 DUP1 SLOAD PUSH2 0x682 SWAP1 PUSH2 0x210D JUMP JUMPDEST DUP1 ISZERO PUSH2 0x6CF JUMPI DUP1 PUSH1 0x1F LT PUSH2 0x6A4 JUMPI PUSH2 0x100 DUP1 DUP4 SLOAD DIV MUL DUP4 MSTORE SWAP2 PUSH1 0x20 ADD SWAP2 PUSH2 0x6CF JUMP JUMPDEST DUP3 ADD SWAP2 SWAP1 PUSH1 0x0 MSTORE PUSH1 0x20 PUSH1 0x0 KECCAK256 SWAP1 JUMPDEST DUP2 SLOAD DUP2 MSTORE SWAP1 PUSH1 0x1 ADD SWAP1 PUSH1 0x20 ADD DUP1 DUP4 GT PUSH2 0x6B2 JUMPI DUP3 SWAP1 SUB PUSH1 0x1F AND DUP3 ADD SWAP2 JUMPDEST POP POP POP POP POP SWAP1 POP SWAP1 JUMP JUMPDEST PUSH1 0x0 CALLER PUSH2 0x6E7 DUP2 DUP6 DUP6 PUSH2 0x15CA JUMP JUMPDEST PUSH1 0x1 SWAP2 POP POP JUMPDEST SWAP3 SWAP2 POP POP JUMP JUMPDEST PUSH1 0xC DUP2 DUP2 SLOAD DUP2 LT PUSH2 0x703 JUMPI PUSH1 0x0 DUP1 REVERT JUMPDEST PUSH1 0x0 SWAP2 DUP3 MSTORE PUSH1 0x20 SWAP1 SWAP2 KECCAK256 ADD SLOAD SWAP1 POP DUP2 JUMP JUMPDEST PUSH1 0x8 SLOAD PUSH1 0x1 PUSH1 0x1 PUSH1 0xA0 SHL SUB AND CALLER EQ DUP1 PUSH2 0x737 JUMPI POP PUSH1 0x5 SLOAD PUSH1 0x1 PUSH1 0x1 PUSH1 0xA0 SHL SUB AND CALLER EQ JUMPDEST PUSH2 0x779 JUMPI PUSH1 0x40 MLOAD PUSH3 0x461BCD PUSH1 0xE5 SHL DUP2 MSTORE PUSH1 0x20 PUSH1 0x4 DUP3 ADD MSTORE PUSH1 0xE PUSH1 0x24 DUP3 ADD MSTORE PUSH14 0x139BDD08185D5D1A1BDC9A5E9959 PUSH1 0x92 SHL PUSH1 0x44 DUP3 ADD MSTORE PUSH1 0x64 ADD JUMPDEST PUSH1 0x40 MLOAD DUP1 SWAP2 SUB SWAP1 REVERT JUMPDEST PUSH2 0x3E8 DUP2 GT ISZERO PUSH2 0x7CB JUMPI PUSH1 0x40 MLOAD PUSH3 0x461BCD PUSH1 0xE5 SHL DUP2 MSTORE PUSH1 0x20 PUSH1 0x4 DUP3 ADD DUP2 SWAP1 MSTORE PUSH1 0x24 DUP3 ADD MSTORE PUSH32 0x477261766974792053636F72652063616E6E6F74206578636565642031303030 PUSH1 0x44 DUP3 ADD MSTORE PUSH1 0x64 ADD PUSH2 0x770 JUMP JUMPDEST PUSH1 0xF DUP1 SLOAD SWAP1 DUP3 SWAP1 SSTORE PUSH1 0x40 DUP1 MLOAD DUP3 DUP2 MSTORE PUSH1 0x20 DUP2 ADD DUP5 SWAP1 MSTORE PUSH32 0x2A59B5B6FFEC36F241EF80C1E1B70D2D76F9F2F743F1D88A337CA62C60982D39 SWAP2 ADD PUSH1 0x40 MLOAD DUP1 SWAP2 SUB SWAP1 LOG1 PUSH2 0x814 PUSH2 0x16EE JUMP JUMPDEST POP POP JUMP JUMPDEST PUSH1 0x0 CALLER PUSH2 0x826 DUP6 DUP3 DUP6 PUSH2 0x1812 JUMP JUMPDEST PUSH2 0x831 DUP6 DUP6 DUP6 PUSH2 0x188C JUMP JUMPDEST POP PUSH1 0x1 SWAP5 SWAP4 POP POP POP POP JUMP JUMPDEST PUSH1 0x0 CALLER PUSH2 0x6E7 DUP2 DUP6 DUP6 PUSH2 0x84F DUP4 DUP4 PUSH2 0x1272 JUMP JUMPDEST PUSH2 0x859 SWAP2 SWAP1 PUSH2 0x215D JUMP JUMPDEST PUSH2 0x15CA JUMP JUMPDEST PUSH2 0x866 PUSH2 0x1A30 JUMP JUMPDEST PUSH1 0x5 SLOAD PUSH1 0x1 PUSH1 0x1 PUSH1 0xA0 SHL SUB AND CALLER EQ DUP1 PUSH2 0x889 JUMPI POP PUSH1 0x8 SLOAD PUSH1 0x1 PUSH1 0x1 PUSH1 0xA0 SHL SUB AND CALLER EQ JUMPDEST PUSH2 0x8DF JUMPI PUSH1 0x40 MLOAD PUSH3 0x461BCD PUSH1 0xE5 SHL DUP2 MSTORE PUSH1 0x20 PUSH1 0x4 DUP3 ADD MSTORE PUSH1 0x21 PUSH1 0x24 DUP3 ADD MSTORE PUSH32 0x4F6E6C792063726561746F72206F7220666163746F72792063616E20636C6169 PUSH1 0x44 DUP3 ADD MSTORE PUSH1 0x6D PUSH1 0xF8 SHL PUSH1 0x64 DUP3 ADD MSTORE PUSH1 0x84 ADD PUSH2 0x770 JUMP JUMPDEST PUSH1 0x0 PUSH1 0x12 SLOAD GT PUSH2 0x926 JUMPI PUSH1 0x40 MLOAD PUSH3 0x461BCD PUSH1 0xE5 SHL DUP2 MSTORE PUSH1 0x20 PUSH1 0x4 DUP3 ADD MSTORE PUSH1 0x12 PUSH1 0x24 DUP3 ADD MSTORE PUSH18 0x4E6F20746F6B656E7320746F20636C61696D PUSH1 0x70 SHL PUSH1 0x44 DUP3 ADD MSTORE PUSH1 0x64 ADD PUSH2 0x770 JUMP JUMPDEST PUSH1 0x12 DUP1 SLOAD PUSH1 0x0 SWAP1 SWAP2 SSTORE PUSH2 0x94A PUSH2 0x944 PUSH1 0x5 SLOAD PUSH1 0x1 PUSH1 0x1 PUSH1 0xA0 SHL SUB AND SWAP1 JUMP JUMPDEST DUP3 PUSH2 0x1A89 JUMP JUMPDEST POP PUSH2 0x955 PUSH1 0x1 PUSH1 0x6 SSTORE JUMP JUMPDEST JUMP JUMPDEST PUSH1 0x0 DUP1 DUP3 PUSH1 0xA SLOAD PUSH2 0x968 SWAP2 SWAP1 PUSH2 0x215D JUMP JUMPDEST SWAP1 POP PUSH1 0x0 DUP2 PUSH1 0xB SLOAD PUSH2 0x97A SWAP2 SWAP1 PUSH2 0x2170 JUMP JUMPDEST SWAP1 POP PUSH1 0x9 SLOAD DUP2 LT PUSH2 0x98F JUMPI POP PUSH1 0x0 SWAP4 SWAP3 POP POP POP JUMP JUMPDEST DUP1 PUSH1 0x9 SLOAD PUSH2 0x99D SWAP2 SWAP1 PUSH2 0x2192 JUMP JUMPDEST SWAP5 SWAP4 POP POP POP POP JUMP JUMPDEST PUSH2 0x9AD PUSH2 0x1B48 JUMP JUMPDEST PUSH2 0x955 PUSH1 0x0 PUSH2 0x1BA2 JUMP JUMPDEST PUSH1 0x7 DUP1 SLOAD PUSH2 0x9C4 SWAP1 PUSH2 0x210D JUMP JUMPDEST DUP1 PUSH1 0x1F ADD PUSH1 0x20 DUP1 SWAP2 DIV MUL PUSH1 0x20 ADD PUSH1 0x40 MLOAD SWAP1 DUP2 ADD PUSH1 0x40 MSTORE DUP1 SWAP3 SWAP2 SWAP1 DUP2 DUP2 MSTORE PUSH1 0x20 ADD DUP3 DUP1 SLOAD PUSH2 0x9F0 SWAP1 PUSH2 0x210D JUMP JUMPDEST DUP1 ISZERO PUSH2 0xA3D JUMPI DUP1 PUSH1 0x1F LT PUSH2 0xA12 JUMPI PUSH2 0x100 DUP1 DUP4 SLOAD DIV MUL DUP4 MSTORE SWAP2 PUSH1 0x20 ADD SWAP2 PUSH2 0xA3D JUMP JUMPDEST DUP3 ADD SWAP2 SWAP1 PUSH1 0x0 MSTORE PUSH1 0x20 PUSH1 0x0 KECCAK256 SWAP1 JUMPDEST DUP2 SLOAD DUP2 MSTORE SWAP1 PUSH1 0x1 ADD SWAP1 PUSH1 0x20 ADD DUP1 DUP4 GT PUSH2 0xA20 JUMPI DUP3 SWAP1 SUB PUSH1 0x1F AND DUP3 ADD SWAP2 JUMPDEST POP POP POP POP POP DUP2 JUMP JUMPDEST PUSH1 0xD DUP2 DUP2 SLOAD DUP2 LT PUSH2 0x703 JUMPI PUSH1 0x0 DUP1 REVERT JUMPDEST PUSH1 0x0 PUSH8 0xDE0B6B3A7640000 PUSH1 0xA SLOAD PUSH2 0xA6B PUSH2 0x151D JUMP JUMPDEST PUSH2 0xA75 SWAP2 SWAP1 PUSH2 0x21A5 JUMP JUMPDEST PUSH2 0xA7F SWAP2 SWAP1 PUSH2 0x2170 JUMP JUMPDEST SWAP1 POP SWAP1 JUMP JUMPDEST PUSH1 0x60 PUSH1 0x4 DUP1 SLOAD PUSH2 0x656 SWAP1 PUSH2 0x210D JUMP JUMPDEST PUSH1 0x0 PUSH3 0x186A0 PUSH2 0xAA4 PUSH1 0x64 DUP5 PUSH2 0x21A5 JUMP JUMPDEST PUSH2 0x6ED SWAP2 SWAP1 PUSH2 0x2170 JUMP JUMPDEST PUSH2 0xAB6 PUSH2 0x1A30 JUMP JUMPDEST PUSH1 0x8 SLOAD PUSH1 0x1 PUSH1 0x1 PUSH1 0xA0 SHL SUB AND CALLER EQ PUSH2 0xB09 JUMPI PUSH1 0x40 MLOAD PUSH3 0x461BCD PUSH1 0xE5 SHL DUP2 MSTORE PUSH1 0x20 PUSH1 0x4 DUP3 ADD MSTORE PUSH1 0x16 PUSH1 0x24 DUP3 ADD MSTORE PUSH22 0x4F6E6C7920666163746F72792063616E20636C61696D PUSH1 0x50 SHL PUSH1 0x44 DUP3 ADD MSTORE PUSH1 0x64 ADD PUSH2 0x770 JUMP JUMPDEST PUSH1 0x0 PUSH1 0x12 SLOAD GT PUSH2 0xB50 JUMPI PUSH1 0x40 MLOAD PUSH3 0x461BCD PUSH1 0xE5 SHL DUP2 MSTORE PUSH1 0x20 PUSH1 0x4 DUP3 ADD MSTORE PUSH1 0x12 PUSH1 0x24 DUP3 ADD MSTORE PUSH18 0x4E6F20746F6B656E7320746F20636C61696D PUSH1 0x70 SHL PUSH1 0x44 DUP3 ADD MSTORE PUSH1 0x64 ADD PUSH2 0x770 JUMP JUMPDEST PUSH1 0x1 PUSH1 0x1 PUSH1 0xA0 SHL SUB DUP2 AND PUSH2 0xB9A JUMPI PUSH1 0x40 MLOAD PUSH3 0x461BCD PUSH1 0xE5 SHL DUP2 MSTORE PUSH1 0x20 PUSH1 0x4 DUP3 ADD MSTORE PUSH1 0x11 PUSH1 0x24 DUP3 ADD MSTORE PUSH17 0x526563697069656E74206973207A65726F PUSH1 0x78 SHL PUSH1 0x44 DUP3 ADD MSTORE PUSH1 0x64 ADD PUSH2 0x770 JUMP JUMPDEST PUSH1 0x5 SLOAD PUSH1 0x1 PUSH1 0x1 PUSH1 0xA0 SHL SUB DUP3 DUP2 AND SWAP2 AND EQ DUP1 PUSH2 0xC25 JUMPI POP PUSH1 0x8 SLOAD PUSH1 0x40 MLOAD PUSH4 0xAE6862FF PUSH1 0xE0 SHL DUP2 MSTORE PUSH1 0x1 PUSH1 0x1 PUSH1 0xA0 SHL SUB DUP4 DUP2 AND PUSH1 0x4 DUP4 ADD MSTORE ADDRESS PUSH1 0x24 DUP4 ADD MSTORE SWAP1 SWAP2 AND SWAP1 PUSH4 0xAE6862FF SWAP1 PUSH1 0x44 ADD PUSH1 0x20 PUSH1 0x40 MLOAD DUP1 DUP4 SUB DUP2 DUP7 GAS STATICCALL ISZERO DUP1 ISZERO PUSH2 0xC01 JUMPI RETURNDATASIZE PUSH1 0x0 DUP1 RETURNDATACOPY RETURNDATASIZE PUSH1 0x0 REVERT JUMPDEST POP POP POP POP PUSH1 0x40 MLOAD RETURNDATASIZE PUSH1 0x1F NOT PUSH1 0x1F DUP3 ADD AND DUP3 ADD DUP1 PUSH1 0x40 MSTORE POP DUP2 ADD SWAP1 PUSH2 0xC25 SWAP2 SWAP1 PUSH2 0x21BC JUMP JUMPDEST PUSH2 0xC71 JUMPI PUSH1 0x40 MLOAD PUSH3 0x461BCD PUSH1 0xE5 SHL DUP2 MSTORE PUSH1 0x20 PUSH1 0x4 DUP3 ADD MSTORE PUSH1 0x1E PUSH1 0x24 DUP3 ADD MSTORE PUSH32 0x526563697069656E74206973206E6F7420746F6B656E2063726561746F720000 PUSH1 0x44 DUP3 ADD MSTORE PUSH1 0x64 ADD PUSH2 0x770 JUMP JUMPDEST PUSH1 0x12 DUP1 SLOAD PUSH1 0x0 SWAP1 SWAP2 SSTORE PUSH2 0xC84 DUP3 DUP3 PUSH2 0x1A89 JUMP JUMPDEST POP PUSH2 0xC8F PUSH1 0x1 PUSH1 0x6 SSTORE JUMP JUMPDEST POP JUMP JUMPDEST PUSH1 0x0 CALLER DUP2 PUSH2 0xCA0 DUP3 DUP7 PUSH2 0x1272 JUMP JUMPDEST SWAP1 POP DUP4 DUP2 LT ISZERO PUSH2 0xD00 JUMPI PUSH1 0x40 MLOAD PUSH3 0x461BCD PUSH1 0xE5 SHL DUP2 MSTORE PUSH1 0x20 PUSH1 0x4 DUP3 ADD MSTORE PUSH1 0x25 PUSH1 0x24 DUP3 ADD MSTORE PUSH32 0x45524332303A2064656372656173656420616C6C6F77616E63652062656C6F77 PUSH1 0x44 DUP3 ADD MSTORE PUSH5 0x207A65726F PUSH1 0xD8 SHL PUSH1 0x64 DUP3 ADD MSTORE PUSH1 0x84 ADD PUSH2 0x770 JUMP JUMPDEST PUSH2 0x831 DUP3 DUP7 DUP7 DUP5 SUB PUSH2 0x15CA JUMP JUMPDEST PUSH1 0x0 DUP1 DUP3 PUSH1 0x9 SLOAD PUSH2 0xD1E SWAP2 SWAP1 PUSH2 0x215D JUMP JUMPDEST SWAP1 POP PUSH1 0x0 DUP2 PUSH1 0xB SLOAD PUSH2 0xD30 SWAP2 SWAP1 PUSH2 0x2170 JUMP JUMPDEST SWAP1 POP PUSH1 0xA SLOAD DUP2 LT PUSH2 0xD45 JUMPI POP PUSH1 0x0 SWAP4 SWAP3 POP POP POP JUMP JUMPDEST DUP1 PUSH1 0xA SLOAD PUSH2 0x99D SWAP2 SWAP1 PUSH2 0x2192 JUMP JUMPDEST PUSH1 0x0 CALLER PUSH2 0x6E7 DUP2 DUP6 DUP6 PUSH2 0x188C JUMP JUMPDEST PUSH2 0xD69 PUSH2 0x1B48 JUMP JUMPDEST PUSH2 0xD71 PUSH2 0x1A30 JUMP JUMPDEST PUSH1 0x13 SLOAD PUSH1 0x1 PUSH1 0xA0 SHL SWAP1 DIV PUSH1 0xFF AND ISZERO PUSH2 0xDCB JUMPI PUSH1 0x40 MLOAD PUSH3 0x461BCD PUSH1 0xE5 SHL DUP2 MSTORE PUSH1 0x20 PUSH1 0x4 DUP3 ADD MSTORE PUSH1 0x1A PUSH1 0x24 DUP3 ADD MSTORE PUSH32 0x546F6B656E20697320616C726561647920677261647561746564000000000000 PUSH1 0x44 DUP3 ADD MSTORE PUSH1 0x64 ADD PUSH2 0x770 JUMP JUMPDEST PUSH1 0x13 DUP1 SLOAD PUSH2 0xFFFF PUSH1 0xA0 SHL NOT AND PUSH1 0x1 PUSH1 0xA0 SHL OR SWAP1 SSTORE PUSH1 0x40 MLOAD PUSH4 0x70A08231 PUSH1 0xE0 SHL DUP2 MSTORE ADDRESS PUSH1 0x4 DUP3 ADD MSTORE PUSH1 0x0 SWAP1 PUSH1 0x1 PUSH1 0x1 PUSH1 0xA0 SHL SUB PUSH32 0x0 AND SWAP1 PUSH4 0x70A08231 SWAP1 PUSH1 0x24 ADD PUSH1 0x20 PUSH1 0x40 MLOAD DUP1 DUP4 SUB DUP2 DUP7 GAS STATICCALL ISZERO DUP1 ISZERO PUSH2 0xE46 JUMPI RETURNDATASIZE PUSH1 0x0 DUP1 RETURNDATACOPY RETURNDATASIZE PUSH1 0x0 REVERT JUMPDEST POP POP POP POP PUSH1 0x40 MLOAD RETURNDATASIZE PUSH1 0x1F NOT PUSH1 0x1F DUP3 ADD AND DUP3 ADD DUP1 PUSH1 0x40 MSTORE POP DUP2 ADD SWAP1 PUSH2 0xE6A SWAP2 SWAP1 PUSH2 0x21DE JUMP JUMPDEST SWAP1 POP DUP1 PUSH1 0x0 PUSH1 0x64 PUSH2 0xE7A PUSH1 0x2 SLOAD SWAP1 JUMP JUMPDEST PUSH2 0xE85 SWAP1 PUSH1 0x14 PUSH2 0x21A5 JUMP JUMPDEST PUSH2 0xE8F SWAP2 SWAP1 PUSH2 0x2170 JUMP JUMPDEST SWAP1 POP PUSH2 0xE9B ADDRESS DUP3 PUSH2 0x1A89 JUMP JUMPDEST PUSH1 0x8 SLOAD PUSH2 0xEB3 SWAP1 ADDRESS SWAP1 PUSH1 0x1 PUSH1 0x1 PUSH1 0xA0 SHL SUB AND DUP4 PUSH2 0x15CA JUMP JUMPDEST PUSH1 0x8 SLOAD PUSH1 0x40 MLOAD PUSH4 0x2097C4BD PUSH1 0xE0 SHL DUP2 MSTORE ADDRESS PUSH1 0x4 DUP3 ADD MSTORE PUSH1 0x0 PUSH1 0x24 DUP3 ADD DUP2 SWAP1 MSTORE PUSH1 0x44 DUP3 ADD DUP5 SWAP1 MSTORE SWAP2 PUSH1 0x1 PUSH1 0x1 PUSH1 0xA0 SHL SUB AND SWAP1 PUSH4 0x2097C4BD SWAP1 PUSH1 0x64 ADD PUSH1 0x20 PUSH1 0x40 MLOAD DUP1 DUP4 SUB DUP2 PUSH1 0x0 DUP8 GAS CALL ISZERO DUP1 ISZERO PUSH2 0xF0C JUMPI RETURNDATASIZE PUSH1 0x0 DUP1 RETURNDATACOPY RETURNDATASIZE PUSH1 0x0 REVERT JUMPDEST POP POP POP POP PUSH1 0x40 MLOAD RETURNDATASIZE PUSH1 0x1F NOT PUSH1 0x1F DUP3 ADD AND DUP3 ADD DUP1 PUSH1 0x40 MSTORE POP DUP2 ADD SWAP1 PUSH2 0xF30 SWAP2 SWAP1 PUSH2 0x21F7 JUMP JUMPDEST PUSH1 0x14 DUP1 SLOAD PUSH1 0x1 PUSH1 0x1 PUSH1 0xA0 SHL SUB NOT AND PUSH1 0x1 PUSH1 0x1 PUSH1 0xA0 SHL SUB DUP4 AND OR SWAP1 SSTORE SWAP1 POP DUP3 ISZERO PUSH2 0xFDB JUMPI PUSH2 0xF87 PUSH1 0x1 PUSH1 0x1 PUSH1 0xA0 SHL SUB PUSH32 0x0 AND DUP3 DUP6 PUSH2 0x1BF4 JUMP JUMPDEST DUP1 PUSH1 0x1 PUSH1 0x1 PUSH1 0xA0 SHL SUB AND PUSH4 0xFFF6CAE9 PUSH1 0x40 MLOAD DUP2 PUSH4 0xFFFFFFFF AND PUSH1 0xE0 SHL DUP2 MSTORE PUSH1 0x4 ADD PUSH1 0x0 PUSH1 0x40 MLOAD DUP1 DUP4 SUB DUP2 PUSH1 0x0 DUP8 DUP1 EXTCODESIZE ISZERO DUP1 ISZERO PUSH2 0xFC2 JUMPI PUSH1 0x0 DUP1 REVERT JUMPDEST POP GAS CALL ISZERO DUP1 ISZERO PUSH2 0xFD6 JUMPI RETURNDATASIZE PUSH1 0x0 DUP1 RETURNDATACOPY RETURNDATASIZE PUSH1 0x0 REVERT JUMPDEST POP POP POP POP JUMPDEST PUSH1 0x40 DUP1 MLOAD DUP5 DUP2 MSTORE PUSH1 0x20 DUP2 ADD DUP5 SWAP1 MSTORE TIMESTAMP DUP2 DUP4 ADD MSTORE SWAP1 MLOAD PUSH1 0x1 PUSH1 0x1 PUSH1 0xA0 SHL SUB DUP4 AND SWAP2 ADDRESS SWAP2 PUSH32 0x5EC1E9DAF7AFFE04984801E0D07DE6448F00139D72977B7C948BF698BD353F76 SWAP2 DUP2 SWAP1 SUB PUSH1 0x60 ADD SWAP1 LOG3 POP POP POP POP PUSH2 0x955 PUSH1 0x1 PUSH1 0x6 SSTORE JUMP JUMPDEST PUSH2 0x103D PUSH2 0x1A30 JUMP JUMPDEST PUSH1 0x0 DUP2 GT PUSH2 0x1082 JUMPI PUSH1 0x40 MLOAD PUSH3 0x461BCD PUSH1 0xE5 SHL DUP2 MSTORE PUSH1 0x20 PUSH1 0x4 DUP3 ADD MSTORE PUSH1 0x12 PUSH1 0x24 DUP3 ADD MSTORE PUSH18 0x416D6F756E74206D757374206265203E203 PUSH1 0x74 SHL PUSH1 0x44 DUP3 ADD MSTORE PUSH1 0x64 ADD PUSH2 0x770 JUMP JUMPDEST PUSH1 0x13 SLOAD PUSH1 0x1 PUSH1 0xA8 SHL SWAP1 DIV PUSH1 0xFF AND PUSH2 0x10AB JUMPI PUSH1 0x40 MLOAD PUSH3 0x461BCD PUSH1 0xE5 SHL DUP2 MSTORE PUSH1 0x4 ADD PUSH2 0x770 SWAP1 PUSH2 0x2214 JUMP JUMPDEST PUSH1 0x0 PUSH2 0x10B6 DUP3 PUSH2 0xD0D JUMP JUMPDEST SWAP1 POP PUSH1 0x0 DUP2 GT PUSH2 0x10FE JUMPI PUSH1 0x40 MLOAD PUSH3 0x461BCD PUSH1 0xE5 SHL DUP2 MSTORE PUSH1 0x20 PUSH1 0x4 DUP3 ADD MSTORE PUSH1 0x13 PUSH1 0x24 DUP3 ADD MSTORE PUSH19 0x16995C9BC81D1BDAD95B9CC81D1BC81B5A5B9D PUSH1 0x6A SHL PUSH1 0x44 DUP3 ADD MSTORE PUSH1 0x64 ADD PUSH2 0x770 JUMP JUMPDEST PUSH1 0x0 PUSH3 0x186A0 PUSH2 0x110F PUSH1 0x64 DUP6 PUSH2 0x21A5 JUMP JUMPDEST PUSH2 0x1119 SWAP2 SWAP1 PUSH2 0x2170 JUMP JUMPDEST SWAP1 POP PUSH1 0x0 PUSH2 0x1127 DUP3 DUP6 PUSH2 0x215D JUMP JUMPDEST SWAP1 POP DUP4 PUSH1 0x9 PUSH1 0x0 DUP3 DUP3 SLOAD PUSH2 0x113B SWAP2 SWAP1 PUSH2 0x215D JUMP JUMPDEST SWAP3 POP POP DUP2 SWAP1 SSTORE POP DUP3 PUSH1 0xA PUSH1 0x0 DUP3 DUP3 SLOAD PUSH2 0x1154 SWAP2 SWAP1 PUSH2 0x2192 JUMP JUMPDEST SWAP1 SWAP2 SSTORE POP POP PUSH1 0xA SLOAD PUSH1 0x9 SLOAD PUSH2 0x1169 SWAP2 SWAP1 PUSH2 0x21A5 JUMP JUMPDEST PUSH1 0xB SSTORE PUSH2 0x11A1 PUSH1 0x1 PUSH1 0x1 PUSH1 0xA0 SHL SUB PUSH32 0x0 AND CALLER ADDRESS DUP5 PUSH2 0x1C5C JUMP JUMPDEST DUP2 ISZERO PUSH2 0x1217 JUMPI PUSH1 0x13 SLOAD PUSH2 0x11E1 SWAP1 PUSH1 0x1 PUSH1 0x1 PUSH1 0xA0 SHL SUB PUSH32 0x0 DUP2 AND SWAP2 AND DUP5 PUSH2 0x1BF4 JUMP JUMPDEST PUSH1 0x40 MLOAD DUP3 DUP2 MSTORE CALLER SWAP1 PUSH32 0x6C5EFEFF5C320943D265DC4E5F1AF95AD523555CE0C1957E367DDA5514572DF SWAP1 PUSH1 0x20 ADD PUSH1 0x40 MLOAD DUP1 SWAP2 SUB SWAP1 LOG2 JUMPDEST PUSH2 0x1221 CALLER DUP5 PUSH2 0x1A89 JUMP JUMPDEST PUSH1 0x40 DUP1 MLOAD DUP6 DUP2 MSTORE PUSH1 0x20 DUP2 ADD DUP6 SWAP1 MSTORE SWAP1 DUP2 ADD DUP4 SWAP1 MSTORE CALLER SWAP1 PUSH32 0xD1A0D5E3D583A0E92588799DD06E50FD78C07DAF05F0CC06D7B848B1CA445F1 SWAP1 PUSH1 0x60 ADD JUMPDEST PUSH1 0x40 MLOAD DUP1 SWAP2 SUB SWAP1 LOG2 POP POP POP PUSH2 0xC8F PUSH1 0x1 PUSH1 0x6 SSTORE JUMP JUMPDEST PUSH1 0x1 PUSH1 0x1 PUSH1 0xA0 SHL SUB SWAP2 DUP3 AND PUSH1 0x0 SWAP1 DUP2 MSTORE PUSH1 0x1 PUSH1 0x20 SWAP1 DUP2 MSTORE PUSH1 0x40 DUP1 DUP4 KECCAK256 SWAP4 SWAP1 SWAP5 AND DUP3 MSTORE SWAP2 SWAP1 SWAP2 MSTORE KECCAK256 SLOAD SWAP1 JUMP JUMPDEST PUSH2 0x12A5 PUSH2 0x1A30 JUMP JUMPDEST PUSH1 0x0 DUP2 GT PUSH2 0x12EA JUMPI PUSH1 0x40 MLOAD PUSH3 0x461BCD PUSH1 0xE5 SHL DUP2 MSTORE PUSH1 0x20 PUSH1 0x4 DUP3 ADD MSTORE PUSH1 0x12 PUSH1 0x24 DUP3 ADD MSTORE PUSH18 0x416D6F756E74206D757374206265203E203 PUSH1 0x74 SHL PUSH1 0x44 DUP3 ADD MSTORE PUSH1 0x64 ADD PUSH2 0x770 JUMP JUMPDEST CALLER PUSH1 0x0 SWAP1 DUP2 MSTORE PUSH1 0x20 DUP2 SWAP1 MSTORE PUSH1 0x40 SWAP1 KECCAK256 SLOAD DUP2 GT ISZERO PUSH2 0x133F JUMPI PUSH1 0x40 MLOAD PUSH3 0x461BCD PUSH1 0xE5 SHL DUP2 MSTORE PUSH1 0x20 PUSH1 0x4 DUP3 ADD MSTORE PUSH1 0x13 PUSH1 0x24 DUP3 ADD MSTORE PUSH19 0x496E73756666696369656E7420746F6B656E73 PUSH1 0x68 SHL PUSH1 0x44 DUP3 ADD MSTORE PUSH1 0x64 ADD PUSH2 0x770 JUMP JUMPDEST PUSH1 0x13 SLOAD PUSH1 0x1 PUSH1 0xA8 SHL SWAP1 DIV PUSH1 0xFF AND PUSH2 0x1368 JUMPI PUSH1 0x40 MLOAD PUSH3 0x461BCD PUSH1 0xE5 SHL DUP2 MSTORE PUSH1 0x4 ADD PUSH2 0x770 SWAP1 PUSH2 0x2214 JUMP JUMPDEST PUSH1 0x0 PUSH2 0x1373 DUP3 PUSH2 0x957 JUMP JUMPDEST SWAP1 POP PUSH1 0x0 DUP2 GT PUSH2 0x13BB JUMPI PUSH1 0x40 MLOAD PUSH3 0x461BCD PUSH1 0xE5 SHL DUP2 MSTORE PUSH1 0x20 PUSH1 0x4 DUP3 ADD MSTORE PUSH1 0x13 PUSH1 0x24 DUP3 ADD MSTORE PUSH19 0x2D32B937902AA9A22A103A37903932BA3AB937 PUSH1 0x69 SHL PUSH1 0x44 DUP3 ADD MSTORE PUSH1 0x64 ADD PUSH2 0x770 JUMP JUMPDEST PUSH1 0x0 PUSH3 0x186A0 PUSH2 0x13CC PUSH1 0x64 DUP5 PUSH2 0x21A5 JUMP JUMPDEST PUSH2 0x13D6 SWAP2 SWAP1 PUSH2 0x2170 JUMP JUMPDEST SWAP1 POP PUSH1 0x0 PUSH2 0x13E4 DUP3 DUP5 PUSH2 0x2192 JUMP JUMPDEST SWAP1 POP DUP3 PUSH1 0x9 PUSH1 0x0 DUP3 DUP3 SLOAD PUSH2 0x13F8 SWAP2 SWAP1 PUSH2 0x2192 JUMP JUMPDEST SWAP3 POP POP DUP2 SWAP1 SSTORE POP DUP4 PUSH1 0xA PUSH1 0x0 DUP3 DUP3 SLOAD PUSH2 0x1411 SWAP2 SWAP1 PUSH2 0x215D JUMP JUMPDEST SWAP1 SWAP2 SSTORE POP POP PUSH1 0xA SLOAD PUSH1 0x9 SLOAD PUSH2 0x1426 SWAP2 SWAP1 PUSH2 0x21A5 JUMP JUMPDEST PUSH1 0xB SSTORE PUSH2 0x1433 CALLER DUP6 PUSH2 0x1C94 JUMP JUMPDEST PUSH2 0x1467 PUSH1 0x1 PUSH1 0x1 PUSH1 0xA0 SHL SUB PUSH32 0x0 AND CALLER DUP4 PUSH2 0x1BF4 JUMP JUMPDEST DUP2 ISZERO PUSH2 0x14DD JUMPI PUSH1 0x13 SLOAD PUSH2 0x14A7 SWAP1 PUSH1 0x1 PUSH1 0x1 PUSH1 0xA0 SHL SUB PUSH32 0x0 DUP2 AND SWAP2 AND DUP5 PUSH2 0x1BF4 JUMP JUMPDEST PUSH1 0x40 MLOAD DUP3 DUP2 MSTORE CALLER SWAP1 PUSH32 0x6C5EFEFF5C320943D265DC4E5F1AF95AD523555CE0C1957E367DDA5514572DF SWAP1 PUSH1 0x20 ADD PUSH1 0x40 MLOAD DUP1 SWAP2 SUB SWAP1 LOG2 JUMPDEST PUSH1 0x40 DUP1 MLOAD DUP6 DUP2 MSTORE PUSH1 0x20 DUP2 ADD DUP4 SWAP1 MSTORE SWAP1 DUP2 ADD DUP4 SWAP1 MSTORE CALLER SWAP1 PUSH32 0x6DB63BEBF1E6540277744DF32846EBDB98385B1A73F2D5DE49B28348ADD63F50 SWAP1 PUSH1 0x60 ADD PUSH2 0x125D JUMP JUMPDEST PUSH1 0x0 PUSH1 0xA SLOAD PUSH1 0x9 SLOAD PUSH8 0xDE0B6B3A7640000 PUSH2 0xA75 SWAP2 SWAP1 PUSH2 0x21A5 JUMP JUMPDEST PUSH2 0x1540 PUSH2 0x1B48 JUMP JUMPDEST PUSH1 0x1 PUSH1 0x1 PUSH1 0xA0 SHL SUB DUP2 AND PUSH2 0x15A5 JUMPI PUSH1 0x40 MLOAD PUSH3 0x461BCD PUSH1 0xE5 SHL DUP2 MSTORE PUSH1 0x20 PUSH1 0x4 DUP3 ADD MSTORE PUSH1 0x26 PUSH1 0x24 DUP3 ADD MSTORE PUSH32 0x4F776E61626C653A206E6577206F776E657220697320746865207A65726F2061 PUSH1 0x44 DUP3 ADD MSTORE PUSH6 0x646472657373 PUSH1 0xD0 SHL PUSH1 0x64 DUP3 ADD MSTORE PUSH1 0x84 ADD PUSH2 0x770 JUMP JUMPDEST PUSH2 0xC8F DUP2 PUSH2 0x1BA2 JUMP JUMPDEST PUSH2 0x15BA PUSH1 0x12 PUSH1 0xA PUSH2 0x2339 JUMP JUMPDEST PUSH2 0x15C7 SWAP1 PUSH3 0x186A0 PUSH2 0x21A5 JUMP JUMPDEST DUP2 JUMP JUMPDEST PUSH1 0x1 PUSH1 0x1 PUSH1 0xA0 SHL SUB DUP4 AND PUSH2 0x162C JUMPI PUSH1 0x40 MLOAD PUSH3 0x461BCD PUSH1 0xE5 SHL DUP2 MSTORE PUSH1 0x20 PUSH1 0x4 DUP3 ADD MSTORE PUSH1 0x24 DUP1 DUP3 ADD MSTORE PUSH32 0x45524332303A20617070726F76652066726F6D20746865207A65726F20616464 PUSH1 0x44 DUP3 ADD MSTORE PUSH4 0x72657373 PUSH1 0xE0 SHL PUSH1 0x64 DUP3 ADD MSTORE PUSH1 0x84 ADD PUSH2 0x770 JUMP JUMPDEST PUSH1 0x1 PUSH1 0x1 PUSH1 0xA0 SHL SUB DUP3 AND PUSH2 0x168D JUMPI PUSH1 0x40 MLOAD PUSH3 0x461BCD PUSH1 0xE5 SHL DUP2 MSTORE PUSH1 0x20 PUSH1 0x4 DUP3 ADD MSTORE PUSH1 0x22 PUSH1 0x24 DUP3 ADD MSTORE PUSH32 0x45524332303A20617070726F766520746F20746865207A65726F206164647265 PUSH1 0x44 DUP3 ADD MSTORE PUSH2 0x7373 PUSH1 0xF0 SHL PUSH1 0x64 DUP3 ADD MSTORE PUSH1 0x84 ADD PUSH2 0x770 JUMP JUMPDEST PUSH1 0x1 PUSH1 0x1 PUSH1 0xA0 SHL SUB DUP4 DUP2 AND PUSH1 0x0 DUP2 DUP2 MSTORE PUSH1 0x1 PUSH1 0x20 SWAP1 DUP2 MSTORE PUSH1 0x40 DUP1 DUP4 KECCAK256 SWAP5 DUP8 AND DUP1 DUP5 MSTORE SWAP5 DUP3 MSTORE SWAP2 DUP3 SWAP1 KECCAK256 DUP6 SWAP1 SSTORE SWAP1 MLOAD DUP5 DUP2 MSTORE PUSH32 0x8C5BE1E5EBEC7D5BD14F71427D1E84F3DD0314C0F7B2291E5B200AC8C7C3B925 SWAP2 ADD PUSH1 0x40 MLOAD DUP1 SWAP2 SUB SWAP1 LOG3 POP POP POP JUMP JUMPDEST PUSH1 0x0 JUMPDEST PUSH1 0xC SLOAD DUP2 LT ISZERO PUSH2 0xC8F JUMPI PUSH1 0x0 PUSH1 0xC DUP3 DUP2 SLOAD DUP2 LT PUSH2 0x1710 JUMPI PUSH2 0x1710 PUSH2 0x2348 JUMP JUMPDEST SWAP1 PUSH1 0x0 MSTORE PUSH1 0x20 PUSH1 0x0 KECCAK256 ADD SLOAD SWAP1 POP DUP1 PUSH1 0xF SLOAD LT ISZERO DUP1 ISZERO PUSH2 0x173E JUMPI POP PUSH1 0x0 DUP2 DUP2 MSTORE PUSH1 0x10 PUSH1 0x20 MSTORE PUSH1 0x40 SWAP1 KECCAK256 SLOAD PUSH1 0xFF AND ISZERO JUMPDEST ISZERO PUSH2 0x17FF JUMPI PUSH1 0x0 DUP2 DUP2 MSTORE PUSH1 0x10 PUSH1 0x20 MSTORE PUSH1 0x40 DUP2 KECCAK256 DUP1 SLOAD PUSH1 0xFF NOT AND PUSH1 0x1 OR SWAP1 SSTORE PUSH1 0xD DUP1 SLOAD PUSH2 0x2710 SWAP2 SWAP1 DUP6 SWAP1 DUP2 LT PUSH2 0x1775 JUMPI PUSH2 0x1775 PUSH2 0x2348 JUMP JUMPDEST SWAP1 PUSH1 0x0 MSTORE PUSH1 0x20 PUSH1 0x0 KECCAK256 ADD SLOAD PUSH1 0xE SLOAD PUSH2 0x178D SWAP2 SWAP1 PUSH2 0x21A5 JUMP JUMPDEST PUSH2 0x1797 SWAP2 SWAP1 PUSH2 0x2170 JUMP JUMPDEST PUSH1 0x0 DUP4 DUP2 MSTORE PUSH1 0x11 PUSH1 0x20 MSTORE PUSH1 0x40 DUP2 KECCAK256 DUP3 SWAP1 SSTORE PUSH1 0x12 DUP1 SLOAD SWAP3 SWAP4 POP DUP4 SWAP3 SWAP1 SWAP2 SWAP1 PUSH2 0x17BF SWAP1 DUP5 SWAP1 PUSH2 0x215D JUMP JUMPDEST SWAP1 SWAP2 SSTORE POP POP PUSH1 0x40 DUP1 MLOAD DUP4 DUP2 MSTORE PUSH1 0x20 DUP2 ADD DUP4 SWAP1 MSTORE PUSH32 0x8ED12DAF03921F6CF3D38D560DEE47E5E323C2A96469BEEF3CDB39C23EF1A742 SWAP2 ADD PUSH1 0x40 MLOAD DUP1 SWAP2 SUB SWAP1 LOG1 POP JUMPDEST POP DUP1 PUSH2 0x180A DUP2 PUSH2 0x235E JUMP JUMPDEST SWAP2 POP POP PUSH2 0x16F1 JUMP JUMPDEST PUSH1 0x0 PUSH2 0x181E DUP5 DUP5 PUSH2 0x1272 JUMP JUMPDEST SWAP1 POP PUSH1 0x0 NOT DUP2 EQ PUSH2 0x1886 JUMPI DUP2 DUP2 LT ISZERO PUSH2 0x1879 JUMPI PUSH1 0x40 MLOAD PUSH3 0x461BCD PUSH1 0xE5 SHL DUP2 MSTORE PUSH1 0x20 PUSH1 0x4 DUP3 ADD MSTORE PUSH1 0x1D PUSH1 0x24 DUP3 ADD MSTORE PUSH32 0x45524332303A20696E73756666696369656E7420616C6C6F77616E6365000000 PUSH1 0x44 DUP3 ADD MSTORE PUSH1 0x64 ADD PUSH2 0x770 JUMP JUMPDEST PUSH2 0x1886 DUP5 DUP5 DUP5 DUP5 SUB PUSH2 0x15CA JUMP JUMPDEST POP POP POP POP JUMP JUMPDEST PUSH1 0x1 PUSH1 0x1 PUSH1 0xA0 SHL SUB DUP4 AND PUSH2 0x18F0 JUMPI PUSH1 0x40 MLOAD PUSH3 0x461BCD PUSH1 0xE5 SHL DUP2 MSTORE PUSH1 0x20 PUSH1 0x4 DUP3 ADD MSTORE PUSH1 0x25 PUSH1 0x24 DUP3 ADD MSTORE PUSH32 0x45524332303A207472616E736665722066726F6D20746865207A65726F206164 PUSH1 0x44 DUP3 ADD MSTORE PUSH5 0x6472657373 PUSH1 0xD8 SHL PUSH1 0x64 DUP3 ADD MSTORE PUSH1 0x84 ADD PUSH2 0x770 JUMP JUMPDEST PUSH1 0x1 PUSH1 0x1 PUSH1 0xA0 SHL SUB DUP3 AND PUSH2 0x1952 JUMPI PUSH1 0x40 MLOAD PUSH3 0x461BCD PUSH1 0xE5 SHL DUP2 MSTORE PUSH1 0x20 PUSH1 0x4 DUP3 ADD MSTORE PUSH1 0x23 PUSH1 0x24 DUP3 ADD MSTORE PUSH32 0x45524332303A207472616E7366657220746F20746865207A65726F2061646472 PUSH1 0x44 DUP3 ADD MSTORE PUSH3 0x657373 PUSH1 0xE8 SHL PUSH1 0x64 DUP3 ADD MSTORE PUSH1 0x84 ADD PUSH2 0x770 JUMP JUMPDEST PUSH1 0x1 PUSH1 0x1 PUSH1 0xA0 SHL SUB DUP4 AND PUSH1 0x0 SWAP1 DUP2 MSTORE PUSH1 0x20 DUP2 SWAP1 MSTORE PUSH1 0x40 SWAP1 KECCAK256 SLOAD DUP2 DUP2 LT ISZERO PUSH2 0x19CA JUMPI PUSH1 0x40 MLOAD PUSH3 0x461BCD PUSH1 0xE5 SHL DUP2 MSTORE PUSH1 0x20 PUSH1 0x4 DUP3 ADD MSTORE PUSH1 0x26 PUSH1 0x24 DUP3 ADD MSTORE PUSH32 0x45524332303A207472616E7366657220616D6F756E7420657863656564732062 PUSH1 0x44 DUP3 ADD MSTORE PUSH6 0x616C616E6365 PUSH1 0xD0 SHL PUSH1 0x64 DUP3 ADD MSTORE PUSH1 0x84 ADD PUSH2 0x770 JUMP JUMPDEST PUSH1 0x1 PUSH1 0x1 PUSH1 0xA0 SHL SUB DUP5 DUP2 AND PUSH1 0x0 DUP2 DUP2 MSTORE PUSH1 0x20 DUP2 DUP2 MSTORE PUSH1 0x40 DUP1 DUP4 KECCAK256 DUP8 DUP8 SUB SWAP1 SSTORE SWAP4 DUP8 AND DUP1 DUP4 MSTORE SWAP2 DUP5 SWAP1 KECCAK256 DUP1 SLOAD DUP8 ADD SWAP1 SSTORE SWAP3 MLOAD DUP6 DUP2 MSTORE SWAP1 SWAP3 PUSH32 0xDDF252AD1BE2C89B69C2B068FC378DAA952BA7F163C4A11628F55A4DF523B3EF SWAP2 ADD PUSH1 0x40 MLOAD DUP1 SWAP2 SUB SWAP1 LOG3 PUSH2 0x1886 JUMP JUMPDEST PUSH1 0x2 PUSH1 0x6 SLOAD SUB PUSH2 0x1A82 JUMPI PUSH1 0x40 MLOAD PUSH3 0x461BCD PUSH1 0xE5 SHL DUP2 MSTORE PUSH1 0x20 PUSH1 0x4 DUP3 ADD MSTORE PUSH1 0x1F PUSH1 0x24 DUP3 ADD MSTORE PUSH32 0x5265656E7472616E637947756172643A207265656E7472616E742063616C6C00 PUSH1 0x44 DUP3 ADD MSTORE PUSH1 0x64 ADD PUSH2 0x770 JUMP JUMPDEST PUSH1 0x2 PUSH1 0x6 SSTORE JUMP JUMPDEST PUSH1 0x1 PUSH1 0x1 PUSH1 0xA0 SHL SUB DUP3 AND PUSH2 0x1ADF JUMPI PUSH1 0x40 MLOAD PUSH3 0x461BCD PUSH1 0xE5 SHL DUP2 MSTORE PUSH1 0x20 PUSH1 0x4 DUP3 ADD MSTORE PUSH1 0x1F PUSH1 0x24 DUP3 ADD MSTORE PUSH32 0x45524332303A206D696E7420746F20746865207A65726F206164647265737300 PUSH1 0x44 DUP3 ADD MSTORE PUSH1 0x64 ADD PUSH2 0x770 JUMP JUMPDEST DUP1 PUSH1 0x2 PUSH1 0x0 DUP3 DUP3 SLOAD PUSH2 0x1AF1 SWAP2 SWAP1 PUSH2 0x215D JUMP JUMPDEST SWAP1 SWAP2 SSTORE POP POP PUSH1 0x1 PUSH1 0x1 PUSH1 0xA0 SHL SUB DUP3 AND PUSH1 0x0 DUP2 DUP2 MSTORE PUSH1 0x20 DUP2 DUP2 MSTORE PUSH1 0x40 DUP1 DUP4 KECCAK256 DUP1 SLOAD DUP7 ADD SWAP1 SSTORE MLOAD DUP5 DUP2 MSTORE PUSH32 0xDDF252AD1BE2C89B69C2B068FC378DAA952BA7F163C4A11628F55A4DF523B3EF SWAP2 ADD PUSH1 0x40 MLOAD DUP1 SWAP2 SUB SWAP1 LOG3 POP POP JUMP JUMPDEST PUSH1 0x5 SLOAD PUSH1 0x1 PUSH1 0x1 PUSH1 0xA0 SHL SUB AND CALLER EQ PUSH2 0x955 JUMPI PUSH1 0x40 MLOAD PUSH3 0x461BCD PUSH1 0xE5 SHL DUP2 MSTORE PUSH1 0x20 PUSH1 0x4 DUP3 ADD DUP2 SWAP1 MSTORE PUSH1 0x24 DUP3 ADD MSTORE PUSH32 0x4F776E61626C653A2063616C6C6572206973206E6F7420746865206F776E6572 PUSH1 0x44 DUP3 ADD MSTORE PUSH1 0x64 ADD PUSH2 0x770 JUMP JUMPDEST PUSH1 0x5 DUP1 SLOAD PUSH1 0x1 PUSH1 0x1 PUSH1 0xA0 SHL SUB DUP4 DUP2 AND PUSH1 0x1 PUSH1 0x1 PUSH1 0xA0 SHL SUB NOT DUP4 AND DUP2 OR SWAP1 SWAP4 SSTORE PUSH1 0x40 MLOAD SWAP2 AND SWAP2 SWAP1 DUP3 SWAP1 PUSH32 0x8BE0079C531659141344CD1FD0A4F28419497F9722A3DAAFE3B4186F6B6457E0 SWAP1 PUSH1 0x0 SWAP1 LOG3 POP POP JUMP JUMPDEST PUSH1 0x40 MLOAD PUSH1 0x1 PUSH1 0x1 PUSH1 0xA0 SHL SUB DUP4 AND PUSH1 0x24 DUP3 ADD MSTORE PUSH1 0x44 DUP2 ADD DUP3 SWAP1 MSTORE PUSH2 0x1C57 SWAP1 DUP5 SWAP1 PUSH4 0xA9059CBB PUSH1 0xE0 SHL SWAP1 PUSH1 0x64 ADD JUMPDEST PUSH1 0x40 DUP1 MLOAD PUSH1 0x1F NOT DUP2 DUP5 SUB ADD DUP2 MSTORE SWAP2 SWAP1 MSTORE PUSH1 0x20 DUP2 ADD DUP1 MLOAD PUSH1 0x1 PUSH1 0x1 PUSH1 0xE0 SHL SUB AND PUSH1 0x1 PUSH1 0x1 PUSH1 0xE0 SHL SUB NOT SWAP1 SWAP4 AND SWAP3 SWAP1 SWAP3 OR SWAP1 SWAP2 MSTORE PUSH2 0x1DC6 JUMP JUMPDEST POP POP POP JUMP JUMPDEST PUSH1 0x40 MLOAD PUSH1 0x1 PUSH1 0x1 PUSH1 0xA0 SHL SUB DUP1 DUP6 AND PUSH1 0x24 DUP4 ADD MSTORE DUP4 AND PUSH1 0x44 DUP3 ADD MSTORE PUSH1 0x64 DUP2 ADD DUP3 SWAP1 MSTORE PUSH2 0x1886 SWAP1 DUP6 SWAP1 PUSH4 0x23B872DD PUSH1 0xE0 SHL SWAP1 PUSH1 0x84 ADD PUSH2 0x1C20 JUMP JUMPDEST PUSH1 0x1 PUSH1 0x1 PUSH1 0xA0 SHL SUB DUP3 AND PUSH2 0x1CF4 JUMPI PUSH1 0x40 MLOAD PUSH3 0x461BCD PUSH1 0xE5 SHL DUP2 MSTORE PUSH1 0x20 PUSH1 0x4 DUP3 ADD MSTORE PUSH1 0x21 PUSH1 0x24 DUP3 ADD MSTORE PUSH32 0x45524332303A206275726E2066726F6D20746865207A65726F20616464726573 PUSH1 0x44 DUP3 ADD MSTORE PUSH1 0x73 PUSH1 0xF8 SHL PUSH1 0x64 DUP3 ADD MSTORE PUSH1 0x84 ADD PUSH2 0x770 JUMP JUMPDEST PUSH1 0x1 PUSH1 0x1 PUSH1 0xA0 SHL SUB DUP3 AND PUSH1 0x0 SWAP1 DUP2 MSTORE PUSH1 0x20 DUP2 SWAP1 MSTORE PUSH1 0x40 SWAP1 KECCAK256 SLOAD DUP2 DUP2 LT ISZERO PUSH2 0x1D68 JUMPI PUSH1 0x40 MLOAD PUSH3 0x461BCD PUSH1 0xE5 SHL DUP2 MSTORE PUSH1 0x20 PUSH1 0x4 DUP3 ADD MSTORE PUSH1 0x22 PUSH1 0x24 DUP3 ADD MSTORE PUSH32 0x45524332303A206275726E20616D6F756E7420657863656564732062616C616E PUSH1 0x44 DUP3 ADD MSTORE PUSH2 0x6365 PUSH1 0xF0 SHL PUSH1 0x64 DUP3 ADD MSTORE PUSH1 0x84 ADD PUSH2 0x770 JUMP JUMPDEST PUSH1 0x1 PUSH1 0x1 PUSH1 0xA0 SHL SUB DUP4 AND PUSH1 0x0 DUP2 DUP2 MSTORE PUSH1 0x20 DUP2 DUP2 MSTORE PUSH1 0x40 DUP1 DUP4 KECCAK256 DUP7 DUP7 SUB SWAP1 SSTORE PUSH1 0x2 DUP1 SLOAD DUP8 SWAP1 SUB SWAP1 SSTORE MLOAD DUP6 DUP2 MSTORE SWAP2 SWAP3 SWAP2 PUSH32 0xDDF252AD1BE2C89B69C2B068FC378DAA952BA7F163C4A11628F55A4DF523B3EF SWAP2 ADD PUSH1 0x40 MLOAD DUP1 SWAP2 SUB SWAP1 LOG3 POP POP POP JUMP JUMPDEST PUSH1 0x0 PUSH2 0x1E1B DUP3 PUSH1 0x40 MLOAD DUP1 PUSH1 0x40 ADD PUSH1 0x40 MSTORE DUP1 PUSH1 0x20 DUP2 MSTORE PUSH1 0x20 ADD PUSH32 0x5361666545524332303A206C6F772D6C6576656C2063616C6C206661696C6564 DUP2 MSTORE POP DUP6 PUSH1 0x1 PUSH1 0x1 PUSH1 0xA0 SHL SUB AND PUSH2 0x1E9B SWAP1 SWAP3 SWAP2 SWAP1 PUSH4 0xFFFFFFFF AND JUMP JUMPDEST SWAP1 POP DUP1 MLOAD PUSH1 0x0 EQ DUP1 PUSH2 0x1E3C JUMPI POP DUP1 DUP1 PUSH1 0x20 ADD SWAP1 MLOAD DUP2 ADD SWAP1 PUSH2 0x1E3C SWAP2 SWAP1 PUSH2 0x21BC JUMP JUMPDEST PUSH2 0x1C57 JUMPI PUSH1 0x40 MLOAD PUSH3 0x461BCD PUSH1 0xE5 SHL DUP2 MSTORE PUSH1 0x20 PUSH1 0x4 DUP3 ADD MSTORE PUSH1 0x2A PUSH1 0x24 DUP3 ADD MSTORE PUSH32 0x5361666545524332303A204552433230206F7065726174696F6E20646964206E PUSH1 0x44 DUP3 ADD MSTORE PUSH10 0x1BDD081CDD58D8D95959 PUSH1 0xB2 SHL PUSH1 0x64 DUP3 ADD MSTORE PUSH1 0x84 ADD PUSH2 0x770 JUMP JUMPDEST PUSH1 0x60 PUSH2 0x99D DUP5 DUP5 PUSH1 0x0 DUP6 DUP6 PUSH1 0x0 DUP1 DUP7 PUSH1 0x1 PUSH1 0x1 PUSH1 0xA0 SHL SUB AND DUP6 DUP8 PUSH1 0x40 MLOAD PUSH2 0x1EC2 SWAP2 SWAP1 PUSH2 0x2377 JUMP JUMPDEST PUSH1 0x0 PUSH1 0x40 MLOAD DUP1 DUP4 SUB DUP2 DUP6 DUP8 GAS CALL SWAP3 POP POP POP RETURNDATASIZE DUP1 PUSH1 0x0 DUP2 EQ PUSH2 0x1EFF JUMPI PUSH1 0x40 MLOAD SWAP2 POP PUSH1 0x1F NOT PUSH1 0x3F RETURNDATASIZE ADD AND DUP3 ADD PUSH1 0x40 MSTORE RETURNDATASIZE DUP3 MSTORE RETURNDATASIZE PUSH1 0x0 PUSH1 0x20 DUP5 ADD RETURNDATACOPY PUSH2 0x1F04 JUMP JUMPDEST PUSH1 0x60 SWAP2 POP JUMPDEST POP SWAP2 POP SWAP2 POP PUSH2 0x1F15 DUP8 DUP4 DUP4 DUP8 PUSH2 0x1F20 JUMP JUMPDEST SWAP8 SWAP7 POP POP POP POP POP POP POP JUMP JUMPDEST PUSH1 0x60 DUP4 ISZERO PUSH2 0x1F8F JUMPI DUP3 MLOAD PUSH1 0x0 SUB PUSH2 0x1F88 JUMPI PUSH1 0x1 PUSH1 0x1 PUSH1 0xA0 SHL SUB DUP6 AND EXTCODESIZE PUSH2 0x1F88 JUMPI PUSH1 0x40 MLOAD PUSH3 0x461BCD PUSH1 0xE5 SHL DUP2 MSTORE PUSH1 0x20 PUSH1 0x4 DUP3 ADD MSTORE PUSH1 0x1D PUSH1 0x24 DUP3 ADD MSTORE PUSH32 0x416464726573733A2063616C6C20746F206E6F6E2D636F6E7472616374000000 PUSH1 0x44 DUP3 ADD MSTORE PUSH1 0x64 ADD PUSH2 0x770 JUMP JUMPDEST POP DUP2 PUSH2 0x99D JUMP JUMPDEST PUSH2 0x99D DUP4 DUP4 DUP2 MLOAD ISZERO PUSH2 0x1FA4 JUMPI DUP2 MLOAD DUP1 DUP4 PUSH1 0x20 ADD REVERT JUMPDEST DUP1 PUSH1 0x40 MLOAD PUSH3 0x461BCD PUSH1 0xE5 SHL DUP2 MSTORE PUSH1 0x4 ADD PUSH2 0x770 SWAP2 SWAP1 PUSH2 0x1FFB JUMP JUMPDEST PUSH1 0x0 PUSH1 0x20 DUP3 DUP5 SUB SLT ISZERO PUSH2 0x1FD0 JUMPI PUSH1 0x0 DUP1 REVERT JUMPDEST POP CALLDATALOAD SWAP2 SWAP1 POP JUMP JUMPDEST PUSH1 0x0 JUMPDEST DUP4 DUP2 LT ISZERO PUSH2 0x1FF2 JUMPI DUP2 DUP2 ADD MLOAD DUP4 DUP3 ADD MSTORE PUSH1 0x20 ADD PUSH2 0x1FDA JUMP JUMPDEST POP POP PUSH1 0x0 SWAP2 ADD MSTORE JUMP JUMPDEST PUSH1 0x20 DUP2 MSTORE PUSH1 0x0 DUP3 MLOAD DUP1 PUSH1 0x20 DUP5 ADD MSTORE PUSH2 0x201A DUP2 PUSH1 0x40 DUP6 ADD PUSH1 0x20 DUP8 ADD PUSH2 0x1FD7 JUMP JUMPDEST PUSH1 0x1F ADD PUSH1 0x1F NOT AND SWAP2 SWAP1 SWAP2 ADD PUSH1 0x40 ADD SWAP3 SWAP2 POP POP JUMP JUMPDEST PUSH1 0x1 PUSH1 0x1 PUSH1 0xA0 SHL SUB DUP2 AND DUP2 EQ PUSH2 0xC8F JUMPI PUSH1 0x0 DUP1 REVERT JUMPDEST PUSH1 0x0 DUP1 PUSH1 0x40 DUP4 DUP6 SUB SLT ISZERO PUSH2 0x2056 JUMPI PUSH1 0x0 DUP1 REVERT JUMPDEST DUP3 CALLDATALOAD PUSH2 0x2061 DUP2 PUSH2 0x202E JUMP JUMPDEST SWAP5 PUSH1 0x20 SWAP4 SWAP1 SWAP4 ADD CALLDATALOAD SWAP4 POP POP POP JUMP JUMPDEST PUSH1 0x0 DUP1 PUSH1 0x0 PUSH1 0x60 DUP5 DUP7 SUB SLT ISZERO PUSH2 0x2084 JUMPI PUSH1 0x0 DUP1 REVERT JUMPDEST DUP4 CALLDATALOAD PUSH2 0x208F DUP2 PUSH2 0x202E JUMP JUMPDEST SWAP3 POP PUSH1 0x20 DUP5 ADD CALLDATALOAD PUSH2 0x209F DUP2 PUSH2 0x202E JUMP JUMPDEST SWAP3 SWAP6 SWAP3 SWAP5 POP POP POP PUSH1 0x40 SWAP2 SWAP1 SWAP2 ADD CALLDATALOAD SWAP1 JUMP JUMPDEST PUSH1 0x0 PUSH1 0x20 DUP3 DUP5 SUB SLT ISZERO PUSH2 0x20C2 JUMPI PUSH1 0x0 DUP1 REVERT JUMPDEST DUP2 CALLDATALOAD PUSH2 0x20CD DUP2 PUSH2 0x202E JUMP JUMPDEST SWAP4 SWAP3 POP POP POP JUMP JUMPDEST PUSH1 0x0 DUP1 PUSH1 0x40 DUP4 DUP6 SUB SLT ISZERO PUSH2 0x20E7 JUMPI PUSH1 0x0 DUP1 REVERT JUMPDEST DUP3 CALLDATALOAD PUSH2 0x20F2 DUP2 PUSH2 0x202E JUMP JUMPDEST SWAP2 POP PUSH1 0x20 DUP4 ADD CALLDATALOAD PUSH2 0x2102 DUP2 PUSH2 0x202E JUMP JUMPDEST DUP1 SWAP2 POP POP SWAP3 POP SWAP3 SWAP1 POP JUMP JUMPDEST PUSH1 0x1 DUP2 DUP2 SHR SWAP1 DUP3 AND DUP1 PUSH2 0x2121 JUMPI PUSH1 0x7F DUP3 AND SWAP2 POP JUMPDEST PUSH1 0x20 DUP3 LT DUP2 SUB PUSH2 0x2141 JUMPI PUSH4 0x4E487B71 PUSH1 0xE0 SHL PUSH1 0x0 MSTORE PUSH1 0x22 PUSH1 0x4 MSTORE PUSH1 0x24 PUSH1 0x0 REVERT JUMPDEST POP SWAP2 SWAP1 POP JUMP JUMPDEST PUSH4 0x4E487B71 PUSH1 0xE0 SHL PUSH1 0x0 MSTORE PUSH1 0x11 PUSH1 0x4 MSTORE PUSH1 0x24 PUSH1 0x0 REVERT JUMPDEST DUP1 DUP3 ADD DUP1 DUP3 GT ISZERO PUSH2 0x6ED JUMPI PUSH2 0x6ED PUSH2 0x2147 JUMP JUMPDEST PUSH1 0x0 DUP3 PUSH2 0x218D JUMPI PUSH4 0x4E487B71 PUSH1 0xE0 SHL PUSH1 0x0 MSTORE PUSH1 0x12 PUSH1 0x4 MSTORE PUSH1 0x24 PUSH1 0x0 REVERT JUMPDEST POP DIV SWAP1 JUMP JUMPDEST DUP2 DUP2 SUB DUP2 DUP2 GT ISZERO PUSH2 0x6ED JUMPI PUSH2 0x6ED PUSH2 0x2147 JUMP JUMPDEST DUP1 DUP3 MUL DUP2 ISZERO DUP3 DUP3 DIV DUP5 EQ OR PUSH2 0x6ED JUMPI PUSH2 0x6ED PUSH2 0x2147 JUMP JUMPDEST PUSH1 0x0 PUSH1 0x20 DUP3 DUP5 SUB SLT ISZERO PUSH2 0x21CE JUMPI PUSH1 0x0 DUP1 REVERT JUMPDEST DUP2 MLOAD DUP1 ISZERO ISZERO DUP2 EQ PUSH2 0x20CD JUMPI PUSH1 0x0 DUP1 REVERT JUMPDEST PUSH1 0x0 PUSH1 0x20 DUP3 DUP5 SUB SLT ISZERO PUSH2 0x21F0 JUMPI PUSH1 0x0 DUP1 REVERT JUMPDEST POP MLOAD SWAP2 SWAP1 POP JUMP JUMPDEST PUSH1 0x0 PUSH1 0x20 DUP3 DUP5 SUB SLT ISZERO PUSH2 0x2209 JUMPI PUSH1 0x0 DUP1 REVERT JUMPDEST DUP2 MLOAD PUSH2 0x20CD DUP2 PUSH2 0x202E JUMP JUMPDEST PUSH1 0x20 DUP1 DUP3 MSTORE PUSH1 0x21 SWAP1 DUP3 ADD MSTORE PUSH32 0x54726164696E672064697361626C65642061667465722067726164756174696F PUSH1 0x40 DUP3 ADD MSTORE PUSH1 0x37 PUSH1 0xF9 SHL PUSH1 0x60 DUP3 ADD MSTORE PUSH1 0x80 ADD SWAP1 JUMP JUMPDEST PUSH1 0x1 DUP2 DUP2 JUMPDEST DUP1 DUP6 GT ISZERO PUSH2 0x2290 JUMPI DUP2 PUSH1 0x0 NOT DIV DUP3 GT ISZERO PUSH2 0x2276 JUMPI PUSH2 0x2276 PUSH2 0x2147 JUMP JUMPDEST DUP1 DUP6 AND ISZERO PUSH2 0x2283 JUMPI SWAP2 DUP2 MUL SWAP2 JUMPDEST SWAP4 DUP5 SHR SWAP4 SWAP1 DUP1 MUL SWAP1 PUSH2 0x225A JUMP JUMPDEST POP SWAP3 POP SWAP3 SWAP1 POP JUMP JUMPDEST PUSH1 0x0 DUP3 PUSH2 0x22A7 JUMPI POP PUSH1 0x1 PUSH2 0x6ED JUMP JUMPDEST DUP2 PUSH2 0x22B4 JUMPI POP PUSH1 0x0 PUSH2 0x6ED JUMP JUMPDEST DUP2 PUSH1 0x1 DUP2 EQ PUSH2 0x22CA JUMPI PUSH1 0x2 DUP2 EQ PUSH2 0x22D4 JUMPI PUSH2 0x22F0 JUMP JUMPDEST PUSH1 0x1 SWAP2 POP POP PUSH2 0x6ED JUMP JUMPDEST PUSH1 0xFF DUP5 GT ISZERO PUSH2 0x22E5 JUMPI PUSH2 0x22E5 PUSH2 0x2147 JUMP JUMPDEST POP POP PUSH1 0x1 DUP3 SHL PUSH2 0x6ED JUMP JUMPDEST POP PUSH1 0x20 DUP4 LT PUSH2 0x133 DUP4 LT AND PUSH1 0x4E DUP5 LT PUSH1 0xB DUP5 LT AND OR ISZERO PUSH2 0x2313 JUMPI POP DUP2 DUP2 EXP PUSH2 0x6ED JUMP JUMPDEST PUSH2 0x231D DUP4 DUP4 PUSH2 0x2255 JUMP JUMPDEST DUP1 PUSH1 0x0 NOT DIV DUP3 GT ISZERO PUSH2 0x2331 JUMPI PUSH2 0x2331 PUSH2 0x2147 JUMP JUMPDEST MUL SWAP4 SWAP3 POP POP POP JUMP JUMPDEST PUSH1 0x0 PUSH2 0x20CD PUSH1 0xFF DUP5 AND DUP4 PUSH2 0x2298 JUMP JUMPDEST PUSH4 0x4E487B71 PUSH1 0xE0 SHL PUSH1 0x0 MSTORE PUSH1 0x32 PUSH1 0x4 MSTORE PUSH1 0x24 PUSH1 0x0 REVERT JUMPDEST PUSH1 0x0 PUSH1 0x1 DUP3 ADD PUSH2 0x2370 JUMPI PUSH2 0x2370 PUSH2 0x2147 JUMP JUMPDEST POP PUSH1 0x1 ADD SWAP1 JUMP JUMPDEST PUSH1 0x0 DUP3 MLOAD PUSH2 0x2389 DUP2 DUP5 PUSH1 0x20 DUP8 ADD PUSH2 0x1FD7 JUMP JUMPDEST SWAP2 SWAP1 SWAP2 ADD SWAP3 SWAP2 POP POP JUMP INVALID LOG2 PUSH5 0x6970667358 0x22 SLT KECCAK256 PUSH22 0xE3432D3A01BC750386E76A3EFF713E8B71A377183AFF 0xE3 0xC1 0xC3 PUSH15 0xF301221AFA64736F6C634300081400 CALLER LOG2 PUSH5 0x6970667358 0x22 SLT KECCAK256 DUP16 0x24 0xC1 SELFDESTRUCT DUP9 0xCF RETURNDATASIZE MSIZE CREATE PUSH4 0x139118A6 PUSH29 0x3C95AAF44724B0179DE72FE8CAF757BC3264736F6C6343000814003300 "},"methodIdentifiers":{"USDT()":"c54e44eb","claimCreatorTokens(address)":"1110b8ac","createToken(string,string,string)":"94aed7d0","createdTokens(uint256)":"d782d647","creatorTokens(address,uint256)":"db3fa4cc","getAllTokens()":"2a5c792a","getCreatorTokens(address)":"74abfa54","getGraduatedTokens()":"ca10e481","getSwapPair(address)":"d5afd0ac","graduateToken(address,uint256,uint256)":"2097c4bd","graduatedTokens(uint256)":"1a4bc34e","graduationRegistry()":"d1db3558","gravityScoreSystem()":"0cb849dd","isTokenCreator(address,address)":"ae6862ff","isTokenGraduated(address)":"388e8fd2","owner()":"8da5cb5b","renounceOwnership()":"715018a6","setGraduationAddresses(address,address)":"65b7ce47","swapFactory()":"7944f944","tokenData(address)":"27e45c2c","tokenToPair(address)":"8a047d5e","transferOwnership(address)":"f2fde38b","treasury()":"61d027b3","updateGravityScore(address,uint256)":"58f36340","updateGravityScoreSystem(address)":"8d015961","updateTreasury(address)":"7f51bb1f"}}}}}