{"contracts/GravityScoreSystem.sol":{"GravityScoreSystem":{"abi":[{"inputs":[],"stateMutability":"nonpayable","type":"constructor"},{"anonymous":false,"inputs":[{"indexed":true,"internalType":"address","name":"previousOwner","type":"address"},{"indexed":true,"internalType":"address","name":"newOwner","type":"address"}],"name":"OwnershipTransferred","type":"event"},{"anonymous":false,"inputs":[{"indexed":true,"internalType":"address","name":"tokenAddress","type":"address"},{"indexed":false,"internalType":"uint256","name":"newScore","type":"uint256"},{"indexed":false,"internalType":"uint256","name":"timestamp","type":"uint256"}],"name":"ScoreUpdated","type":"event"},{"inputs":[{"internalType":"address[]","name":"_tokenAddresses","type":"address[]"},{"internalType":"uint256[]","name":"_newScores","type":"uint256[]"}],"name":"batchUpdateScores","outputs":[],"stateMutability":"nonpayable","type":"function"},{"inputs":[{"internalType":"address","name":"_tokenAddress","type":"address"}],"name":"getLastUpdateTime","outputs":[{"internalType":"uint256","name":"","type":"uint256"}],"stateMutability":"view","type":"function"},{"inputs":[{"internalType":"address","name":"_tokenAddress","type":"address"}],"name":"getScore","outputs":[{"internalType":"uint256","name":"","type":"uint256"}],"stateMutability":"view","type":"function"},{"inputs":[{"internalType":"address","name":"","type":"address"}],"name":"lastScoreUpdate","outputs":[{"internalType":"uint256","name":"","type":"uint256"}],"stateMutability":"view","type":"function"},{"inputs":[],"name":"owner","outputs":[{"internalType":"address","name":"","type":"address"}],"stateMutability":"view","type":"function"},{"inputs":[],"name":"renounceOwnership","outputs":[],"stateMutability":"nonpayable","type":"function"},{"inputs":[{"internalType":"address","name":"_tokenFactory","type":"address"}],"name":"setTokenFactory","outputs":[],"stateMutability":"nonpayable","type":"function"},{"inputs":[],"name":"tokenFactory","outputs":[{"internalType":"address","name":"","type":"address"}],"stateMutability":"view","type":"function"},{"inputs":[{"internalType":"address","name":"","type":"address"}],"name":"tokenScores","outputs":[{"internalType":"uint256","name":"","type":"uint256"}],"stateMutability":"view","type":"function"},{"inputs":[{"internalType":"address","name":"newOwner","type":"address"}],"name":"transferOwnership","outputs":[],"stateMutability":"nonpayable","type":"function"},{"inputs":[{"internalType":"address","name":"_tokenAddress","type":"address"},{"internalType":"uint256","name":"_newScore","type":"uint256"}],"name":"updateScore","outputs":[],"stateMutability":"nonpayable","type":"function"}],"evm":{"bytecode":{"linkReferences":{},"object":"608060405234801561001057600080fd5b5061001a3361001f565b61006f565b600080546001600160a01b038381166001600160a01b0319831681178455604051919092169283917f8be0079c531659141344cd1fd0a4f28419497f9722a3daafe3b4186f6b6457e09190a35050565b6108c78061007e6000396000f3fe608060405234801561001057600080fd5b50600436106100a95760003560e01c80638da5cb5b116100715780638da5cb5b1461012d578063ca8b052f14610152578063d47875d014610172578063e0690d991461019b578063e77772fe146101bb578063f2fde38b146101ce57600080fd5b80632f73a9f8146100ae578063340458da146100c357806365d97724146100d65780636e8c271b146100e9578063715018a614610125575b600080fd5b6100c16100bc366004610750565b6101e1565b005b6100c16100d13660046107be565b61020b565b6100c16100e436600461082a565b6104d4565b6101126100f7366004610750565b6001600160a01b031660009081526003602052604090205490565b6040519081526020015b60405180910390f35b6100c16105fd565b6000546001600160a01b03165b6040516001600160a01b03909116815260200161011c565b610112610160366004610750565b60036020526000908152604090205481565b610112610180366004610750565b6001600160a01b031660009081526002602052604090205490565b6101126101a9366004610750565b60026020526000908152604090205481565b60015461013a906001600160a01b031681565b6100c16101dc366004610750565b610611565b6101e961068a565b600180546001600160a01b0319166001600160a01b0392909216919091179055565b61021361068a565b8281146102605760405162461bcd60e51b8152602060048201526016602482015275082e4e4c2f2e640d8cadccee8d040dad2e6dac2e8c6d60531b60448201526064015b60405180910390fd5b60005b838110156104cd576103e883838381811061028057610280610854565b9050602002013511156102d55760405162461bcd60e51b815260206004820181905260248201527f477261766974792053636f72652063616e6e6f742065786365656420313030306044820152606401610257565b8282828181106102e7576102e7610854565b905060200201356002600087878581811061030457610304610854565b90506020020160208101906103199190610750565b6001600160a01b03166001600160a01b0316815260200190815260200160002081905550426003600087878581811061035457610354610854565b90506020020160208101906103699190610750565b6001600160a01b039081168252602082019290925260400160002091909155600154166358f363408686848181106103a3576103a3610854565b90506020020160208101906103b89190610750565b8585858181106103ca576103ca610854565b6040516001600160e01b031960e087901b1681526001600160a01b0390941660048501526020029190910135602483015250604401600060405180830381600087803b15801561041957600080fd5b505af115801561042d573d6000803e3d6000fd5b5050505084848281811061044357610443610854565b90506020020160208101906104589190610750565b6001600160a01b03167f91878448ef87c3db4aeb83e60e7deb1240ecae3fd04975ec93547398514cb4ed84848481811061049457610494610854565b90506020020135426040516104b3929190918252602082015260400190565b60405180910390a2806104c58161086a565b915050610263565b5050505050565b6104dc61068a565b6103e881111561052e5760405162461bcd60e51b815260206004820181905260248201527f477261766974792053636f72652063616e6e6f742065786365656420313030306044820152606401610257565b6001600160a01b0382811660008181526002602090815260408083208690556003909152908190204290556001549051630163cd8d60e61b8152600481019290925260248201849052909116906358f3634090604401600060405180830381600087803b15801561059e57600080fd5b505af11580156105b2573d6000803e3d6000fd5b5050604080518481524260208201526001600160a01b03861693507f91878448ef87c3db4aeb83e60e7deb1240ecae3fd04975ec93547398514cb4ed92500160405180910390a25050565b61060561068a565b61060f60006106e4565b565b61061961068a565b6001600160a01b03811661067e5760405162461bcd60e51b815260206004820152602660248201527f4f776e61626c653a206e6577206f776e657220697320746865207a65726f206160448201526564647265737360d01b6064820152608401610257565b610687816106e4565b50565b6000546001600160a01b0316331461060f5760405162461bcd60e51b815260206004820181905260248201527f4f776e61626c653a2063616c6c6572206973206e6f7420746865206f776e65726044820152606401610257565b600080546001600160a01b038381166001600160a01b0319831681178455604051919092169283917f8be0079c531659141344cd1fd0a4f28419497f9722a3daafe3b4186f6b6457e09190a35050565b80356001600160a01b038116811461074b57600080fd5b919050565b60006020828403121561076257600080fd5b61076b82610734565b9392505050565b60008083601f84011261078457600080fd5b50813567ffffffffffffffff81111561079c57600080fd5b6020830191508360208260051b85010111156107b757600080fd5b9250929050565b600080600080604085870312156107d457600080fd5b843567ffffffffffffffff808211156107ec57600080fd5b6107f888838901610772565b9096509450602087013591508082111561081157600080fd5b5061081e87828801610772565b95989497509550505050565b6000806040838503121561083d57600080fd5b61084683610734565b946020939093013593505050565b634e487b7160e01b600052603260045260246000fd5b60006001820161088a57634e487b7160e01b600052601160045260246000fd5b506001019056fea2646970667358221220a235a4b88d25e70e7fd6253297ed1a12063a4980f7015f9d1e994b6a80f6d97e64736f6c63430008140033","opcodes":"PUSH1 0x80 PUSH1 0x40 MSTORE CALLVALUE DUP1 ISZERO PUSH2 0x10 JUMPI PUSH1 0x0 DUP1 REVERT JUMPDEST POP PUSH2 0x1A CALLER PUSH2 0x1F JUMP JUMPDEST PUSH2 0x6F JUMP JUMPDEST PUSH1 0x0 DUP1 SLOAD PUSH1 0x1 PUSH1 0x1 PUSH1 0xA0 SHL SUB DUP4 DUP2 AND PUSH1 0x1 PUSH1 0x1 PUSH1 0xA0 SHL SUB NOT DUP4 AND DUP2 OR DUP5 SSTORE PUSH1 0x40 MLOAD SWAP2 SWAP1 SWAP3 AND SWAP3 DUP4 SWAP2 PUSH32 0x8BE0079C531659141344CD1FD0A4F28419497F9722A3DAAFE3B4186F6B6457E0 SWAP2 SWAP1 LOG3 POP POP JUMP JUMPDEST PUSH2 0x8C7 DUP1 PUSH2 0x7E PUSH1 0x0 CODECOPY PUSH1 0x0 RETURN INVALID PUSH1 0x80 PUSH1 0x40 MSTORE CALLVALUE DUP1 ISZERO PUSH2 0x10 JUMPI PUSH1 0x0 DUP1 REVERT JUMPDEST POP PUSH1 0x4 CALLDATASIZE LT PUSH2 0xA9 JUMPI PUSH1 0x0 CALLDATALOAD PUSH1 0xE0 SHR DUP1 PUSH4 0x8DA5CB5B GT PUSH2 0x71 JUMPI DUP1 PUSH4 0x8DA5CB5B EQ PUSH2 0x12D JUMPI DUP1 PUSH4 0xCA8B052F EQ PUSH2 0x152 JUMPI DUP1 PUSH4 0xD47875D0 EQ PUSH2 0x172 JUMPI DUP1 PUSH4 0xE0690D99 EQ PUSH2 0x19B JUMPI DUP1 PUSH4 0xE77772FE EQ PUSH2 0x1BB JUMPI DUP1 PUSH4 0xF2FDE38B EQ PUSH2 0x1CE JUMPI PUSH1 0x0 DUP1 REVERT JUMPDEST DUP1 PUSH4 0x2F73A9F8 EQ PUSH2 0xAE JUMPI DUP1 PUSH4 0x340458DA EQ PUSH2 0xC3 JUMPI DUP1 PUSH4 0x65D97724 EQ PUSH2 0xD6 JUMPI DUP1 PUSH4 0x6E8C271B EQ PUSH2 0xE9 JUMPI DUP1 PUSH4 0x715018A6 EQ PUSH2 0x125 JUMPI JUMPDEST PUSH1 0x0 DUP1 REVERT JUMPDEST PUSH2 0xC1 PUSH2 0xBC CALLDATASIZE PUSH1 0x4 PUSH2 0x750 JUMP JUMPDEST PUSH2 0x1E1 JUMP JUMPDEST STOP JUMPDEST PUSH2 0xC1 PUSH2 0xD1 CALLDATASIZE PUSH1 0x4 PUSH2 0x7BE JUMP JUMPDEST PUSH2 0x20B JUMP JUMPDEST PUSH2 0xC1 PUSH2 0xE4 CALLDATASIZE PUSH1 0x4 PUSH2 0x82A JUMP JUMPDEST PUSH2 0x4D4 JUMP JUMPDEST PUSH2 0x112 PUSH2 0xF7 CALLDATASIZE PUSH1 0x4 PUSH2 0x750 JUMP JUMPDEST PUSH1 0x1 PUSH1 0x1 PUSH1 0xA0 SHL SUB AND PUSH1 0x0 SWAP1 DUP2 MSTORE PUSH1 0x3 PUSH1 0x20 MSTORE PUSH1 0x40 SWAP1 KECCAK256 SLOAD SWAP1 JUMP JUMPDEST PUSH1 0x40 MLOAD SWAP1 DUP2 MSTORE PUSH1 0x20 ADD JUMPDEST PUSH1 0x40 MLOAD DUP1 SWAP2 SUB SWAP1 RETURN JUMPDEST PUSH2 0xC1 PUSH2 0x5FD JUMP JUMPDEST PUSH1 0x0 SLOAD PUSH1 0x1 PUSH1 0x1 PUSH1 0xA0 SHL SUB AND JUMPDEST PUSH1 0x40 MLOAD PUSH1 0x1 PUSH1 0x1 PUSH1 0xA0 SHL SUB SWAP1 SWAP2 AND DUP2 MSTORE PUSH1 0x20 ADD PUSH2 0x11C JUMP JUMPDEST PUSH2 0x112 PUSH2 0x160 CALLDATASIZE PUSH1 0x4 PUSH2 0x750 JUMP JUMPDEST PUSH1 0x3 PUSH1 0x20 MSTORE PUSH1 0x0 SWAP1 DUP2 MSTORE PUSH1 0x40 SWAP1 KECCAK256 SLOAD DUP2 JUMP JUMPDEST PUSH2 0x112 PUSH2 0x180 CALLDATASIZE PUSH1 0x4 PUSH2 0x750 JUMP JUMPDEST PUSH1 0x1 PUSH1 0x1 PUSH1 0xA0 SHL SUB AND PUSH1 0x0 SWAP1 DUP2 MSTORE PUSH1 0x2 PUSH1 0x20 MSTORE PUSH1 0x40 SWAP1 KECCAK256 SLOAD SWAP1 JUMP JUMPDEST PUSH2 0x112 PUSH2 0x1A9 CALLDATASIZE PUSH1 0x4 PUSH2 0x750 JUMP JUMPDEST PUSH1 0x2 PUSH1 0x20 MSTORE PUSH1 0x0 SWAP1 DUP2 MSTORE PUSH1 0x40 SWAP1 KECCAK256 SLOAD DUP2 JUMP JUMPDEST PUSH1 0x1 SLOAD PUSH2 0x13A SWAP1 PUSH1 0x1 PUSH1 0x1 PUSH1 0xA0 SHL SUB AND DUP2 JUMP JUMPDEST PUSH2 0xC1 PUSH2 0x1DC CALLDATASIZE PUSH1 0x4 PUSH2 0x750 JUMP JUMPDEST PUSH2 0x611 JUMP JUMPDEST PUSH2 0x1E9 PUSH2 0x68A JUMP JUMPDEST PUSH1 0x1 DUP1 SLOAD PUSH1 0x1 PUSH1 0x1 PUSH1 0xA0 SHL SUB NOT AND PUSH1 0x1 PUSH1 0x1 PUSH1 0xA0 SHL SUB SWAP3 SWAP1 SWAP3 AND SWAP2 SWAP1 SWAP2 OR SWAP1 SSTORE JUMP JUMPDEST PUSH2 0x213 PUSH2 0x68A JUMP JUMPDEST DUP3 DUP2 EQ PUSH2 0x260 JUMPI PUSH1 0x40 MLOAD PUSH3 0x461BCD PUSH1 0xE5 SHL DUP2 MSTORE PUSH1 0x20 PUSH1 0x4 DUP3 ADD MSTORE PUSH1 0x16 PUSH1 0x24 DUP3 ADD MSTORE PUSH22 0x82E4E4C2F2E640D8CADCCEE8D040DAD2E6DAC2E8C6D PUSH1 0x53 SHL PUSH1 0x44 DUP3 ADD MSTORE PUSH1 0x64 ADD JUMPDEST PUSH1 0x40 MLOAD DUP1 SWAP2 SUB SWAP1 REVERT JUMPDEST PUSH1 0x0 JUMPDEST DUP4 DUP2 LT ISZERO PUSH2 0x4CD JUMPI PUSH2 0x3E8 DUP4 DUP4 DUP4 DUP2 DUP2 LT PUSH2 0x280 JUMPI PUSH2 0x280 PUSH2 0x854 JUMP JUMPDEST SWAP1 POP PUSH1 0x20 MUL ADD CALLDATALOAD GT ISZERO PUSH2 0x2D5 JUMPI PUSH1 0x40 MLOAD PUSH3 0x461BCD PUSH1 0xE5 SHL DUP2 MSTORE PUSH1 0x20 PUSH1 0x4 DUP3 ADD DUP2 SWAP1 MSTORE PUSH1 0x24 DUP3 ADD MSTORE PUSH32 0x477261766974792053636F72652063616E6E6F74206578636565642031303030 PUSH1 0x44 DUP3 ADD MSTORE PUSH1 0x64 ADD PUSH2 0x257 JUMP JUMPDEST DUP3 DUP3 DUP3 DUP2 DUP2 LT PUSH2 0x2E7 JUMPI PUSH2 0x2E7 PUSH2 0x854 JUMP JUMPDEST SWAP1 POP PUSH1 0x20 MUL ADD CALLDATALOAD PUSH1 0x2 PUSH1 0x0 DUP8 DUP8 DUP6 DUP2 DUP2 LT PUSH2 0x304 JUMPI PUSH2 0x304 PUSH2 0x854 JUMP JUMPDEST SWAP1 POP PUSH1 0x20 MUL ADD PUSH1 0x20 DUP2 ADD SWAP1 PUSH2 0x319 SWAP2 SWAP1 PUSH2 0x750 JUMP JUMPDEST PUSH1 0x1 PUSH1 0x1 PUSH1 0xA0 SHL SUB AND PUSH1 0x1 PUSH1 0x1 PUSH1 0xA0 SHL SUB AND DUP2 MSTORE PUSH1 0x20 ADD SWAP1 DUP2 MSTORE PUSH1 0x20 ADD PUSH1 0x0 KECCAK256 DUP2 SWAP1 SSTORE POP TIMESTAMP PUSH1 0x3 PUSH1 0x0 DUP8 DUP8 DUP6 DUP2 DUP2 LT PUSH2 0x354 JUMPI PUSH2 0x354 PUSH2 0x854 JUMP JUMPDEST SWAP1 POP PUSH1 0x20 MUL ADD PUSH1 0x20 DUP2 ADD SWAP1 PUSH2 0x369 SWAP2 SWAP1 PUSH2 0x750 JUMP JUMPDEST PUSH1 0x1 PUSH1 0x1 PUSH1 0xA0 SHL SUB SWAP1 DUP2 AND DUP3 MSTORE PUSH1 0x20 DUP3 ADD SWAP3 SWAP1 SWAP3 MSTORE PUSH1 0x40 ADD PUSH1 0x0 KECCAK256 SWAP2 SWAP1 SWAP2 SSTORE PUSH1 0x1 SLOAD AND PUSH4 0x58F36340 DUP7 DUP7 DUP5 DUP2 DUP2 LT PUSH2 0x3A3 JUMPI PUSH2 0x3A3 PUSH2 0x854 JUMP JUMPDEST SWAP1 POP PUSH1 0x20 MUL ADD PUSH1 0x20 DUP2 ADD SWAP1 PUSH2 0x3B8 SWAP2 SWAP1 PUSH2 0x750 JUMP JUMPDEST DUP6 DUP6 DUP6 DUP2 DUP2 LT PUSH2 0x3CA JUMPI PUSH2 0x3CA PUSH2 0x854 JUMP JUMPDEST PUSH1 0x40 MLOAD PUSH1 0x1 PUSH1 0x1 PUSH1 0xE0 SHL SUB NOT PUSH1 0xE0 DUP8 SWAP1 SHL AND DUP2 MSTORE PUSH1 0x1 PUSH1 0x1 PUSH1 0xA0 SHL SUB SWAP1 SWAP5 AND PUSH1 0x4 DUP6 ADD MSTORE PUSH1 0x20 MUL SWAP2 SWAP1 SWAP2 ADD CALLDATALOAD PUSH1 0x24 DUP4 ADD MSTORE POP PUSH1 0x44 ADD PUSH1 0x0 PUSH1 0x40 MLOAD DUP1 DUP4 SUB DUP2 PUSH1 0x0 DUP8 DUP1 EXTCODESIZE ISZERO DUP1 ISZERO PUSH2 0x419 JUMPI PUSH1 0x0 DUP1 REVERT JUMPDEST POP GAS CALL ISZERO DUP1 ISZERO PUSH2 0x42D JUMPI RETURNDATASIZE PUSH1 0x0 DUP1 RETURNDATACOPY RETURNDATASIZE PUSH1 0x0 REVERT JUMPDEST POP POP POP POP DUP5 DUP5 DUP3 DUP2 DUP2 LT PUSH2 0x443 JUMPI PUSH2 0x443 PUSH2 0x854 JUMP JUMPDEST SWAP1 POP PUSH1 0x20 MUL ADD PUSH1 0x20 DUP2 ADD SWAP1 PUSH2 0x458 SWAP2 SWAP1 PUSH2 0x750 JUMP JUMPDEST PUSH1 0x1 PUSH1 0x1 PUSH1 0xA0 SHL SUB AND PUSH32 0x91878448EF87C3DB4AEB83E60E7DEB1240ECAE3FD04975EC93547398514CB4ED DUP5 DUP5 DUP5 DUP2 DUP2 LT PUSH2 0x494 JUMPI PUSH2 0x494 PUSH2 0x854 JUMP JUMPDEST SWAP1 POP PUSH1 0x20 MUL ADD CALLDATALOAD TIMESTAMP PUSH1 0x40 MLOAD PUSH2 0x4B3 SWAP3 SWAP2 SWAP1 SWAP2 DUP3 MSTORE PUSH1 0x20 DUP3 ADD MSTORE PUSH1 0x40 ADD SWAP1 JUMP JUMPDEST PUSH1 0x40 MLOAD DUP1 SWAP2 SUB SWAP1 LOG2 DUP1 PUSH2 0x4C5 DUP2 PUSH2 0x86A JUMP JUMPDEST SWAP2 POP POP PUSH2 0x263 JUMP JUMPDEST POP POP POP POP POP JUMP JUMPDEST PUSH2 0x4DC PUSH2 0x68A JUMP JUMPDEST PUSH2 0x3E8 DUP2 GT ISZERO PUSH2 0x52E JUMPI PUSH1 0x40 MLOAD PUSH3 0x461BCD PUSH1 0xE5 SHL DUP2 MSTORE PUSH1 0x20 PUSH1 0x4 DUP3 ADD DUP2 SWAP1 MSTORE PUSH1 0x24 DUP3 ADD MSTORE PUSH32 0x477261766974792053636F72652063616E6E6F74206578636565642031303030 PUSH1 0x44 DUP3 ADD MSTORE PUSH1 0x64 ADD PUSH2 0x257 JUMP JUMPDEST PUSH1 0x1 PUSH1 0x1 PUSH1 0xA0 SHL SUB DUP3 DUP2 AND PUSH1 0x0 DUP2 DUP2 MSTORE PUSH1 0x2 PUSH1 0x20 SWAP1 DUP2 MSTORE PUSH1 0x40 DUP1 DUP4 KECCAK256 DUP7 SWAP1 SSTORE PUSH1 0x3 SWAP1 SWAP2 MSTORE SWAP1 DUP2 SWAP1 KECCAK256 TIMESTAMP SWAP1 SSTORE PUSH1 0x1 SLOAD SWAP1 MLOAD PUSH4 0x163CD8D PUSH1 0xE6 SHL DUP2 MSTORE PUSH1 0x4 DUP2 ADD SWAP3 SWAP1 SWAP3 MSTORE PUSH1 0x24 DUP3 ADD DUP5 SWAP1 MSTORE SWAP1 SWAP2 AND SWAP1 PUSH4 0x58F36340 SWAP1 PUSH1 0x44 ADD PUSH1 0x0 PUSH1 0x40 MLOAD DUP1 DUP4 SUB DUP2 PUSH1 0x0 DUP8 DUP1 EXTCODESIZE ISZERO DUP1 ISZERO PUSH2 0x59E JUMPI PUSH1 0x0 DUP1 REVERT JUMPDEST POP GAS CALL ISZERO DUP1 ISZERO PUSH2 0x5B2 JUMPI RETURNDATASIZE PUSH1 0x0 DUP1 RETURNDATACOPY RETURNDATASIZE PUSH1 0x0 REVERT JUMPDEST POP POP PUSH1 0x40 DUP1 MLOAD DUP5 DUP2 MSTORE TIMESTAMP PUSH1 0x20 DUP3 ADD MSTORE PUSH1 0x1 PUSH1 0x1 PUSH1 0xA0 SHL SUB DUP7 AND SWAP4 POP PUSH32 0x91878448EF87C3DB4AEB83E60E7DEB1240ECAE3FD04975EC93547398514CB4ED SWAP3 POP ADD PUSH1 0x40 MLOAD DUP1 SWAP2 SUB SWAP1 LOG2 POP POP JUMP JUMPDEST PUSH2 0x605 PUSH2 0x68A JUMP JUMPDEST PUSH2 0x60F PUSH1 0x0 PUSH2 0x6E4 JUMP JUMPDEST JUMP JUMPDEST PUSH2 0x619 PUSH2 0x68A JUMP JUMPDEST PUSH1 0x1 PUSH1 0x1 PUSH1 0xA0 SHL SUB DUP2 AND PUSH2 0x67E JUMPI PUSH1 0x40 MLOAD PUSH3 0x461BCD PUSH1 0xE5 SHL DUP2 MSTORE PUSH1 0x20 PUSH1 0x4 DUP3 ADD MSTORE PUSH1 0x26 PUSH1 0x24 DUP3 ADD MSTORE PUSH32 0x4F776E61626C653A206E6577206F776E657220697320746865207A65726F2061 PUSH1 0x44 DUP3 ADD MSTORE PUSH6 0x646472657373 PUSH1 0xD0 SHL PUSH1 0x64 DUP3 ADD MSTORE PUSH1 0x84 ADD PUSH2 0x257 JUMP JUMPDEST PUSH2 0x687 DUP2 PUSH2 0x6E4 JUMP JUMPDEST POP JUMP JUMPDEST PUSH1 0x0 SLOAD PUSH1 0x1 PUSH1 0x1 PUSH1 0xA0 SHL SUB AND CALLER EQ PUSH2 0x60F JUMPI PUSH1 0x40 MLOAD PUSH3 0x461BCD PUSH1 0xE5 SHL DUP2 MSTORE PUSH1 0x20 PUSH1 0x4 DUP3 ADD DUP2 SWAP1 MSTORE PUSH1 0x24 DUP3 ADD MSTORE PUSH32 0x4F776E61626C653A2063616C6C6572206973206E6F7420746865206F776E6572 PUSH1 0x44 DUP3 ADD MSTORE PUSH1 0x64 ADD PUSH2 0x257 JUMP JUMPDEST PUSH1 0x0 DUP1 SLOAD PUSH1 0x1 PUSH1 0x1 PUSH1 0xA0 SHL SUB DUP4 DUP2 AND PUSH1 0x1 PUSH1 0x1 PUSH1 0xA0 SHL SUB NOT DUP4 AND DUP2 OR DUP5 SSTORE PUSH1 0x40 MLOAD SWAP2 SWAP1 SWAP3 AND SWAP3 DUP4 SWAP2 PUSH32 0x8BE0079C531659141344CD1FD0A4F28419497F9722A3DAAFE3B4186F6B6457E0 SWAP2 SWAP1 LOG3 POP POP JUMP JUMPDEST DUP1 CALLDATALOAD PUSH1 0x1 PUSH1 0x1 PUSH1 0xA0 SHL SUB DUP2 AND DUP2 EQ PUSH2 0x74B JUMPI PUSH1 0x0 DUP1 REVERT JUMPDEST SWAP2 SWAP1 POP JUMP JUMPDEST PUSH1 0x0 PUSH1 0x20 DUP3 DUP5 SUB SLT ISZERO PUSH2 0x762 JUMPI PUSH1 0x0 DUP1 REVERT JUMPDEST PUSH2 0x76B DUP3 PUSH2 0x734 JUMP JUMPDEST SWAP4 SWAP3 POP POP POP JUMP JUMPDEST PUSH1 0x0 DUP1 DUP4 PUSH1 0x1F DUP5 ADD SLT PUSH2 0x784 JUMPI PUSH1 0x0 DUP1 REVERT JUMPDEST POP DUP2 CALLDATALOAD PUSH8 0xFFFFFFFFFFFFFFFF DUP2 GT ISZERO PUSH2 0x79C JUMPI PUSH1 0x0 DUP1 REVERT JUMPDEST PUSH1 0x20 DUP4 ADD SWAP2 POP DUP4 PUSH1 0x20 DUP3 PUSH1 0x5 SHL DUP6 ADD ADD GT ISZERO PUSH2 0x7B7 JUMPI PUSH1 0x0 DUP1 REVERT JUMPDEST SWAP3 POP SWAP3 SWAP1 POP JUMP JUMPDEST PUSH1 0x0 DUP1 PUSH1 0x0 DUP1 PUSH1 0x40 DUP6 DUP8 SUB SLT ISZERO PUSH2 0x7D4 JUMPI PUSH1 0x0 DUP1 REVERT JUMPDEST DUP5 CALLDATALOAD PUSH8 0xFFFFFFFFFFFFFFFF DUP1 DUP3 GT ISZERO PUSH2 0x7EC JUMPI PUSH1 0x0 DUP1 REVERT JUMPDEST PUSH2 0x7F8 DUP9 DUP4 DUP10 ADD PUSH2 0x772 JUMP JUMPDEST SWAP1 SWAP7 POP SWAP5 POP PUSH1 0x20 DUP8 ADD CALLDATALOAD SWAP2 POP DUP1 DUP3 GT ISZERO PUSH2 0x811 JUMPI PUSH1 0x0 DUP1 REVERT JUMPDEST POP PUSH2 0x81E DUP8 DUP3 DUP9 ADD PUSH2 0x772 JUMP JUMPDEST SWAP6 SWAP9 SWAP5 SWAP8 POP SWAP6 POP POP POP POP JUMP JUMPDEST PUSH1 0x0 DUP1 PUSH1 0x40 DUP4 DUP6 SUB SLT ISZERO PUSH2 0x83D JUMPI PUSH1 0x0 DUP1 REVERT JUMPDEST PUSH2 0x846 DUP4 PUSH2 0x734 JUMP JUMPDEST SWAP5 PUSH1 0x20 SWAP4 SWAP1 SWAP4 ADD CALLDATALOAD SWAP4 POP POP POP JUMP JUMPDEST PUSH4 0x4E487B71 PUSH1 0xE0 SHL PUSH1 0x0 MSTORE PUSH1 0x32 PUSH1 0x4 MSTORE PUSH1 0x24 PUSH1 0x0 REVERT JUMPDEST PUSH1 0x0 PUSH1 0x1 DUP3 ADD PUSH2 0x88A JUMPI PUSH4 0x4E487B71 PUSH1 0xE0 SHL PUSH1 0x0 MSTORE PUSH1 0x11 PUSH1 0x4 MSTORE PUSH1 0x24 PUSH1 0x0 REVERT JUMPDEST POP PUSH1 0x1 ADD SWAP1 JUMP INVALID LOG2 PUSH5 0x6970667358 0x22 SLT KECCAK256 LOG2 CALLDATALOAD LOG4 0xB8 DUP14 0x25 0xE7 0xE PUSH32 0xD6253297ED1A12063A4980F7015F9D1E994B6A80F6D97E64736F6C6343000814 STOP CALLER "},"methodIdentifiers":{"batchUpdateScores(address[],uint256[])":"340458da","getLastUpdateTime(address)":"6e8c271b","getScore(address)":"d47875d0","lastScoreUpdate(address)":"ca8b052f","owner()":"8da5cb5b","renounceOwnership()":"715018a6","setTokenFactory(address)":"2f73a9f8","tokenFactory()":"e77772fe","tokenScores(address)":"e0690d99","transferOwnership(address)":"f2fde38b","updateScore(address,uint256)":"65d97724"}}}}}